:100000000A02020B0B0900060B000A0B0D0B01067E
:1000100000010602040B0D0B010600010602040A92
:10002000020A02020B0B0D00060606060A0606046B
:10003000080409040B0B00030F000B00040F06005B
:100040000C010B010A0B060B09000B00030F000B40
:1000500000040F06000C010B000A0B060B07000939
:10006000000A0F0900060A060A0606000000000141
:1000700001020304050607090A0C0E0A03040A0319
:10008000040A030A0302020B0C0C06060A000B0109
:100090000A000B030D0308090004000A0D03040005
:1000A0000A0F030A0004090E0A08080006080404DF
:1000B000000A0B01000D030B010401010F030B01EA
:1000C0000402020B040804000A0B040F000B040DC9
:1000D000020E0E0E0E0904060904060902060902A4
:1000E000020801000A010905060A0A0009050F01B4
:1000F00006060606060A060B040D00060B060F0090
:10010000040B0B08000208030108020004000A0B9C
:100110000100040B010004010B0B02040B02080098
:100120000009000C0000020002080301030E000495
:100130000A00020003000A0F060008000601070279
:1001400009020A000704090408040B000A00080059
:10015000060E0D0C0C020E0B0B000C070F00020C10
:100160000B0F0005050F04040D0B080402000A0222
:10017000020B0409040B0B000A0B040B0402020B14
:100180000C050606060A0900060402000A0200031E
:10019000000F0504050A0309010804000A0A00000B
:1001A0000A0109000A0E01070109010A00090406F3
:1001B0000A0B060D000A0009060D060F0006090AC3
:1001C0000009040804020004000A0F040501060ADD
:1001D000060A0E0B050F050B0E070D02000A0B0D8C
:1001E0000B02000300000000000200030000000CEE
:1001F0000C09010A00050201000A00050201000ABB
:1002000000040A0803000A0C0B00040C0009000497
:100210000B02040001000A000F0209020600090097
:100220000B02040001000A000F0209020804020088
:100230000A0A0F0905060A06020C0B020F0B020739
:100240000B0A0F08080D05060A0008030009000044
:100250000900000900000900000C0D0E04050A0049
:1002600004000B060B080B0100000A000000000050
:100270000C000F0F0F0F0F0F0505050505050505F0
:100280000A0A0A0A0A0A00030C0008040F03000EF7
:100290000E0508060F08010A000A000B06060F0CDF
:1002A00003010E0F0802010D0C00080B0403010CE2
:1002B0000F0F0A0004040D000A0C0C0D000E0008BC
:1002C0000008000300040004000F000404010F06EE
:1002D000020B0B01060008060A000806020B0B00C1
:1002E00006000600060806090F0C0F0D000A060C92
:1002F000000D0006010602040B0A08020C040B00A4
:10030000060A000B060B08000B060B08000A000883
:1003100000020D0B0B05020B0B08000106020A0080
:100320000806020B0B020B0B0C000D010C000A025D
:1003300009000A020A000C060D00060806020B0B53
:1003400004020B0A0400040D00080106020A00085A
:100350000604010B080000000008000A0B090B0D41
:10036000000800000A000806020B0B04020B020D35
:100370000B0B000A070A0008060F0F060A08040AFA
:10038000070A0B000A040A0A080308030A0D0803F7
:100390000A0C08010A0308030A0408010600000207
:1003A00002000002020202000002020000000F0E22
:1003B000020A000A0008000B0A0B01000C000106EB
:1003C0000608060A00060608060800060A000A06CD
:1003D00009000C0D0F060A0008010A000A000201BC
:1003E000020C0109000E01080D0F0201060A0008A7
:1003F000000A0F01070404000200000200020E08B8
:1004000000060200030E0008000A0F01070404049E
:10041000040400000800060200030E0008000A029F
:10042000060B030C04020B0B03080B03060A000166
:100430000A060202000F000A070F010A0A0F000B4A
:10044000080408030601000E0A0A0F09080C070435
:1004500005030C0C010D06030E040408040B0B002D
:1004600004040A0B060B0B0900060A06060000012D
:100470000203030405050606070707070707070722
:1004800007070706060505040303020100000F0E17
:100490000D0C0C0B0A0A09090808080808080808C6
:1004A00008080809090A0A0B0C0C0D0E0F080402B3
:1004B00002080300040408040B09040D0B00020FDA
:1004C0000C0B0F00040E0B0A000103050A00040ABE
:1004D000000B0309090B0309090B040B040B000BA8
:1004E000040B04000C000B000A0F0C010B000A01A6
:1004F0000209090909090F000B060B000B060B0482
:100500000B040809090B040209070902020C0C017B
:100510000C0B000A000102040B0C0C010F0E000A68
:100520000008000E00020B0B02050B020D0B02056A
:100530000B0A000D000B0B0002000D00000E060A56
:10054000060A06040808080808090909090909092A
:10055000090908080A00010A0001010003020A0251
:1005600002010003020A0202030003020A0002075A
:100570000B0A0002090B02070B0A0002090B0A0B07
:100580000809080B0809080805030808070B0801F3
:1005900008020500070906060A000804020A000B03
:1005A000000201000C0A000804020B000201000C0A
:1005B0000B0D0B0A0B000201010C0C090B000201D0
:1005C0000000040B000203000008060A00080402F1
:1005D0000B0002010E030E0000000A0002010B0CCA
:1005E0000C010F0A000C070B0008070402060204A6
:1005F0000A060008070D0008070807060A070C0787
:1006000009010E070807090D000E070E070A000C66
:10061000070B0008070A070D0C060B02020408006E
:1006200007070B070F01020F0B000C0F060009074D
:100630000A040202080D0009070907090706090E46
:100640000307030709000E070A0F08060A0A0F002E
:100650000A0F080A060A00000600080002040A0041
:100660000B010805080508050805040606000A0927
:100670000602090602060A0004080A050509000C1C
:100680000906020B0104040A0601070A0B0B050800
:1006900003000905070A0B0B06070A0B0B06070ADE
:1006A0000B0C0C010D0C0009000A000804020600E6
:1006B0000000000000000000000000000000000A30
:1006C000000A060202000F000A000C07020A0906CF
:1006D000020A080A000906020C040B000906020CB3
:1006E000010F060408070A0F090D0A000809000C8B
:1006F0000D0F020001050002030B0A0F08000400A1
:100700000B0A000A09000900000E0D0F0A0F0D0068
:100710000D0009000C0D0F0A000D000A000A000B65
:100720000E0B0902000C08010F0A000A000900095B
:100730000000080900000900000C0D0E0A0B08005B
:100740000A0008000A05000A0A0805000C0D0F0A35
:100750000E000A0002000D0F0802000F000804023C
:100760000E0A000A08020F0F000804020E0A0A000F
:100770000C0C090C0A000A030A0A02000D000A0008
:100780000D000803000A000A000B0E0B0903000C01
:1007900008010F0A08080808080807020B0B0200E6
:1007A00001010F020001030F02050B02050B0200FD
:1007B000010500040E0B0A0202000A0202040402F0
:1007C0000208060601060606070A0F0C050F0008B8
:1007D00006080008050A06020200010607080500CF
:1007E00004090B00000000010000000000000000F0
:1007F000000100000000000000000A0B0E0B020BBD
:00000001FF
