:10000000000E0E0C0C0E0E0F0F0F0F0C0000000058
:100010000008080008090D0F0F0F0F0C000000006A
:1000200000000001030D0F0F0F0F0C08000000006F
:100030000000000307070F0F0F0E0E0C000000005A
:1000400000030707070F0F0E0E0C00000808000042
:10005000030707030F0F0F0F0F0F0E0F0F06000000
:10006000060F0F070F0F0F0F0F0E0E0F0F0E0000D2
:10007000000F0F0F070F0F0F0F0F0F0F0F070000CD
:10008000000F0F0F0F0F0F0F0F0F0F0F0F000000BC
:1000900000070F0F0F0F0F0F0F0F070F0F0F0000AD
:1000A000000E0F0F0E0E0F0F0F0F0F070F0F060092
:1000B00000060F0F0C0F0F0F0F0F0F0307070300A2
:1000C00000080800000C0E0E0F0F070707030000C2
:1000D0000000000C0E0F0F0F0F07070300000000B9
:1000E000000000080C0F0F0F0F0B030100000000B1
:1000F0000000000C0F0F0F0F0D090800080800008A
:100100000000000C0F0F0F0F0E0E0C0C0E0E000057
:100110000001010F0F0F0F0E0E0E0E060F0F000045
:100120000001010F0F0F0F0F0F0F07030101010057
:100130000307070F0F0F0F0F0F0703010000000049
:10014000060F0F0707070F0E0F0F07010000000033
:1001500000000C0F0F0F0F0C0E0F0F03000000001C
:1001600000080E0F0F0F0C0E0F0F0F0108080000F4
:1001700000000E0E0E080C0F0F0F000808080000FC
:10018000000C0C0C080E0F0F0E080C0C0C000000DD
:1001900000080808000F0F0F0C080E0E0E000000DC
:1001A000000808010F0F0F0E0C0F0F0F0E080000B4
:1001B000000000030F0F0E0C0F0F0F0F0C000000BC
:1001C00000000001070F0F0E0F0F07070F0F0600AB
:1001D0000000000103070F0F0F0F0F0F07070300A9
:1001E00001010103070F0F0F0F0F0F0F0101000097
:1001F000000F0F060E0E0E0E0F0F0F0F0101000065
:1002000000000000000000080800000000000000DE
:1002100000000000000004000004000000000000D6
:1002200000000000000200040400020000000000C2
:1002300000000000040002000002000400000000B2
:100240000008080003030008080003030008080072
:100250000000080101000400000400010108000082
:100260000008080003030008080003030008080052
:1002700000080B030008000303000800030B08003C
:10028000000000000E0202020200000B060F060032
:1002900000000001020504050201000B050D050028
:1002A0000000000102050405020100070A0A0A0015
:1002B000000000000000000000000000000000003E
:1002C000000000000000000000000000000000002E
:1002D000000000000000000000000000000000001E
:1002E000000000000000000000000000000000000E
:1002F00000000000000000000000000000000000FE
:1003000000000000000000000000000000000000ED
:1003100000000000000000000000000000000000DD
:1003200000000000000000000000000000000000CD
:1003300000000000000000000000000000000000BD
:1003400000000000000000000000000000000000AD
:10035000000000000000000000000000000000009D
:10036000000000000000000000000000000000008D
:10037000000000000000000000000000000000007D
:10038000000000000000000000000000000000006D
:10039000000000000000000000000000000000005D
:1003A000000000000000000000000000000000004D
:1003B000000000000000000000000000000000003D
:1003C000000000000000000000000000000000002D
:1003D000000000000000000000000000000000001D
:1003E000000000000000000000000000000000000D
:1003F00000000000000000000000000000000000FD
:00000001FF
