:10000000000000000000000000080C06060E0606B6
:10001000000C06060C06060C000C06000000060C80
:1000200000080C0606060C08000C00000800000E74
:10003000000E00000C000000000E00000E06060E70
:10004000000606060E060606000C00000000000C66
:10005000000606060606060C00060C0800080C0E34
:10006000000000000000000C00060E0E0E06060642
:10007000000606060E0E0E06000C06060606060C08
:10008000000C0606060C0000000C0606060E0C0A04
:10009000000C06060E080C0E00080C000C06060CE0
:1000A000000C000000000000000606060606060C14
:1000B000000606060E0C0800000606060E0E0E06CA
:1000C00000060E0C080C0E06000C0C0C08000000BC
:1000D000000E0E0C0800000E0000000000000000E2
:1000E0000000000000000000000000000000000010
:1000F0000000000000000000000000000000000000
:10010000000000000F0F000008080C0C0C0E060683
:10011000000000080C0E07020002070E0C08000089
:100120000000000000000000000000070F0C0000AD
:1001300000040E0C0800000000000000080C0E0473
:1001400000000F0F0000000006060E0C0C0C080843
:10015000000000080C0E0400040E0C080000000053
:10016000000C0C0C0C0C0C0C000000000C0F070019
:1001700002070E0C080000000000080C0E07020029
:1001800000080C0606060408000000000000000C31
:10019000000C060E0C08000E000E0C080C06060CD7
:1001A000000C0C0C0C0E0C0C000C000C0606060CC3
:1001B000000C00000C06060C000E060C08000000E7
:1001C00000080404080E060C000C06060E060C08B7
:1001D0000F0F0F0F0F0F0F0F0F0F0F0F0F0F0F0F2F
:1001E0000C0C0F0F0F0E0C080C0C0F0F0F0F0C0C3C
:1001F000080C0E0F0F0F0C0C080C0E0F0F0E0C0836
:00000001FF
