:1000000000DB00DCD61CDA00D800DD00DB00DB0002
:10001000DDFB20DB00DB00DB00DD00DD00DA001DA6
:10002000DC00DC00D800D800D800D8001FDD00D8E4
:1000300000D9007300D900D9001CDC00DD00DD0010
:100040007400DB00DB001E7300DC00DA007400DDEE
:1000500000D800207400DA00DC007500D800DC0055
:100060001B7400DB00D800DC00DB00DA001E75002A
:10007000D900D900DA00DC00DD0020DA00D800DB8E
:1000800000DB00DA00D9001DDC00DA00DC00DD0056
:10009000D900DB001CDD00DC00DA00D900D800DC70
:1000A000001FDA00DB00D900D800DB00DD001BDB1D
:1000B00000D900D800DC00DC00D8001DEE00EE0006
:1000C000EE00EE00EE00EE001EF100F100F200F195
:1000D00000F300F3D61CF200F300F200F300F0008E
:1000E000EFFA20F300F200F300F000F400F2001D3C
:1000F000F400F000F100EF00EE00F1001FEE00F15F
:1001000000F000F300EF00F0001CEF00F300EF0040
:10011000F200F100F3001EF300F200F400F300F32C
:1001200000EF0020F200F400EE00F100F000F0001B
:100130001BEF00EE00F300F200F200F1001EF300EE
:10014000F300EF00F400F100F20020F200F100F102
:1001500000EE00F200F3001DF100F000F000F200EC
:10016000F300F2001CF100F200F200F300EF00F0E7
:10017000001FF300F300F300F300F300EF001BF4A3
:1001800000F400F400F400F400F4001DEE00EE00B2
:10019000EE00EE00EE00EE001EF100F100F200F1C4
:1001A00000F300F4001CF200F300F200F300F00092
:1001B000000020F300F200F300F000F4D1CF001DA6
:1001C000F400F000F100EF0000D2D0001FEE00F1CB
:1001D00000F000F300C9C300001CEF00F300EF00C3
:1001E000F200CAC4BF001EF300F200F400F300CB1B
:1001F000C5C0BD20F200F400EE00F100CCC6C1BEC7
:100200001BEF00EE00F300F200CDC7C2001EF300AA
:10021000F300EF00F400CEC8000020F200F100F17E
:1002200000EE0000D1CF001DF100F000F000F20060
:10023000EED2D0001CF100F200F200F300EF00005B
:10024000001FF300F300F300F300F300EE001BF4D3
:1002500000F400F400F400F400F40008888880083A
:10026000888880088888800888888008888880082E
:10027000888880088888800888888008888880081E
:10028000888880088888800888888008888880080E
:10029000888880088888800888888008888800087E
:1002A00088880008888880088888800808888008EE
:1002B000088880088888800888888008888880085E
:1002C00088888008888880088888800888888008CE
:1002D00088888008888880088888800888808008C6
:1002E00088808008888880088888800888888008B6
:1002F000888880088888800888888008888880089E
:10030000888880088888800888888008888880088D
:10031000888880088888800888888008888880087D
:10032000888880088888800888888008888880086D
:10033000888880088888800888888008888880085D
:10034000888880088088800880888008888880085D
:10035000888880088888800888888008888880083D
:10036000888880088888800888888008888880082D
:10037000888880088888800888888008888880081D
:10038000888880088088800880888008888880081D
:1003900088888008888880088888800888888008FD
:1003A000888880088888800888888008880880086D
:1003B000880880088888800888888008888880085D
:1003C00088888008888880088888800888888008CD
:1003D00088888008888880088888800888888008BD
:1003E00088888008888880088888800888888008AD
:1003F000888880088888800888888008888880089D
:10040000888880088888800888888008888800080C
:10041000888800088800000888000008888880080C
:10042000888880088888800888888008888880086C
:10043000888880088888800888888008888880085C
:10044000888880088888800888888008888880084C
:10045000888880088888800888888008888880083C
:10046000888880088888800888888008888880082C
:10047000888880088888800888888008888880081C
:10048000888880088888800888888008888880080C
:1004900088888008888880088888800888888008FC
:1004A00088888008888880088888800888888008EC
:1004B00088888008888880088888800888888008DC
:1004C00088888008888880088888800888888008CC
:1004D000888880088888800888888008880880083C
:1004E000880880088808800888088008888880082C
:1004F000888880088888800888888008888880089C
:10050000888880088888800888888008888880088B
:100510008888800888888008888880088880800883
:100520008880800888888008888880088888800873
:10053000888880088888800888888008888880085B
:10054000888880088888800888888008888880084B
:1005500088888008888880088888800888880008BB
:1005600088880008888880088888800888888008AB
:10057000888880088888800888888008888880081B
:10058000888880088888800888888008888880080B
:1005900088888008888880088888800888888008FB
:1005A00088888008088880080888800888888008EB
:1005B00088888008888880088888800888888008DB
:1005C00088888008888880088888800888888008CB
:1005D00088888008888800088888000888888008BB
:1005E00088888008888880088888800888888008AB
:1005F000888880088888800888888008888880089B
:10060000888880080888800808888008888800080A
:1006100088880008888880088888800888888008FA
:10062000888880088888800888888008888880086A
:100630008888800888888008888880088088800862
:100640008088800888888008888880088888800852
:10065000888880088888800888888008888880083A
:10066000888880088888800888888008888880082A
:10067000888880088888800888888008888880081A
:10068000888880088888800888888008888880080A
:1006900088888008080800080808000888888008FA
:1006A00088888008888880088888800888888008EA
:1006B00088888008888880088888800888888008DA
:1006C00088888008888880088888800888888008CA
:1006D00088888008888880088888800888888008BA
:1006E00088888008888880088888800888888008AA
:1006F000888880088888800888888008888880089A
:100700008888800888888008888880088888800889
:100710008888800888888008888880088888800879
:100720008888800888888008888880088888800869
:100730008888800888888008888880088888800859
:100740008888800888888008888880088888800849
:100750008888800888888008888880088088800841
:100760008088800880888008808880088888800841
:100770008888800888888008888880088888800819
:100780008888800888888008888880088888800809
:100790008888800888808008888080088888800809
:1007A0008888800808888008088880080888800869
:1007B0000888800888888008888880088888800859
:1007C00088888008888880088888800888888008C9
:1007D0008888800888888008888880080888800839
:1007E0000888800888888008888880088888800829
:1007F0008888800888888008888880088888800899
:100800008888800888808008888080088888800898
:1008100088888008888880088888800808888008F8
:1008200008888008888880088888800888888008E8
:1008300088888008888880088888800888088008D8
:1008400088088008888880088888800888888008C8
:1008500088888008888880088888800888880008B8
:1008600088880008888880088888800888888008A8
:100870008888800888888008888880088888800818
:100880008888800888888008888880088808800888
:100890008808800888088008880880088888800878
:1008A00088888008888880088888800888888008E8
:1008B0008888800808888008088880080888800858
:1008C0000888800888888008888880088888800848
:1008D00088888008888880088888800888888008B8
:1008E00088888008888880088888800888888008A8
:1008F0008888800888888008888880088888800898
:10090000888880088008000880080008800800089F
:10091000800800088888800888888008888880087F
:100920008888800888888008888880088888800867
:100930008888800888888008888880088888800857
:100940008888800888888008888880088888800847
:100950008888800888888008888880088888800837
:100960008888800888888008888880088888800827
:100970008888800888888008888880088888800817
:100980008888800888888008888880088888800807
:1009900088888008888880088888800888888008F7
:1009A00088888008888880088888800888888008E7
:1009B00088888008888880088888800888888008D7
:1009C00088888008888880088888800888888008C7
:1009D00088888008888880088888800888888008B7
:1009E00088888008888880088888800888888008A7
:1009F0008888800888888008888880088888800897
:100A00008888800888888008888880080888800806
:100A100008888008888880088888800888888008F6
:100A2000888880088888800888888008888080086E
:100A3000888080088880800888808008888880086E
:100A40008888800888888008888880088888800846
:100A50008888800888888008888880088888800836
:100A60008888800888888008888880088888800826
:100A7000888880088880800888808008888080082E
:100A8000888080088888800888888008888880080E
:100A900088888008888880088888800888888008F6
:100AA0008888800888088008880880088888000866
:100AB0008888000888888008888880088888800856
:100AC0008888800888888008888880080888800846
:100AD0000888800888888008888880088888800836
:100AE00088888008888080088880800888888008B6
:100AF0008888800888888008888880088888800896
:100B00008888800888888008888880088808800805
:100B10008808800888088008880880088888000875
:100B200088880008888800088888000880888008ED
:100B3000808880088888800888888008888880085D
:100B40008888800888888008888880088888800845
:100B50008888800888888008888880088888800835
:100B60008888800888888008888880088888800825
:100B70008888800888888008888880088888800815
:100B8000888880088088800880888008800800081D
:100B900080080008888880088888800888888008FD
:100BA00088888008888880088888800888888008E5
:100BB00088888008888880088888800888888008D5
:100BC00088888008888880088888800888888008C5
:100BD00088888008888880088888800888888008B5
:100BE00088888008888880088888800888888008A5
:100BF0008888800888888008888880088888800895
:100C00008888800888888008888880088888800884
:100C10008888800888888008888880088888800874
:100C20008888800888888008888880088888800864
:100C30008888800888888008888880088888800854
:100C40008888800888888008888880088888800844
:100C50008888800888888008888880088888800834
:100C60008888800888888008888880088888800824
:100C70008888800888888008888880088888800814
:100C8000888880088088800880888008800800081C
:100C900080080008888880088888800888888008FC
:100CA00088888008888880088888800888888008E4
:100CB00088888008888880088888800888888008D4
:100CC00088888008888880088888800888888008C4
:100CD00088888008888880088888800888888008B4
:100CE00088888008888880088888800888888008A4
:100CF0008888800888888008888880088888800894
:100D00008888800888888008888880088888800883
:100D10008888800888888008888880088888800873
:100D20008888800888888008888880088888800863
:100D30008888800888888008888880088888800853
:100D40008888800888888008888880088888800843
:100D50008888800888888008888880088888800833
:100D60008888800888888008888880088888800823
:100D70008888800888888008888880088888800813
:100D8000888880088088800880888008800800081B
:100D900080080008888880088888800888888008FB
:100DA00088888008888880088888800888888008E3
:100DB00088888008888880088888800888888008D3
:100DC00088888008888880088888800888888008C3
:100DD00088888008888880088888800888888008B3
:100DE00088888008888880088888800888888008A3
:100DF0008888800888888008888880088888800893
:100E00008888800888888008888880088888800882
:100E10008888800888888008888880088888800872
:100E20008888800888888008888880088888800862
:100E30008888800888888008888880088888800852
:100E40008888800888888008888880088888800842
:100E50008888800888888008888880088888800832
:100E60008888800888888008888880088888800822
:100E70008888800888888008888880088888800812
:100E80008888800888888008888880088888800802
:100E900088888008888880088888800888888008F2
:100EA00088888008888880088888800888888008E2
:100EB00088888008888880088888800888888008D2
:100EC00088888008888880088888800888888008C2
:100ED00088888008888880088888800888888008B2
:100EE0008888800888888008888880088888000822
:100EF000888800088888000888880008888000089A
:100F000088800008888000088880000888800008A1
:100F10008880000888800008888000088880000891
:100F20008880000888880008888800088880000871
:100F30008880000888800008888000088888000869
:100F400088880008888800088888000888888008C1
:100F500088888008888880088888804F5FDD65DD04
:100F600090D7675FD75DD761D77ED77CD77DC6FF27
:100F7000D77B9E56EC84DD5EDD62E602D760D764E7
:100F8000D6540D2226015FD75ABD8FB0D6505A1FB6
:100F900098DD58CC032CBD9604D620C401D7998681
:100FA0000CBD96044FD699C801DD88C604D79C397C
:100FB0009E4EBCFFFA2704C63BD75A39BD6447DCB6
:100FC00065DD900F928E05604FC614A784300A5AD3
:100FD00026F9D667860BBD9604C601D7E88608D6E3
:100FE00067BD9604BD9094C608D7934F5FD78AD744
:100FF0008BD66786073D8E6485308BEC03DD94ECE1
:1010000005DD8EDD6A34108D743510D6A0D79FE6CD
:1010100002D7A0EC84D79E4A97982626D6675CC153
:101020001A23015FD76786073D8E6485308BEC8479
:101030009798D79EE602D7A0EC03DD94EC05DD8EF1
:10104000DD6A0F9DD65AD7967F06288E06385FE751
:1010500080E780E780E780E780E780E780E780E758
:1010600080E780E780E7808E00A64F5FED81ED810D
:10107000ED81ED81E7844F5FDD9AD7A3399E8E1015
:101080008E0100C620D7C8EC81EDA1EC81EDA10A4C
:10109000C826F4398E04C06F10CC0001ED13D69928
:1010A0002731D689262DCC0490ED0EC601E7104FCE
:1010B0005FED11CC0020D390ED15C688E718C6016E
:1010C000E71ACCAFD0ED1E6F1DCC0520ED88EEC623
:1010D00002E70CD68826358E0490CC04C0ED0EC6EF
:1010E00001E7104F5FED11CC0000ED13CC0020D3D1
:1010F00090ED15C668E718C601E71ACCAFACED1E37
:101100006F1DCC04E0ED88EEC602E70C39CE02403C
:10111000DFD6CC0001D323DD238D2CBD916ABD9198
:10112000B4BD4127BD6362BD91D5BD4134BD4167AA
:10113000963B85802608D602588E9141AD953B435B
:101140007B92589296963610DFC810CE03E0CE20E0
:1011500080C60635303630353036303530363035AD
:101160003036305A26ED10DEC839D6E5F73018DCB7
:10117000E6B73000F73008D68B27389E8C318904CB
:1011800000CE03A0C60DD7C8E6C820A6C0A784E736
:10119000A43088E031A8E0E6C820A6C0A784E7A470
:1011A0003088E031A8E00AC826DEE6C820A6C0A73D
:1011B00084E7A4398E00433101C607A682A7A25A4C
:1011C00026F9B6300443973CB63002439740B63018
:1011D00003439742398E0030CE301F8D0E3005CE3E
:1011E000301E8D078D22D7C88D32394FE602270A6F
:1011F0005AE702C11E2610A7C439E68427096A846B
:101200004CA7C4C63CE70239D63CDA3D53D43ED4A1
:101210003FC430272C3404BD64003584D6C8C510C3
:1012200027058E00308D1BD6C8C52027058E0035BA
:101230008D10D6C8C5002709CC0001D3252702DDB3
:1012400025396C846C01A601A10325F5E6044FD372
:10125000252502DD256F0139BD95DAC601D7E8CC19
:10126000032CBD9604CC0000BD9604C601D7E54F03
:101270009722978B97E697E75FDD00DD03DD06DDBC
:1012800009DD0CD708D70BD70E0C02D63AC540277C
:1012900004C6FFD702399605488E92A4AD96BD9339
:1012A0001E8D0D39933E9348949294B694D59574BF
:1012B000D625DA26DA512733D63CC40F272D8D2CBC
:1012C000242997200F210D5126071DD325DD25DD6B
:1012D00027860197224F5FDD03DD06DD09DD0C0F58
:1012E000050F080F0B0F0EC602D702391A01340181
:1012F0000D51260C9E25272296532604301F2710B9
:10130000C502270CC6FF96532602C6FE860135810C
:10131000C5012706C6FF860035811CFE3584DC2505
:101320001093272718DD27CC0338BD9604CC07007F
:10133000BD9604C605D7050F080F0B0F0E39CC87D5
:10134000CDDD780F7A0C0539960848108E93516ED2
:10135000B6935B938F93BA941A94630DE8262F8EFD
:1013600064855F86073D308BEC05DD8EBD907DC6C4
:1013700001D7998601DD584F5FDD88BD90948601C5
:1013800097E5860197E8CC0119BD96040C08390D44
:10139000E82626CC1000BD9604CC020ABD9604CCEB
:1013A0000338BD9604CC0700BD9604CC1000BD9652
:1013B00004CC020BBD96040C08394F5FDD90C601CA
:1013C000D79D8E0490108E04C0C601E710E7304F01
:1013D0005FED11ED31E70CE72CCC001CED15C68854
:1013E000E718CC00D0ED35C688E738CC9BB6DD4A8F
:1013F000CC9BC4DD4C0F480F493430BDA98A353031
:10140000CC940AED1BED3B0C0839010002000000F2
:1014100002C001000000000002408E070831882051
:101420006F026F22C601E710E7304F5FED11ED311B
:10143000C608E713C609E7333430BDB19A3530CC5E
:101440000200ED11CC005CED15C6B4E718CC02002B
:10145000ED31CC0090ED35C6B4E738CC000ADD069E
:101460000C0839BD9A2CBDA98ABDB19ABDE7D6BD7D
:10147000E7DFBDFECFBDFF1ABDFF3DBDFF09D6248E
:10148000C43F260D9E06301F9F0626050C050F083B
:1014900039398E001E9F034F5FDD440F480F498E80
:1014A0009A6E9F4A8E9B149F4CC601D7200C050F45
:1014B000080F0B0F0E39BD9646D624C43F26F69E64
:1014C00003301F9F0326EEBD95DA0FE60C050F08CB
:1014D0000F0B0F0E399608108E94DE486EB694E806
:1014E00094F995229533955C0DE8260C860197E8D2
:1014F000CC0119BD96040C08390DE82624CC100047
:10150000BD9604CC0900BD9604CC020ABD9604CC5D
:101510000338BD9604CC0700BD960486F097070CEF
:1015200008390A07260C860197E8CC0119BD9604F4
:101530000C08390DE82624CC1000BD9604CC0A0016
:10154000BD9604CC020ABD9604CC0338BD9604CCEB
:101550000700BD960486F097070C08390A07261382
:1015600096259A269A5126050F080F05390C050F66
:10157000080F0B3996088E957C486E969582959A41
:1015800095CD0DE82613BD95DA0FE60F8BCC01192A
:10159000BD9604C601D7E80C08390DE8262EBD9586
:1015A000DACC020CBD9604CC020ABD9604CC100025
:1015B000BD9604CC0700BD9604CC0324BD9604CC94
:1015C0000E00BD9604CC00F0DD060C08399E0630F6
:1015D0001F9F0626040F050F0839C6063444CE04A3
:1015E00040CCF8F81F0131843636363636166AE4B8
:1015F00026F635C4D679D87853585809790978D65B
:1016000079D77A39109E10EDA1108C01C0250410F5
:101610008E0180109F1039E61D261810AE1EECA119
:10162000A784E701E6A02A0510AEA4C47FE71D1039
:10163000AF1E396A1D399605488E963E6E96A2C534
:1016400096469BD29D60D608588E964E6E959658BB
:1016500096A6979D97E397F9D60B588E96606E9550
:101660009662D60E8E966A586E95966E9692D6E8CB
:10167000261FCC053FBD9604CC032CBD9604CC00A0
:10168000000D222603CC011ABD9604C601D7E80C32
:101690000E39D6E8260FBD8F5BBD63F6BD64700CB6
:1016A000080F0B0F0E39D60B8E96AE586E9596BA64
:1016B00096C097109749977B978ABD8FBC0C0B39C2
:1016C0008E0828108E0010C620BD97937F06388E96
:1016D0000A28108E0006BD97937F06488E0AE810F0
:1016E0008E0004BD97937F06588E0B68108E000203
:1016F000BD97937F06688E0BA8108E0004BD97934C
:101700007F06788E0E28108E0001BD97930C0B3942
:101710008E0CE8108E0006C620BD97937F06888E3B
:101720000DA8108E0004BD97937F06A88E0C28107C
:101730008E0006BD97937F06988E0768108E000670
:10174000BD97937F06B80C0B398E04E0108E000411
:10175000C620BD97938E0E48108E0003C630BD97ED
:10176000938E0708108E0003C620BD97930F9A7FB3
:1017700006D87F05507F05580C0B398E0ED8108E79
:101780000004C620BD97930C0B39D6E826040C083C
:101790000F0B394FA7103085313F26F839D60B583B
:1017A0008E97A56E9597AB97C697D2BD9A2CBDA57F
:1017B000E2BDE2B3BDEF51BDFED8D688D489260183
:1017C000390C0B0F0E39BD6452BD6466C604D70ACE
:1017D0000C0BD624C43F260A0A0A26060C080F0B57
:1017E0000F0E390C055FD708D70BD70E395FD7021C
:1017F000D705D708D70BD70E39D60B588E98016E60
:1018000095980798359861D60E588E980F6E9598D2
:1018100015981B9830C603D70C0C0EBDA5E2BDE28F
:10182000B3BDEF51BDFED8D624C43F26020C0E39FD
:101830000C0B0F0E39D60E588E983D6E9598419828
:1018400058D6E82612BD95DABD63F6C601D7E8CCB6
:10185000011ABD96040C0E39D6E826040C0B0F0EA7
:1018600039D60E588E98696E959877989898DF9922
:101870002C998999E99A180FE6CC021ABD9604D6DC
:101880007E5CC1092302C6104FDDDC5FDDDEDD902A
:101890008E07486F100C0E39D68826408E0490C6ED
:1018A00001E710CC0020ED15C6A0E718CC0220BD42
:1018B00096048E116D108E00DCD6E9BD4EBED6A505
:1018C000271AC10126168E0748C601E710CC004032
:1018D000ED15C680E718CC0221BD96040C0E39D652
:1018E00020C5012744D68926408E04C0C601E710D2
:1018F000CC0020ED15C660E718CC0222BD96048E00
:10190000126D108E00DCD6E9BD4EBED6A5271AC1D9
:101910000226168E0748C601E710CC0040ED15C61A
:1019200040E718CC0223BD96040C0E39C603D7C875
:10193000CE99628E0828C603D0C886053D31CBEC0F
:10194000A1ED1E6F1DECA1ED15E6A4E718C601E799
:1019500010BD96173088200AC826DBC605D70D0CA7
:101960000E3999710090209979005020998100706A
:10197000205CDD0A5DDD90997183FE0A86FE9099F8
:101980007940FF0A41FF909981BD99C5BD999CD6C8
:1019900024C43F26060A0D26020C0E39BDFECF8E4A
:1019A0000490BDFFB38E04C0BDFFB38E0748BDFFDA
:1019B000B3C603D7C88E0828BDFFB33088200AC835
:1019C00026F67EFF098E0490BD96178E04C0BD9644
:1019D000178E0748BD9617C603D7C88E0828BD9630
:1019E000173088200AC826F639D6882606CC040087
:1019F000BD9604D620C501270AD6892606CC0480C8
:101A0000BD9604D6A5270E5A2604C6342002C6B4B5
:101A10008604BD96040C0E390C7E4F5FD767DD65DA
:101A2000BD645CC601D7080F0B0F0E39DC44DD46E0
:101A30000D2227079640D642DD4439CE0044108E51
:101A4000004A8D09334131228D038D1339E6442636
:101A50000BAEA4EC81A7C4E744AFA4396A4439D6DD
:101A600024C4072608DC44CA018A01DD4439083051
:101A70002001103008301005086020080858202088
:101A8000085000000010051008350430080110103F
:101A9000010109100420081010580910094009011B
:101AA0001101041008300000205808100837000108
:101AB0002019000D010D0011010F0003012000018C
:101AC00005001400380000001E001D003500000055
:101AD000070000000B0007000C0008000F00670063
:101AE000110029002B00010007001B0104000F0159
:101AF00017000501120005010E00170110000E016C
:101B000017000A10110023084F00C1042200020828
:101B1000290001200450201008391030040520103D
:101B2000091011100420085810100820041020502B
:101B300009250401102008010000091021100805E2
:101B400020100450202009300840111008200505FD
:101B50001020093021050820012010100011000F6D
:101B600000030020A6010000080000001000000093
:101B70000800000004000000010000000100000057
:101B80000100000010000000040000000800000038
:101B90000001000000010000000100000001000041
:101BA0000001000000010000001000000008000417
:101BB000000000080020083F10402040084004605A
:101BC00000FF00FF043F104020400440086000FF79
:101BD00000FFD608588E9BDA6E959BE49BFF9C32E3
:101BE0009CD59CFF0F8B0FE6BD95DA4F5FFD037010
:101BF000FD0372FD0374FD0376F703780C08398E3C
:101C0000006C108E0300BD9C81251FC601F7037078
:101C1000860590C8B703730AC82703BD9C97BD9C6F
:101C2000B6CC1010EDA1EDA12005C601F703820C82
:101C30000839D620272D8E0070108E0300BD9C81A0
:101C4000251DC601F70371860590C8B703740AC83D
:101C500027028D438D60CC1010EDA1EDA18D0E0CEF
:101C6000082009C601F7038EC604D70839F60373A6
:101C7000F10374260BC10427047C0373397F0370BE
:101C800039C605D7C8BD9CBF4D260931280AC826CC
:101C9000F41A01391CFE3934308E0320108E0328CB
:101CA000EC83EDA3EC83EDA3EC83EDA3EC83EDA338
:101CB0000AC826EC35B0EC81EDA1EC84EDA139EC3D
:101CC0008410A3A42509220AEC0210A32224034FA6
:101CD000200286FF398E0074108E0328BD9D2425B6
:101CE0001BC601F70372860590C8B703758D4A8D30
:101CF000C5CC1010EDA1EDA1EDA1EDA10C0839D6D8
:101D0000202712F60370FA0371FA03721027FADD26
:101D10000F080C0539F60370FA03721027FACE0F7C
:101D2000080C0539C605D7C88D954D2609312C0AF2
:101D3000C826F51A01391CFE3934308E0358108E2E
:101D40000364EC83EDA3EC83EDA3EC83EDA3EC83C0
:101D5000EDA3EC83EDA3EC83EDA30AC826E435B034
:101D6000BD9A2CD608588E9D6FAD957E92B0399D48
:101D7000779DA8A26997EDD60B588E9D7F6E959D95
:101D8000859D8F9D9F0F8B0FE6BD95DA0C0B39BD9E
:101D90006461CC011ABD9604C601D7E80C0B39D694
:101DA000E826040F0B0C0839D60B588E9DB06E95A3
:101DB0009DB69DFA9EDCBDA1F0CC0217BD9604F63F
:101DC0000372FA03702714CC0218BD96048E0480A7
:101DD000C601E784108EA1D0BD9F37F60372FA03C7
:101DE000712714CC0219BD96048E04B0C601E78495
:101DF000108EA1D8BD9F370C0B39BD9E01BD9E37FB
:101E000039F60370FA0372270ABD9EC1F6037226E3
:101E100017200EF60371271EC6018E0380E70220ED
:101E200007C6018E0380E70EBD9EA68E0380E602E4
:101E3000E40E27020C0B39F60378588E9E406E95FF
:101E40009E469E739EA0D620270C108EA1D8AE264B
:101E5000E684C53C2619108EA1D0AE26E684C53C8A
:101E6000260DDC23C30D48FD03767C037820037F19
:101E7000037839D620270C108EA1D8AE26E684C56B
:101E80003C2619108EA1D0AE26E684C53C260DDC7A
:101E90002310B3037626087C037820037A0378396D
:101EA0007F03780C0B39108EA1D8BD9F75AE22E64A
:101EB0000227037F04B08E04B08657C6C0BD9FF9C9
:101EC00039108EA1D0BD9F75AE22E60227037F0494
:101ED000808E04808656C6C3BD9FF939F6037027ED
:101EE00009F603738E0398BD9F25F6037127098EAB
:101EF000039CF60374BD9F25F603722703BD9F055F
:101F00000F0B0C0839F60375860C3D8E0398108E66
:101F1000032C31ABEC81EDA1EC81EDA1EC81EDA1C5
:101F2000EC81EDA139585858108E030431A5EC818D
:101F3000EDA1EC81EDA1394F5FAE22ED84ED07ED0F
:101F400002C654E706AEA4C63FE780E780E780E715
:101F500084AE22E6018610AE2458AE85E7890400DF
:101F6000A781E7890400A781E7890400A781E789A1
:101F70000400A78439AE22E6022621AE26E60253EB
:101F8000E484C501270AAE22E606C152250F243D8E
:101F9000BDA056BDA0B1BDA108BDA16139AE22E66C
:101FA00006CEA214A6C5E601EEA4A7C53474BDA151
:101FB000B635745CC1042710E701BDA056BDA0B1C1
:101FC000BDA108BDA1612004C601E70239AE228689
:101FD0003FE601EEA4A7C5E606C1522706C601E703
:101FE000022015E60127026A01BDA056BDA0B1BDC1
:101FF000A108BDA161BDA1B639A78810E788115F0E
:10200000E705EE22A646C611BDC29CC10F26056C8F
:10201000465C20085A26046A4620015C585858CB72
:102020003CC1BC2204E7062004C63CE706484848F9
:1020300048340286C4A0E0817C240686C4A7082018
:1020400002A708BDFECF8E0490BDFFB38E04C0BDB5
:10205000FFB3BDFF0939EE22E643588EA0606E95AE
:10206000A064A08EAE26E60253E484C508260AE6E4
:1020700002E484C508261020146C466C46E646C16E
:1020800054230A6F4620066C43C614E74539AE2632
:10209000E602E484C50827166A4526146C466C4699
:1020A000E646C15423026F46C60AE74520026A434A
:1020B00039EE22E6C4588EA0BB6E95A0BFA0E7AE55
:1020C00026E60253E484C504260AE602E484C50435
:1020D000260E20126A466A462A0CC654E746200697
:1020E0006CC4C614E74439AE26E602E484C504276E
:1020F000146A4426126A466A462A04C654E746C64B
:102100000AE74420026AC439EE22E647588EA1123B
:102110006E95A116A140AE26E60253E484C52026A2
:102120000AE602E484C52026102014E646CB11C13D
:10213000542302200AE74620066C47C614E74939B3
:10214000AE26E602E484C52027146A492612E64634
:10215000CB11C1542202E746C60AE74920026A476A
:1021600039EE22E648588EA16B6E95A16FA197AE0D
:1021700026E60253E484C510260AE602E484C5106C
:10218000260E2012E646C0112A02200AE746200643
:102190006C48C614E74A39AE26E602E484C5102727
:1021A000126A4A2610E646C0112B02E746C60AE725
:1021B0004A20026A48393440EE24AE22E601AEA439
:1021C000A68558AEC5A784862CA78904003540395A
:1021D00003980380A1E00044039C038CA1E8004520
:1021E00012E712E912EB12ED12F212F412F612F8E3
:1021F0008EA212EE81C6053404C611862CA7C9042E
:1022000000A680A7C05A26F333C82F6AE426EA3214
:10221000613910C82F10111012101310141015105E
:10222000161017101819101A101B101C101D101E54
:10223000101F10201021221023102410251026100A
:102240002710281029102A00100110021003100472
:10225000100B100D102C103F051006100710081061
:1022600009100E102B105F104FD60B588EA2716EF6
:1022700095A279A293A29EA2B5BD646BBD95DACC5E
:10228000011ABD9604CC0900BD9604CC00B4DD064D
:102290000C0B399E06301F9F0626020C0B39BD958C
:1022A000DACC011ABD9604CC0A00BD9604CC00B469
:1022B000DD060C0B399E06301F9F062607BD63F610
:1022C0000C080F0B39D608588EA2CD6E95A2D3A359
:1022D00008A335D6E82630CC053FBD9604BD63F68D
:1022E000C601D7E8CC0B00BD9604CC0800BD96040F
:1022F000CC0114BD9604CC1000BD9604CC1300BDD7
:102300009604BD64800C0839CC0138DD064F5FDDD2
:1023100090D7E6BD95DAC606D7C88E08284F5FED80
:1023200011C601E710C606D0C8E7143088200AC8D5
:1023300026EB0C0839BDA3998D038D12398E082820
:10234000C606D7C88D263088200AC826F739BDFEB4
:10235000CF8E0828BDFF6A308820C605D7C8BDFFCC
:10236000B33088200AC826F6BDFF0939E6102708D1
:10237000CEA379EC11486ED639A3C9A4ECA502E628
:102380000D2613EE0EA6C02A04EEC420F8A71AE606
:10239000C0E70DEF0E396A0D39DC06830001DD065A
:1023A00026090C055FD708D70BD70E39E61A5858FF
:1023B000EB1AEE1B33C5EC16E341ED16E615E9C446
:1023C000E715EC18E343ED1839E61458D7C9CEA445
:1023D00010ECC5ED1BCEA476D6C9ECC5ED0E6F0D85
:1023E000D6C9CEA482EEC5ECC1ED15E6C4E718CE81
:1023F000A494D6C9EEC5EF1E6F1D6C11E61410260D
:10240000F215CED97BECC1ED04ECC4ED067ED52AE5
:10241000A41CA449A449A449A449A449000000005B
:10242000000000800000000100FF000000000080AC
:10243000FFFF00FF00FFFF800000FFFF0001000022
:102440000000008000010001000000000000000109
:10245000000000000140FEC00000000100FFFEC0BF
:10246000FEC0FFFF000000FFFEC0014000000001B1
:10247000000001400140A58CA597A5ACA5C1A5CC45
:10248000A5D7A48EA491A491A491A491A49100F89D
:102490006800F828DA79AFACAFD0A4A0A4AEA4BC91
:1024A00058DD035ADD0359DD035ADD83A4A084FE01
:1024B0000383FE0385FE0383FE83A4AE4AFF03422B
:1024C000FF0343FF0342FF83A4BCA4D0A4D8A4E02D
:1024D0005EDD035FDD83A4D087FE0388FE83A4D87E
:1024E00044FF0345FF83A4E055C05281BDA37FBDD7
:1024F000A3ACBDA540E61A2728E6141027302B7E92
:10250000961758CEA5086ED5A50CA522E614C003D3
:102510002B0FCEA4CA58ECC5ED1E6F1DBD96176CCF
:102520001239CE0828EC55830008DDCAE614C00332
:1025300086103DD3CAED15E658C00CE7187E9617F5
:10254000E614260CE618C038CB02C10422028D0125
:1025500039CE0848C606D7C9E650C5022626E65435
:10256000C103250BCC0200ED51C602E75020151027
:102570008EA4E6E65458ECA5EDC4C612E75D6F4D97
:10258000C602E75033C8200AC926CD39019002306F
:10259000086800FFFFA58C0050015000FF060600F0
:1025A000000406000C01A000FFFFA597000401A095
:1025B00000FF080600000206000C013000FFFFA526
:1025C000AC0044017000FF00FFFFA5C10030018096
:1025D00000FF00FFFFA5CC0018019000FF00FFFFE7
:1025E000A5D7BDA98ABDA689BDA893BDB018BDB3A6
:1025F0006FBDB0D1D69C2652BDB19ABDB9BABDBB94
:10260000DEBDBF30BDC2D5BDDE95BDDBEDBDC69B19
:10261000BDCEFABDCBC8BDD317BDD54BBDE1AF0F05
:10262000A139D2D650B0D3D660B0D4D670B0D5D6FA
:1026300080B0D6D690B0D7D6A0B0D8D66070D9D654
:102640007070DAD68070DBD690700D7E263A8E08D8
:1026500028108E000A0D222602313CC1022520CE10
:10266000A622C602E710ECC1A784E701E6C04FD35B
:1026700090ED15E6C0E718308820313F26E4396F29
:1026800010308820313F26F739D69D8EA691586E9E
:1026900095A697A787A7F0DC91C3008DDD91240252
:1026A0000C9097E684089893261C96938808979335
:1026B000968A850126048D1120028D3FBDA82F8D9D
:1026C0006FC601D78B390F8B394FD68AC313E0DD24
:1026D0008C8E03A1109E94C60DD7C8E6A04F584912
:1026E00058495849CE653B33CBECC4ED84EC44EDFE
:1026F000882030020AC826E30C8A394FD68AC313D1
:10270000E0DD8C8E03A1109E94C60DD7C8E6A04FC5
:10271000584958495849CE653B33CBEC42ED84ECDF
:1027200046ED882030020AC826E3109F940C8A39AF
:10273000D68AC41F2650D78ABD54E70A982633D6B6
:102740005AC11C24055CD75AD796D6675CC11A2596
:10275000015FD76786073D8E6485308BD69ED79DF7
:10276000EC849798D79ED6A0D79FE602D7A0DC909E
:10277000DD65D66786073D8E6485308BEC03DD947E
:10278000EC05DD8EDD6A39D624C43F260D0A9F266E
:10279000090F9DCC0100FD0F4839DC904CDDCA8E3D
:1027A0000560C614D7C80FC9E684270FE609C10221
:1027B0002609DCCA10A30425020CC9300A0AC8265F
:1027C000E7D6C9260A0F9DCC0100FD0F482001392C
:1027D000CE0550C668E744CC0100EDC4CE0708C65C
:1027E0000AE753D67DE742D67DC10624020C7D3927
:1027F0008D15D624C43F260E0A9F260A0FA5C604AF
:10280000D7080F0B0F0E39D624C50F2611CEA81FDF
:10281000C5102603CEA827108E10F4BDB78A39C67E
:10282000C4C7C54C4C4C4CC6C4C7C5B8B8B8B8D65C
:102830008A5A58584FC301001F029E8EEC81EDA1A9
:10284000EC81EDA19F8E39EC15C300089390545490
:1028500054DB8AC41F5858CE010033C5E6185454BF
:10286000541F98545454C40333C597D58407108E0D
:10287000A88BE6A6E5C42710E618C40FC002C10E57
:102880002206C005501A01391CFE3980402010086C
:102890000402018E0F48E6842747E60158CEA8A21D
:1028A0006ED5A8A6A8AECC0800ED026C0139D624DE
:1028B000CB03C503262BC606D7C8C606D0C85810FA
:1028C0008EA92210AEA5E603585858CEA8E233C50B
:1028D000BDB78A0AC826E36C036A0226044F5FED7F
:1028E0008439D0C0D1C14E4E4E4ED2C2D3C34E4E0B
:1028F0004E4ED4C4D5C54E4E4E4ED6C6D7C74E4EFC
:102900004E4ED8C8D9C94E4E4E4EDACADBCB4E4ECB
:102910004E4EDCCCDDCD4E4E4E4EDECEDFCF4E4E9B
:102920004E4E139E131E129E121E119E111ED6A1F4
:102930002712EC159390830008108300E82205CC41
:10294000FF00ED11398E0490318830E613EA33260A
:1029500038E618E038CB08C110242EEC15A335C397
:10296000000C10830018242183000C2A074353C352
:1029700000011E123406CC000CA3E44756EDE4E33C
:1029800015ED15EC35A3E1ED35398E04909644D65E
:1029900046ED088D12D689260D3088309645D647EB
:1029A000ED088D03209F39E61027FBE61310260360
:1029B000EABDACFEEC1148CEA9F7ADD6BDAB52BD19
:1029C000AD108D0139D69D262DE611C1052727E6CC
:1029D00008E409C43C261FEC16C3008DED16240242
:1029E0006C15E60D270DEE0EEC56C3008DED56244A
:1029F000026C55BD961739AA03AA26AB82AC38AC37
:102A0000C4ACDCC601E7106F0DCCAA16ED1B6F1D20
:102A1000BD96176C113901AA0200000002C0014DD9
:102A200000000000024058CEAA30ADD5BDACFE3942
:102A3000AA326A18BDAACF8D0725028D2F7EAAF46F
:102A4000BDAB3DE408C5042607C50826111A0139A7
:102A50008603A11A2705A71ABDAAB51CFE3986014F
:102A6000A11A27F7A71ABDAAB51CFE39E61A5AEE15
:102A70001B585833C5E61AC50226118D22E60D27CC
:102A80001A10AE0E1E128D171E12200F8D1CE60D91
:102A9000270910AE0E1E128D111E12BD961739ECAD
:102AA00016E3C4ED1624026C1539EC16A3C4ED161A
:102AB00024026A1539A61A2715CEAFA4E6142703F7
:102AC000CEAFC84A48ECC6ED1E6F1D7E961739E69C
:102AD0000953E408C5102706CC0200ED1139A611F0
:102AE0008105270FC520270BE618C1282305CC0335
:102AF00000ED1139BDA8472405EB18E71839BDAB27
:102B00000F2406CC0500ED1139CC0300ED1139EE90
:102B10000EE6505A2623E618C010E058CB08C11024
:102B20002217C00350D7D4EC15A355C3000B108354
:102B300000162405D6D41A01391CFE5F39EC159312
:102B4000901F98C60C81082202C4FB81D82502C4BC
:102B5000F739EC1593901083000824143406CC0048
:102B600008A3E1E315ED15E611C1051026EAA83921
:102B7000108300D0250B8300D0EDE3EC15A3E1ED2D
:102B80001539CEAB8F58ADD5BDAA40BDACFE39AB23
:102B900097AB9DAC04AC15E618E70A6C12EE1B333C
:102BA0004EEC18E3C4ED18E60D270910AE0EEC3814
:102BB000E3C4ED38BDA8472513BDABDD2515E618E8
:102BC000E00AC1202305CC0300ED1139C608E70A4D
:102BD0006C1239CC0302ED11C610E70A39EE0EE68D
:102BE000505A261DE6515A2618E658E018C10E2202
:102BF00010EC15A355C3000E1083001C22031A010C
:102C0000391CFE39E60D2704EE0E6C586C186A0A62
:102C100026026C1239E60D2704EE0E6A586A18BDBA
:102C2000A84724F0E60D2704EE0E6C586C18CC0172
:102C300000ED11C6307EAAD258CEAC45ADD5BDAAA6
:102C400040BDACFE39AC4DAC53AC68AC79C608E7BE
:102C50000A6C12E60D2704EE0E6C586C186A0A26F0
:102C6000066C12C610E70A39E60D2704EE0E6A5804
:102C70006A186A0A26026C1239EE1B3346EC18A356
:102C8000C4ED18E60D270910AE0EEC38A3C4ED38DC
:102C9000BDA847241CD7C8EB18E718E60D2708EE97
:102CA0000ED6C8EB58E758CC0100ED11C6307EAA0D
:102CB000D2BDAB0F24C2EB18E718CC0500ED11C64E
:102CC000307EAAD258CEACCA6ED5ACCEACD5C6FF3B
:102CD000E7106C12394F5FE710ED1139BDAACFBD77
:102CE000AA402503BDAA6C8D0139BDAB0F2409EEA6
:102CF0000EE658CB0EE71839CC0300ED11394FEE34
:102D00000EE6505A2607E651C10526014CA70D399B
:102D1000A60C273EE60953E408C50127353430BD2B
:102D200064243530EE88EEA650270333C820C60150
:102D3000E7504F5FED51E61AA6132702C601E75A86
:102D4000EC15ED55E618E758A61181052604C008D4
:102D5000E75839108E0490A63343A430840131A87B
:102D600030E63353E430C401340631A8D08D023547
:102D700086D699271CE6632718E662270EEC3510E5
:102D8000A3A825240331A8301CFE3931A8301CFE2D
:102D900039E66227031CFE391A0139EC1148CEAD21
:102DA000B3ADD6D69D260BEC16C3008DED162402CE
:102DB0006C1539ADC3ADFCADFCAE16AE30AE5CAE3D
:102DC00072AE9958CEADC96ED5ADD1ADF1AFFCB0F4
:102DD0000A3430BD64333530C602E710CEADCDE6DF
:102DE0001458ECC5ED1E6F1DBD9617C63CE70A6C66
:102DF000126A0A1026E8206F126C1139BD96176A04
:102E0000186A18E618C1F82508C6F8E718C603E7D7
:102E10001139AFACAFD0CEAE12E61458ECC5ED1EF2
:102E20006F1DBD9617C601E71AC6F8E7186C113971
:102E3000CE0058E61433C5E6C42706CC0500ED11D4
:102E400039CC020EEB14BD9604CE0088E61433C5CF
:102E5000C601E7C46F13CC0400ED1139CE0058E66B
:102E60001433C56AC4860CE614BD9604CC0600ED86
:102E70001139E61458CEAF96ECC5ED1E6F1DBD9608
:102E800017DC90830008ED15C668E718C601E71A3D
:102E9000C610E70B6C116F123958CEAED3ADD5E624
:102EA0000B260EBDAD10E608C43C27EC8D067EAAAD
:102EB000CF6A0B39CEAE12E61458ECC5ED1E6F1D6D
:102EC000BD9617C601E71AC601E7106F13CC0000C4
:102ED000ED1139AEDBAEE1AEF4AF11C610E70A6C0E
:102EE000126A0A1026005DCEAF62ECC1EF06A71A87
:102EF000E70A6C12BDAF446A0A2615EE06ECC1EF74
:102F000006A71AE70A4C26086F1AC606E70A6C12CB
:102F100039BDAF448D0ED624C43F26076A0A260366
:102F2000BDAEB439E60AC1032219CEAE12D624C50D
:102F30000F2610C5102603CEAF96E61458EEC5E650
:102F4000C4E78439CEAF69E61A5858EB1A33C5EC9A
:102F500016E341ED16E615E9C4E715EC18E343ED79
:102F6000183901980550011CFF0000000000000105
:102F70002000000000CBFF35000000FEE0FFFF3521
:102F8000FF35FFFEE00000FFFF3500CB0000000131
:102F9000200000CB00CBAF9AAF9F53C0FFAF9A5435
:102FA000C1FFAF9FAFACAFACAFBAAFAC40C0044154
:102FB000C00450C00441C084AFAC408004418004D0
:102FC000508004418084AFBAAFD0AFD0AFDEAFD075
:102FD00048C10449C10451C10449C184AFD04881EA
:102FE00004498104518104498184AFDE46C201470E
:102FF000C281AFEC4EC2014FC281AFF442C0024366
:10300000C00244C00245C082AFFC4AC1024BC102AB
:103010004CC1024DC182B00A8E04E0108E04908D26
:1030200019308820108E04908D10108E04C08E05EB
:10303000208D07308820108E04C0E6102708E61186
:1030400058CEB047ADD539B05EB075B0A1B0B100C3
:103050000000000600000000FFFA000000006A2CDB
:10306000EC15ED08CCAFECED1E6F1DBD9617CCB086
:103070004FED1B6C11BDB0C0EE1BE61A58EB1A33B6
:10308000C5EC16E341ED16E615E9C4E715EC15A30A
:1030900008C30060108300C01025E57BC602E7115D
:1030A00039CCAFF4ED1E6F1DC604E70A6C117E9695
:1030B000176A0A1026E5606C2C4F5FED11E7103996
:1030C000EC159390C1F025084F5FED11E7106C2CC3
:1030D00039D69D26138E0550CE0708DFC88D0A30DD
:1030E00008CE0728DFC8200139E6842708E6015802
:1030F000CEB0F66ED539B102B115B12EB155B16E63
:10310000B187D6A4270ECCB18AED06E604545454F8
:10311000E7056C0139D68B2714E605CE03A031C52F
:10312000EE06ECC4EDA4EC48EDA8206C0139D68B7A
:103130002722E605CE03A031C5EE06EC42EDA4EC55
:103140004AEDA820DEC8C601E7504F5FED51E60505
:10315000E74C6C0139D68B2714E605CE03A031C5A8
:10316000EE06EC44EDA4EC4CEDA8206C0139D68BB6
:103170002714E605CE03A031C5EE06EC46EDA4EC1F
:103180004EEDA8206C01396F84391A0A1B0B1C0CF8
:103190001D0D42424242424242428E07088D083093
:1031A00088208D03308820E6102708CEB1B4EC11BA
:1031B000486ED639B1BCB1F3B23DB28658CEB1C279
:1031C0006ED5B1C6B1E9E60C585858E718DC90C383
:1031D00000F8ED15C620E70D6C12E61358CEB2913B
:1031E000ECC5ED1E6F1D7E96176A0D2605CC0200FC
:1031F000ED113958CEB1F96ED5B209B231BD96177D
:10320000E6142704C6C3E70139E613C10A27048D73
:10321000EC2018E60286063DCEB32733CBE61458E1
:10322000EB1433C5EF1E6F1DBD9617C660E70D6C1E
:10323000128D116A0D2605CC0300ED1139E6132A13
:1032400003BD9617EC159390108300F8250B3440BE
:103250008D083540CC0300ED1139E60326276C03B9
:10326000E6132B21C109221DE61D2619CE0E28AF1B
:103270004E6F53E613C10926026C534F5FED51C6E2
:1032800001E7506413394F5FE710ED1139B2A7B26F
:10329000C1B2CFB2D7B2DFB2E7B2EFB2F7B2FFB38B
:1032A00007B30FB317B31F37F9053CF9053DF9050F
:1032B0003EF9053FF9053EF9053DF9053CF985B2B2
:1032C000A782CB059DCB059ECB059FCB85B2C1E2E6
:1032D000D10032C4FFB2CFC4D70033C4FFB2D7C3CA
:1032E000C00034C4FFB2DF80D20035C4FFB2E7C1F2
:1032F000D30036C4FFB2EFC0D70037C4FFB2F7E146
:10330000D40038C4FFB2FFE3D00039C4FFB307E4F0
:10331000CE003AC4FFB30FC2D3002FC4FFB317814E
:10332000CA0021C4FFB31735C4FF35C3FF36C4FF3D
:1033300036C3FF37C4FF37C3FF38C4FF38C3FF3974
:10334000C4FF39C3FF3AC4FF3AC3FF2FC4FF2FC3E2
:10335000FF6C12E610C4FDCA40E710D6A2E7135C6A
:10336000D17B23015FD7A27EB1DA6C127EB1FD8ED4
:103370000560C614D7C8E684270AE601A60948CE28
:10338000B38BADD6300A0AC826EC39B391B69BB7D9
:10339000CB58CEB3976ED5B603B611B639B663B671
:1033A00064B69A706071616E6E6E6E7E0E7F10C72D
:1033B000C3C3007C107D6D7A007A7A4F3F6F5FB394
:1033C000B3B3B3786879698E8E8E8EBEAEBFAF8A86
:1033D0008A8A8A746475657A7A7A7A737574769F44
:1033E0009F9F9F02000801BBB7B7B7726273637AF1
:1033F0007A7A7A3A2A3B2B6E6E6E6E766677676EB5
:103400006E6E6E3E2E3F2F76767676C210C31070AB
:103410000070007E6E7F6F6E6E6E6E1808190982E6
:10342000828282161017076E006E6E1F092F0AAF78
:10343000AFABAB524253436E6E6E6E504051416E15
:103440006E6E6E3A2A3B2B4D4D4D4D3C2C3D2D4D15
:103450004D4D4D3E2E3F2F4D4D4D4D7E6E7F6F4D50
:103460004D4D4D584859494E4E4E4E5A4A5B4B4E63
:103470004E4E4E5C4C5D4D4E4E4E4E5E4E5F4F4E30
:103480004E4E4EDECEDFCF4C4C4C4C3A2A3B2B49B5
:103490004949493C2C3D2D494949493E2E3F2F4938
:1034A0004949497E6E7F6F49494949584859494AB7
:1034B0004A4A4A5A4A5B4B4A4A4A4A5C4C5D4D4A20
:1034C0004A4A4A5E4E5F4F4A4A4A4ADECEDFCF48FA
:1034D0004848483A2A3B2B454545453C2C3D2D451F
:1034E0004545453E2E3F2F454545457E6E7F6F4500
:1034F00045454558485949464646465A4A5B4B4613
:103500004646465C4C5D4D464646465E4E5F4F46DF
:10351000464646DECEDFCF444444443A2A3B2B4164
:103520004141413C2C3D2D414141413E2E3F2F41E7
:103530004141417E6E7F6F41414141584859494266
:103540004242425A4A5B4B424242425C4C5D4D42CF
:103550004242425E4E5F4F42424242DECEDFCF40A9
:10356000404040061056104E004E00061056104EB9
:10357000004E00541056104E004E00541056104E7F
:10358000004E00571056104E004E00571056104E69
:10359000004E00441056104E004E00441056104E7F
:1035A000004E006A1056104E004E006A1056104E23
:1035B000004E00451056104E004E00451056104E5D
:1035C000004E006B1056104E004E006B1056104E01
:1035D000004E00551056104E004E00551056104E1D
:1035E000004E006C1056104E004E006C1056104EDF
:1035F000004E00461047104E004E00461047104E39
:10360000004E00E6062731DC904C10A30423296C01
:1036100001D68B2723E606545454CE03A031C5CEE1
:10362000B403E6071D58495849584933CBECC4ED5B
:10363000A4EC44EDA8206C0139D68B2726E606546D
:103640005454CE03A031C5CEB403E6071D584958E3
:1036500049584933CBEC42EDA4EC46EDA820CC010F
:1036600003ED843910AE02CEB5C3E6071D584958A4
:1036700049584933CBECC4A7A4E7A8E0EC42A72102
:10368000E7A8E131A90400EC44A7A4E7A8E0EC46D0
:10369000A721E7A8E1CC0405ED843958CEB6A16E88
:1036A000D5B700B705B706B715B742B743B7480A4D
:1036B000040A040A040A040A030A03FFB6C8B6D0BF
:1036C000B6D8B6E0B6E8B6F0D210D310500050002D
:1036D000D410D51050005000D610D7105000500014
:1036E000D8C8D9C950505050DACADBCB50505050CE
:1036F000DCCCDDCD505050508C108D104C004C0067
:10370000CC0101ED8439BDB7534F5FED078D0CCC73
:103710000403ED8439BDB7538D0139E6082621CE67
:10372000B6AFE60758ECC52B11A708E784E60758A3
:10373000CEB6BCEEC58D516C0739CC0304ED84398F
:103740006A0839CC0406ED84BDB753CEB6F88D387F
:103750006F8439EC049390C10422026F8439E60827
:103760002615EE02ECC12A04EEC4ECC1ED84ECC1D6
:10377000ED07EF028D04396A0839E6074F584958BA
:10378000495849CEB40333CB8D21ECC4A7A4E7A894
:10379000E0EC42A721E7A8E131A90400EC44A7A48A
:1037A000E7A8E0EC46A721E7A8E139E605C4F8540C
:1037B0005454108E100031A5E606C4F8545454E752
:1037C000E2C61FE0E086203D31AB3958CEB7D16E5E
:1037D000D5B883B89FB8C3B8EAB91CB7E3B80BB87B
:1037E00033B85B030308000303090003030A000462
:1037F000040B0304040C0304040D0304040E03046B
:10380000040F0300041003FFFFB7E30303110003D9
:103810000312000303130004041403040415030437
:10382000041603040417030404180300041903FF17
:10383000FFB80B03031A0003031B0003031C00045F
:10384000041D0304041E0304041F030404200304D2
:1038500004210300042203FFFFB833030323000302
:10386000032400030325000404260304042703049F
:103870000428030404290304042A0300042B03FF7F
:10388000FFB85BDC904C10A3042337CEB7DBE60710
:1038900058EEC5A6C1C601ED84ECC1ED07EF02D616
:1038A0008B271FE606545454CE03A031C5CEB40373
:1038B000E60786083D33CBECC4EDA4EC44EDA8202C
:1038C0006C0139D68B2722E606545454CE03A0311E
:1038D000C5CEB403E60786083D33CBEC42EDA4EC3D
:1038E00046EDA820CC0303ED8439BDB753BDB7AB7B
:1038F00031A90400CEB90CD624C40C33C5ECC4A73E
:10390000A4E7A8E0EC42A721E7A8E1394D4D4D4DD1
:10391000494949494545454541414141BDB7537E26
:10392000B75E8E0560C614D7F4DC904CDDF5A68436
:10393000850427028D0D300A0AF426F239B952B9EE
:1039400088B989DCF510A304233EE60958CEB93DB9
:103950006ED5BDB7ABE6071D584958495849CEB496
:103960000333CBECC1A7A4E7A8E0ECC1A721E7A8EB
:10397000E131A90400ECC1A7A4E7A8E0ECC1A721AC
:10398000E7A8E1CC0103ED8439CEB7DBE60758EEBA
:10399000C5EF026F08BDB75ECC0303ED8439E609BD
:1039A000261510AE0AECA1A71AE709ECA1ED1E6FCF
:1039B0001D10AF0A7E96176A09398E0828C610D7DF
:1039C000C8E610270EEC1148CEB9DDADD6BDBB312F
:1039D000BDA92E3088200AC826E739B9E9B9FABA54
:1039E00033BA89BA9DBAB3BAFD58CEB9F2ADD57E15
:1039F000BA7BB351B9DAB36AB9DA58CEBA006ED528
:103A0000BA02C602EA10E710C605E702DC90C3005E
:103A1000F8ED15CCBBC5ED1BCEBB65D6C8C403867F
:103A2000033D33CBEF1E6F1DBD96170CA66C116FB7
:103A300012E61258CEBA396ED5BA3DBA5CE60D26FA
:103A4000036C1239D69D260BEC16C3008DED16249F
:103A5000026C15D624C41F26026A0D39BDBB46EC84
:103A6000159390108300F6240ECEBA78E603A6C50F
:103A70005FED11C601E71039020304EC159390C104
:103A8000F82505CC0502ED113958CEBA8F6ED5BA9E
:103A900093BA976F1A6C12BDBB468DDF3958CEBAF8
:103AA000A36ED5BAA7BAADC603E71A6C12BDBB4662
:103AB0008DC93958CEBABDADD5BDBA7B39BAC3BAF6
:103AC000CDBAE5C603E71AEC15ED046C12BDBB4692
:103AD000EC04A31510830030230AEC15ED04C60195
:103AE000E71A6C1239BDBB46EC15A304108300180D
:103AF00023F2EC15ED04C603E71A6A123958CEBB5F
:103B0000036ED5BB09BB1FBB28CEBB99E61458EC8E
:103B1000C5ED1E6F1DBD9617C620E7086C12396AE9
:103B2000081026DAF26C12394F5FE710ED110AA681
:103B300039E6112B10E613270C6F13CCBB7FED1E5B
:103B40006F1D7E961739EE1BE61A5858EB1A33C5CF
:103B5000EC16E341ED16E615E9C4E715EC18E3436E
:103B6000ED187E96178FCA028ECA028DCA028CCAC1
:103B7000028BCA028ACA0289CA0288CA82BB6597B6
:103B8000CA0296CA0295CA0294CA0293CA0292CA8B
:103B90000291CA0290CA82BB7FBB9DBBB198CA0288
:103BA00099CA029ACA029BCA029CCA0231C4FFBBCC
:103BB000A398CA0299CA029ACA029BCA029CCA0264
:103BC00031C3FFBBB7000000000000006000000030
:103BD00000000000FFFFA0000000000000008E0AAF
:103BE00028C606D7C8E610270BEC1148CEBBFEADA1
:103BF000D6BDA92E3088200AC826EA39BC04BC20CC
:103C0000BC6CBCAA58CEBC18ADD5EC159390C1F8CD
:103C10002305CC0202ED1139B351BBFBB36ABBFBE8
:103C2000CEBC26586ED5BC2ABC4DCCBE82ED1BCC7A
:103C3000BD01ED1E6F1DBD9617E60C58CEBDAFEC55
:103C4000C5ED0A5FE709BDB99E0CA76C12E60D260B
:103C500009C601E7106C116F12396A0DD69D260B4B
:103C6000EC16C3008DED1624026C153958CEBC72CB
:103C70006ED5BC748D10BDB99EBDBC0AE61A2A056E
:103C8000CC0202ED1139EE1BD69D58EEC5E61A584E
:103C900058EB1A33C5EC16E341ED16E615E9C4E717
:103CA00015EC18E343ED187E961758CEBCB06ED5D0
:103CB000BCBABCD0BCD9BCE0BCE9CEBD63E61458EC
:103CC000ECC5ED1E6F1DBD9617C620E7086C1239B6
:103CD0006A081026D9416C1239C6FFE7106C1239F8
:103CE0004F5FE710ED110AA739CEBD89E61458ECF5
:103CF000C5ED1E6F1DBD9617C620E708C601E71269
:103D00003910C50311C50312C50311C583BD0118C0
:103D100045031945031745031645FFBD0F15458398
:103D2000BD1D144583BD22134583BD27140583BDE6
:103D30002C150583BD31160583BD36170583BD3BA4
:103D4000168583BD40158583BD45148583BD4A1303
:103D50008583BD4F14C583BD5415C583BD5916C594
:103D600083BD5EBD67BD781AC7031BC7031CC703AD
:103D70001DC70300C7FFBD671AC7031BC7031CC7C6
:103D8000031DC70303C7FFBD78BD8DBD9E1AC703C2
:103D90001BC7031CC7031DC70332C4FFBD8D1AC751
:103DA000031BC7031CC7031DC70332C3FFBD9EBD52
:103DB000B10A08BD5E0906BD010813BD0F0706BDA7
:103DC0001D0606BD220506BD270406BD2C0306BD43
:103DD000310206BD360106BD3B1006BD400F06BDD3
:103DE000450E06BD4A0D06BD4F0C06BD540B06BD63
:103DF000590A06BD5E090CBD01090CBD010813BDC1
:103E00000F0706BD1D0606BD220506BD270406BD1B
:103E10002C0306BD310206BD360106BD3B1006BDB2
:103E2000400F06BD450E06BD4A0D06BD4F0C06BD32
:103E3000540B06BD590A06BD5E090CBD01090CBD37
:103E4000010813BD0F0706BD1D0606BD220506BDF0
:103E5000270406BD2C0306BD310206BD360106BD92
:103E60003B1006BD400F06BD450E06BD4A0D06BD02
:103E70004F0C06BD540B06BD590A06BD5E0930BD88
:103E800001FFBE86BEDB00008D000000028D000039
:103E9000000266FF3C0001F7FE96000151FE27007C
:103EA000008DFE00FFFFC9FE27FFFF27FE96FFFEE5
:103EB000B4FF3CFFFE8D0000FFFEB400C4FFFF23F3
:103EC000016AFFFFC901D900008D02000001510104
:103ED000D90001F7016A00026600C400000000007A
:103EE00000020000000001D9FF3C00016AFE9600BC
:103EF00000C4FE27000000FE00FFFF3CFE27FFFE7F
:103F000096FE96FFFE27FF3CFFFE000000FFFE2707
:103F100000C4FFFE96016AFFFF3C01D900000002C9
:103F2000000000C401D900016A016A0001D900C47F
:103F30008E0AE8C604D7C8E610270BEC1148CEBF9E
:103F400050ADD6BDA92E3088200AC826EA39BF5AFE
:103F5000BF6BBFA0BFE5C047C05658CEBF63ADD54D
:103F60007EC048B351BF4DB36ABF4D58CEBF716ECE
:103F7000D5BF75BF81CCC1EEED1BBDC1160CA86CC1
:103F800012E60D2609C601E7106C116F12396A0D91
:103F9000D69D260BEC16C3008DED1624026C153948
:103FA00058CEBFA66ED5BFA88D178D0139EC0AD3A8
:103FB00090A315C300041083000822046F126C1133
:103FC00039EE1BD69D58EEC5E61A5858EB1A33C584
:103FD000EC16E341ED16E615E9C4E715EC18E343EA
:103FE000ED187E961758CEBFEB6ED5BFF3C00FC04D
:103FF00018C0346F1AD696C43054545454CEC007E7
:00000001FF
