:020000040000FA
:200000000F0F0F0F0F0F0F0F0F0F0F0F0F0F0F0F0F0F0F0F0F0F0F0F0F0F0F0F0F0F0F0F00
:200020000F0F0F0F0F0F0F0F0F0F0F0F0F0F0F0F0F0F0F0F0F0F0F0F0F0F0F0F0F0F0F0FE0
:200040000F0F0F0F0F0F0F0F0F0F0F0F0F0F0F0F0F0F0F0F0F0F0F0F0F0F0F0F0F0F0F0FC0
:200060000F0F0F0F0F0F0F0F0F0F0F0F0F0F0F0F0F0F0F0F0F0F0F0F0F0F0F0F0F0F0F0FA0
:200080000E0E0D0E0E090909090D0D0D0F0F0F0D0D0D0B0B0B0C0C0C0E0E0E0E090F0E0ECB
:2000A0000E0E0D0E0E090909090D0D0D0F0F0F0D0D0D0B0B0B0C0C0C0E0E0E0E090F0E0EAB
:2000C0000E0E0D0E0E090909090D0D0D0F0F0F0D0D0D0B0B0B0C0C0C0E0E0E0E090F0E0E8B
:2000E0000E0E0D0E0E090909090D0D0D0F0F0F0D0D0D0B0B0B0C0C0C0E0E0E0E090F0E0E6B
:200100000E0E0D0E0E090909090D0D0D0F0F0F0D0D0D0B0B0B0C0C0C0E0E0E0E090F0E0E4A
:200120000B0B0D0E0E090909090D0D0D0F0F0F0D0D0D0B0B0B0C0C0C0E0E0E0E090F0E0E30
:200140000B0B0D0E0E090909090D0D0D0F0F0F0D0D0D0B0B0B0C0C0C0E0E0E0E090F0E0E10
:200160000B0B0D0E0E090909090D0D0D0F0F0F0D0D0D0B0B0B0C0C0C0E0E0E0E090F0E0EF0
:200180000B0B0D0E0E090909090D0D0D0F0F0F0D0D0D0B0B0B0C0C0C0E0E0E0E090F0E0ED0
:2001A0000B0B0D0E0E090909090D0D0D0F0F0F0D0D0D0B0B0B0C0C0C0E0E0E0E090F0909BA
:2001C0000B0B0D0E0E090909090D0D0D0F0F0F0D0D0D0B0B0B0C0C0C0E0E0E0E090F09099A
:2001E0000B0B0D0E0E090909090D0D0D0F0F0F0D0D0D0B0B0B0C0C0C0E0E0E0E090F09097A
:200200000B0B0D0E0E090909090D0D0D0F0F0F0D0D0D0B0B0B0C0C0C0E0E0E0E090F090959
:200220000B0B0D0E0E090909090D0D0D0F0F0F0D0D0D0B0B0B0C0C0C0E0E0E0E090F090939
:200240000B0B0D0E0E090909090D0D0D0F0F0F0D0D0D0B0B0B0C0C0C0E0E0E0E090F090919
:200260000B0B0D0E0E090909090D0D0D0F0F0F0D0D0D0B0B0B0C0C0C0E0E0E0E090F0909F9
:200280000B0B0D0E0E090909090D0D0D0F0F0F0D0D0D0B0B0B0C0C0C0E0E0E0E090F0909D9
:2002A0000B0B0D0E0E090909090D0D0D0F0F0F0D0D0D0B0B0B0C0C0C0E0E0E0E090F0909B9
:2002C0000B0B0D0E0E090909090D0D0D0F0F0F0D0D0D0B0B0B0C0C0C0E0E0E0E090F090999
:2002E0000B0B0D0E0E090909090D0D0D0F0F0F0D0D0D0B0B0B0C0C0C0E0E0E0E090F0D0D71
:200300000B0B0D0E0E090909090D0D0D0F0F0F0D0D0D0B0B0B0C0C0C0E0E0E0E090F0D0D50
:200320000B0B0D0E0E090909090D0D0D0F0F0F0D0D0D0B0B0B0C0C0C0E0E0E0E090F0D0D30
:200340000B0B0D0E0E090909090D0D0D0F0F0F0D0D0D0B0B0B0C0C0C0E0E0E0E090F0D0D10
:200360000B0B0D0E0E090909090D0D0D0F0F0F0D0D0D0B0B0B0C0C0C0E0E0E0E090F0D0DF0
:200380000B0B0D0E0E090909090D0D0D0F0F0F0D0D0D0B0B0B0C0C0C0E0E0E0E090F0D0DD0
:2003A0000F0F0D0E0E090909090D0D0D0F0F0F0D0D0D0B0B0B0C0C0C0E0E0E0E090F0D0DA8
:2003C0000F0F0D0E0E090909090D0D0D0F0F0F0D0D0D0B0B0B0C0C0C0E0E0E0E090F0D0D88
:2003E0000F0F0D0E0E090909090D0D0D0F0F0F0D0D0D0B0B0B0C0C0C0E0E0E0E090F0D0D68
:200400000F0F0F0F0F0F0F0F0F0F0F0F0F0F0F0F0F0F0F0F0F0F0F0F0F0F0F0F0F0F0F0FFC
:200420000F0F0F0F0F0F0F0F0F0F0F0F0F0F0F0F0F0F0F0F0F0F0F0F0F0F0F0F0F0F0F0FDC
:200440000F0F0F0F0F0F0F0F0F0F0F0F0F0F0F0F0F0F0F0F0F0F0F0F0F0F0F0F0F0F0F0FBC
:200460000F0F0F0F0F0F0F0F0F0F0F0F0F0F0F0F0F0F0F0F0F0F0F0F0F0F0F0F0F0F0F0F9C
:200480000D0D0E0D0D090909090D0D0D0F0F0F0D0D0D0B0B0B0C0C0C0E0E0E0E090F0E0ECA
:2004A0000D0D0E0D0D090909090D0D0D0F0F0F0D0D0D0B0B0B0C0C0C0E0E0E0E090F0E0EAA
:2004C0000D0D0E0D0D090909090D0D0D0F0F0F0D0D0D0B0B0B0C0C0C0E0E0E0E090F0E0E8A
:2004E0000D0D0E0D0D090909090D0D0D0F0F0F0D0D0D0B0B0B0C0C0C0E0E0E0E090F0E0E6A
:200500000D0D0E0D0D090909090D0D0D0F0F0F0D0D0D0B0B0B0C0C0C0E0E0E0E090F0E0E49
:200520000B0B0E0D0D090909090D0D0D0F0F0F0D0D0D0B0B0B0C0C0C0E0E0E0E090F0E0E2D
:200540000B0B0E0D0D090909090D0D0D0F0F0F0D0D0D0B0B0B0C0C0C0E0E0E0E090F0E0E0D
:200560000B0B0E0D0D090909090D0D0D0F0F0F0D0D0D0B0B0B0C0C0C0E0E0E0E090F0E0EED
:200580000B0B0E0D0D090909090D0D0D0F0F0F0D0D0D0B0B0B0C0C0C0E0E0E0E090F0E0ECD
:2005A0000B0B0E0D0D090909090D0D0D0F0F0F0D0D0D0B0B0B0C0C0C0E0E0E0E090F0909B7
:2005C0000B0B0E0D0D090909090D0D0D0F0F0F0D0D0D0B0B0B0C0C0C0E0E0E0E090F090997
:2005E0000B0B0E0D0D090909090D0D0D0F0F0F0D0D0D0B0B0B0C0C0C0E0E0E0E090F090977
:200600000B0B0E0D0D090909090D0D0D0F0F0F0D0D0D0B0B0B0C0C0C0E0E0E0E090F090956
:200620000B0B0E0D0D090909090D0D0D0F0F0F0D0D0D0B0B0B0C0C0C0E0E0E0E090F090936
:200640000B0B0E0D0D090909090D0D0D0F0F0F0D0D0D0B0B0B0C0C0C0E0E0E0E090F090916
:200660000B0B0E0D0D090909090D0D0D0F0F0F0D0D0D0B0B0B0C0C0C0E0E0E0E090F0909F6
:200680000B0B0E0D0D090909090D0D0D0F0F0F0D0D0D0B0B0B0C0C0C0E0E0E0E090F0909D6
:2006A0000B0B0E0D0D090909090D0D0D0F0F0F0D0D0D0B0B0B0C0C0C0E0E0E0E090F0909B6
:2006C0000B0B0E0D0D090909090D0D0D0F0F0F0D0D0D0B0B0B0C0C0C0E0E0E0E090F090996
:2006E0000B0B0E0D0D090909090D0D0D0F0F0F0D0D0D0B0B0B0C0C0C0E0E0E0E090F0D0D6E
:200700000B0B0E0D0D090909090D0D0D0F0F0F0D0D0D0B0B0B0C0C0C0E0E0E0E090F0D0D4D
:200720000B0B0E0D0D090909090D0D0D0F0F0F0D0D0D0B0B0B0C0C0C0E0E0E0E090F0D0D2D
:200740000B0B0E0D0D090909090D0D0D0F0F0F0D0D0D0B0B0B0C0C0C0E0E0E0E090F0D0D0D
:200760000B0B0E0D0D090909090D0D0D0F0F0F0D0D0D0B0B0B0C0C0C0E0E0E0E090F0D0DED
:200780000B0B0E0D0D090909090D0D0D0F0F0F0D0D0D0B0B0B0C0C0C0E0E0E0E090F0D0DCD
:2007A0000F0F0E0D0D090909090D0D0D0F0F0F0D0D0D0B0B0B0C0C0C0E0E0E0E090F0D0DA5
:2007C0000F0F0E0D0D090909090D0D0D0F0F0F0D0D0D0B0B0B0C0C0C0E0E0E0E090F0D0D85
:2007E0000F0F0E0D0D090909090D0D0D0F0F0F0D0D0D0B0B0B0C0C0C0E0E0E0E090F0D0D65
:00000001FF
