:020000040000FA
:200000000808080808080808080808080808080808080808080808080808080808080808E0
:200020000808080808080808080808080808080808080808080808080808080808080808C0
:200040000808080808080808080808080808080808080808080808080808080808080808A0
:20006000080808080808080808080808080808080808080808080808080808080808080880
:200080000D0D090D0D0909090D0D0D0D0B0B0B0B0E0E0E0E0C0C0C0C0A0A0B090E0E0E0EE0
:2000A0000D0D090D0D0909090D0D0D0D0B0B0B0B0E0E0E0E0C0C0C0C0A0A0B090E0E0E0EC0
:2000C0000D0D090D0D0909090D0D0D0D0B0B0B0B0E0E0E0E0C0C0C0C0A0A0B090E0E0E0EA0
:2000E0000D0D090D0D0909090D0D0D0D0B0B0B0B0E0E0E0E0C0C0C0C0A0A0B090E0E0E0E80
:200100000D0D090D0D0909090D0D0D0D0B0B0B0B0E0E0E0E0C0C0C0C0A0A0B090E0E0E0E5F
:200120000D0D090D0D0909090D0D0D0D0B0B0B0B0E0E0E0E0C0C0C0C0A0A0B090E0E0E0E3F
:200140000D0D090D0D0909090D0D0D0D0B0B0B0B0E0E0E0E0C0C0C0C0A0A0B090E0E0E0E1F
:200160000D0D090D0D0909090D0D0D0D0B0B0B0B0E0E0E0E0C0C0C0C0A0A0B090E0E0E0EFF
:200180000D0D090D0D0909090D0D0D0D0B0B0B0B0E0E0E0E0C0C0C0C0A0A0B090E0E0E0EDF
:2001A0000D0D090D0D0909090D0D0D0D0B0B0B0B0E0E0E0E0C0C0C0C0A0A0B090A0A0A0ACF
:2001C0000D0D090D0D0909090D0D0D0D0B0B0B0B0E0E0E0E0C0C0C0C0A0A0B090A0A0A0AAF
:2001E0000D0D090D0D0909090D0D0D0D0B0B0B0B0E0E0E0E0C0C0C0C0A0A0B090A0A0A0A8F
:200200000D0D090D0D0909090D0D0D0D0B0B0B0B0E0E0E0E0C0C0C0C0A0A0B090A0A0A0A6E
:200220000D0D090D0D0909090D0D0D0D0B0B0B0B0E0E0E0E0C0C0C0C0A0A0B090A0A0A0A4E
:200240000D0D090D0D0909090D0D0D0D0B0B0B0B0E0E0E0E0C0C0C0C0A0A0B090A0A0A0A2E
:200260000D0D090D0D0909090D0D0D0D0B0B0B0B0E0E0E0E0C0C0C0C0A0A0B090A0A0A0A0E
:200280000D0D090D0D0909090D0D0D0D0B0B0B0B0E0E0E0E0C0C0C0C0A0A0B090A0A0A0AEE
:2002A0000D0B090D0D0909090D0D0D0D0B0B0B0B0E0E0E0E0C0C0C0C0A0A0B090A0A0A0AD0
:2002C0000D0B090D0D0909090D0D0D0D0B0B0B0B0E0E0E0E0C0C0C0C0A0A0B090A0A0A0AB0
:2002E0000D0B090D0D0909090D0D0D0D0B0B0B0B0E0E0E0E0C0C0C0C0A0A0B090F0D0D0D82
:200300000D0B090D0D0909090D0D0D0D0B0B0B0B0E0E0E0E0C0C0C0C0A0A0B090F0D0D0D61
:200320000D0B090D0D0909090D0D0D0D0B0B0B0B0E0E0E0E0C0C0C0C0A0A0B090F0D0D0D41
:200340000D0B090D0D0909090D0D0D0D0B0B0B0B0E0E0E0E0C0C0C0C0A0A0B090F0D0D0D21
:200360000D0B090D0D0909090D0D0D0D0B0B0B0B0E0E0E0E0C0C0C0C0A0A0B090F0D0D0D01
:200380000D0D090D0D0909090D0D0D0D0B0B0B0B0E0E0E0E0C0C0C0C0A0A0B090F0D0D0DDF
:2003A0000D0D090D0D0909090D0D0D0D0B0B0B0B0E0E0E0E0C0C0C0C0A0A0B090F0D0D0DBF
:2003C0000D0D090D0D0909090D0D0D0D0B0B0B0B0E0E0E0E0C0C0C0C0A0A0B090F0D0D0D9F
:2003E0000D0D090D0D0909090D0D0D0D0B0B0B0B0E0E0E0E0C0C0C0C0A0A0B090F0D0D0D7F
:00000001FF
