:100000000F0F0F0F0F0F0F0F0F0F0F0F0F0F0F0F00
:100010000F0F0F0F0F0F0F0F0F0F0F0F0F0F0F0FF0
:100020000F0F0F0F0F0F0F0F0F0F0F0F0F0F0F0FE0
:100030000F0F0F0F0F0F0F0F0F0F0F0F0F0F0F0FD0
:100040000F0F0F0F0F0F0F0F0F0F0F0F0F0F0F0FC0
:100050000F0F0F0F0F0F0F0F0F0F0F0F0F0F0F0FB0
:100060000F0F0F0F0F0F0F0F0F0F0F0F0F0F0F0FA0
:100070000F0F0F0F0F0F0F0F0F0F0F0F0F0F0F0F90
:100080000D0D0C0C0C0C0C0C0909090D0D0D0D0EB1
:100090000E0E0B0B0B0C0C0C0C0D0D0C090F0E0E99
:1000A0000D0D0C0C0C0E0F0C0909090D0D0D0D0E8C
:1000B0000E0E0B0B0B0C0C0C0C0D0D0C090F0E0E79
:1000C0000D0D0C0C0B0E0F0C0909090D0D0D0D0E6D
:1000D0000E0E0B0B0B0C0C0C0C0D0D0C090F0E0E59
:1000E0000D0D0C0D0B0E0C0C0909090D0D0D0D0E4F
:1000F0000E0E0B0B0B0C0C0C0C0D0D0C090F0E0E39
:100100000D0D0C0D0B0E0C0C0909090D0D0D0D0E2E
:100110000E0E0B0B0B0C0C0C0C0D0D0C090F0E0E18
:100120000D0D0C0D0B0E0C0C0909090D0D0D0D0E0E
:100130000E0E0B0B0B0C0C0C0C0D0D0C090F0E0EF8
:100140000D0D0C0D0B0E0C0C0909090D0D0D0D0EEE
:100150000E0E0B0B0B0C0C0C0C0D0D0C090F0E0ED8
:100160000B0B0C0D0B0E0C0C0909090D0D0D0D0ED2
:100170000E0E0B0B0B0C0C0C0C0D0D0F090F0E0EB5
:100180000B0B0C0D0B0E0C0C0909090D0D0D0D0EB2
:100190000E0E0B0B0B0C0C0C0C0D0D0F090F0E0E95
:1001A0000B0B0C0D0B0E0C0C0909090D0D0D0D0E92
:1001B0000E0E0B0B0B0C0C0C0C0D0D0F090F09097F
:1001C0000B0B0C0D0B0E0C0C0909090D0D0D0D0E72
:1001D0000E0E0B0B0B0C0C0C0C0D0D0F090F09095F
:1001E0000B0B0C0D0B0E0C0C0909090D0D0D0D0E52
:1001F0000E0E0B0B0B0C0C0C0C0D0D0F090F09093F
:100200000B0B0C0D0B0E0C0C0909090D0D0D0D0E31
:100210000E0E0B0B0B0C0C0C0C0D0D0F090F09091E
:100220000B0B0C0D0B0E0C0C0909090D0D0D0D0E11
:100230000E0E0B0B0B0C0C0C0C0D0D0F090F0909FE
:100240000B0B0C0D0B0E0C0C0909090D0D0D0D0EF1
:100250000E0E0B0B0B0C0C0C0C0D0D0F090F0909DE
:100260000B0B0C0D0B0E0C0C0909090D0D0D0D0ED1
:100270000E0E0B0B0B0C0C0C0C0D0D0F090F0909BE
:100280000B0B0C0D0B0E0C0C0909090D0D0D0D0EB1
:100290000E0E0B0B0B0C0C0C0C0D0D0F090F09099E
:1002A0000B0B0C0D0B0E0C0C0909090D0D0D0D0E91
:1002B0000E0E0B0B0B0C0C0C0C0D0D0F090F09097E
:1002C0000B0B0C0D0B0E0C0C0E09090D0D0D0D0E6C
:1002D0000E0E0B0B0B0C0C0C0C0D0D0F090F09095E
:1002E0000B0B0C0D0B0E0C0C0909090D0D0D0D0E51
:1002F0000E0E0B0B0B0C0C0C0C0D0D0F090F0D0D36
:100300000B0B0C0D0B0E0C0C0909090D0D0D0D0E30
:100310000E0E0B0B0B0C0C0C0C0D0D0F090F0D0D15
:100320000B0B0C0D0B0E0C0C0909090D0D0D0D0E10
:100330000E0E0B0B0B0C0C0C0C0D0D0F090F0D0DF5
:100340000B0B0C0D0B0E0C0C0909090D0D0D0D0EF0
:100350000E0E0B0B0B0C0C0C0C0D0D0F090F0D0DD5
:100360000B0B0C0D0B0E0C0C0909090D0D0D0D0ED0
:100370000E0E0B0B0B0C0C0C0C0D0D0F090F0D0DB5
:100380000F0F0C0D0B0E0C0C0909090D0D0D0D0EA8
:100390000E0E0B0B0B0C0C0C0C0D0D0F090F0D0D95
:1003A0000F0F0C0C0B0E0F0C0909090D0D0D0D0E86
:1003B0000E0E0B0B0B0C0C0C0C0D0D0F090F0D0D75
:1003C0000F0F0B0C0C0E0F0C0909090D0D0D0D0E66
:1003D0000E0E0B0B0B0C0C0C0C0D0D0F090F0D0D55
:1003E0000F0F0C0C0C0C0C0C0909090D0D0D0D0E4A
:1003F0000E0E0B0B0B0C0C0C0C0D0D0F090F0D0C36
:00000001FF
