:100000000001010000010D0F0F0F0F0C0C0000008C
:10001000000707030303030B0F0F0F0F0C0C000067
:100020000C0C0C0E0F0707070F0F0F0F0C0C000026
:100030000008080C0E0F0707070F0F0F0F0F060021
:100040000008080C0F0707030F0F0F0F0F0703001F
:100050000008080E0F070301070F0F07010000003B
:100060000000000C0F0F070301070F0F0300000033
:1000700000000000000F0F07010003030300000051
:100080000001010100030F0F030001010100000046
:1000900000000303030001070F0F00000000000031
:1000A0000000030F0F070103070F0F0C00000000F3
:1000B000000001070F0F070103070F0E08080000DB
:1000C00003070F0F0F0F0F0307070F0C080800009F
:1000D000060F0F0F0F0F0707070F0E0C0808000081
:1000E000000C0C0F0F0F0F0707070F0E0C0C0C0066
:1000F000000C0C0F0F0F0F0B030303030707000087
:1001000000000C0C0F0F0F0F0D010000010100008B
:10011000000000090F0F0F0F0D0C00000000000081
:1001200000000000090F0F0F0F0E0E0C0000000062
:10013000000000010B0B0F0F0F0F0F060000000057
:1001400000000000000103030F0F0F0F0F06000057
:100150000003070703070F0F0F0F0F0E0F0F060007
:10016000000307070303070F0F0F0F0F0F0F030005
:10017000000F0F0F07070F0F0F0F0F0F0F070000D4
:10018000000F0F0F07070F0F07070F0F0F000000DB
:1001900000070F0F0F0F0F0F0F07070F0F0F0000B4
:1001A000030F0F0F0F0F0F0F0703030707030000C5
:1001B000060F0F0E0F0F0F0F0F07010707030000A9
:1001C00000060F0F0F0F0F030301000000000000D7
:1001D000000000060F0F0F0F0F0F0B0100000000B3
:1001E0000000000C0E0E0F0F0F0F090000000000A2
:1001F00000000000000C0D0F0F0F0F0900000000A1
:1002000000000000000000010100000000000000EC
:1002100000000000000002000002000000000000DA
:1002200000000000000400020200040000000000C2
:1002300000000000020004000004000200000000B2
:10024000000101000C0C000101000C0C0001010078
:100250000000010808000200000200080801000078
:10026000000101000C0C000101000C0C0001010058
:1002700000010D0C0001000C0C0001000C0D010030
:1002800000000008040A020A0408000E0505050023
:1002900000000000070404040400000C050D050024
:1002A00000000000070404040400000D060F06000F
:1002B000000000000000000000000000000000003E
:1002C000000000000000000000000000000000002E
:1002D000000000000000000000000000000000001E
:1002E000000000000000000000000000000000000E
:1002F00000000000000000000000000000000000FE
:1003000000000000000000000000000000000000ED
:1003100000000000000000000000000000000000DD
:1003200000000000000000000000000000000000CD
:1003300000000000000000000000000000000000BD
:1003400000000000000000000000000000000000AD
:10035000000000000000000000000000000000009D
:10036000000000000000000000000000000000008D
:10037000000000000000000000000000000000007D
:10038000000000000000000000000000000000006D
:10039000000000000000000000000000000000005D
:1003A000000000000000000000000000000000004D
:1003B000000000000000000000000000000000003D
:1003C000000000000000000000000000000000002D
:1003D000000000000000000000000000000000001D
:1003E000000000000000000000000000000000000D
:1003F00000000000000000000000000000000000FD
:00000001FF
