:10000000FFFFFFFFFFFFFFFFFEFCF8F0E0C08000F6
:100010000080C0E0F0F8FCFE0F07030303070F1F8A
:100020001F0F07030303070FFFFFFFFFFFFFFFFF84
:10003000FFFFFFFFFFFFFFFFFFFFFFFFFFFFFFFFD0
:10004000FFFFFFFFFFFFFFFFFFFF9F8F8783919859
:10005000FFFF9F8F87838180FFFFE3E1E0F0F8F8E7
:1000600080888C8E8F8F8FFF783818000081C3FFB7
:10007000FFFF9F8F87838180FFFFE3E1E0F0F8F8C7
:1000800080888C8E8F8F8FFF783818000081C3FF97
:10009000FFFFE7C7878F8F8EFFFFF3F1F0F8F83887
:1000A000C09F1F0101011F1F03F9F8808080F8F82D
:1000B000FFFFE7C7878F8F8EFFFFF3F1F0F8F83867
:1000C000001F1F191919181800F8F898989818188F
:1000D000FFF1F0F0F0F0F1F1FFFFFF7F3F1F0F871E
:1000E00091918080809191FFC3E1000000FFFFFFAC
:1000F000FFF1F0F0F0F0F1F1FFFFFF7F3F1F0F87FE
:1001000091918080809191FFC3E1000000FFFFFF8B
:10011000FFFFE7C686868E8EFFFF00000038383866
:10012000001F1F1818181800383838383878FFFFA3
:10013000FFFFE7C686868E8EFFFF00000038383846
:1001400000F8F80000000000383838383878FFFF31
:10015000FFFFE0C080848E8EFFFF0301001038385F
:10016000F8F8181838F0E103383838383071F3FFF0
:10017000FFFFE0C080848E8EFFFF0301001038383F
:100180001F1F18181C0F87C0383838383071F3FF1C
:10019000FFFFFFFFFF9F8781FFFFE0E0E0F8F8F837
:1001A00080E0F8FEFFFFFFFF7818000080E0FFFF0F
:1001B000FFFFFFFFFF9F8781FFFFE0E0E0F8F8F817
:1001C00080E0F8FEFFFFFFFF7818000080E0FFFFEF
:1001D000FFFFE1C080848E8EFFFFC301001038381E
:1001E0008E8E8E8480C0E1FF383838100001C3FF46
:1001F000FFFFE1C080848E8EFFFFC30100103838FE
:100200008E8E8E8480C0E1FF383838100001C3FF25
:10021000FFFFE7C7868E8E8EFFFF83010010383800
:100220008E8E8E8780C0E0FF38383810000103FFC3
:10023000FFFFE7C7868E8E8EFFFF830100103838E0
:100240008E8E8E8780C0E0FF38383810000103FFA3
:10025000FFC0C0C0FFFFE0C0FF000000FFFF0100C3
:10026000C0C7C7C7C0C0E0FF00F8F8F8000001FF32
:10027000FFC0C0C0FFFFE0C0FF000000FFFF0100A3
:10028000C0C7C7C7C0C0E0FF00F8F8F8000001FF12
:10029000FFF3E3C3C7C7C7C7FFFFFFF8F8F8F8F8D5
:1002A000C3C0E0F0FFFFFFFFF8000000F8F8FFFF19
:1002B000FFF3E3C3C7C7C7C7FFFFFFF8F8F8F8F8B5
:1002C000C3C0E0F0FFFFFFFFF8000000F8F8FFFFF9
:1002D000FFFFC08080878F8FFFFF010000F0F818BC
:1002E0008E848080C0E1C3C71830000001FFFFFF8B
:1002F000FFFFC08080878F8FFFFF010000F0F8189C
:100300008E848080C0E1C3C71830000001FFFFFF6A
:10031000FF9F8080809CFEFCFFFC0000003C1F0FC4
:10032000F8908183878F9FFF04C0E0F0F8FCFFFF07
:10033000FF9F8080809CFEFCFFFC0000003C1F0FA4
:10034000F8908183878F9FFF04C0E0F0F8FCFFFFE7
:100350009F83808098F8F9F9FFFFFF3F0F03C0E00B
:10036000F9F9F8988080839FE0C0030F3FFFFFFFFB
:100370009F83808098F8F9F9FFFFFF3F0F03C0E0EB
:10038000F9F9F8988080839FE0C0030F3FFFFFFFDB
:10039000F0E0C0C0C0603800FF7F3F1F0F070301BF
:1003A000003860C0C0C0E0F00103070F1F3F7FFFAF
:1003B000F8F0E0E060303800FF7F3F3F4F870301F7
:1003C00000383060E0E0F0F80103874F3F3F7FFFE7
:1003D000FEFCF8F0E0C08000FF7F3F1F0F07030125
:1003E0000080C0E0F0F8FCFE0103070F1F3F7FFF15
:1003F00067BDDB6666DBBD6666BDDB6666DBBD676B
:10040000E6BDDB6666DBBD6666BDDB6666DBBDE65C
:1004100066BDDB6666DBBD6666BDDB66007E7A7A3E
:10042000427A5A7E7E4E666A6A664E7E5E7E7E4264
:100430007E5E7E0066DBBD66FFE0E0FEFEFEE0E085
:10044000FF07077F7F7F0707FFF0E0E7E7E7E0F0C0
:10045000FF0F07E7E7E7070FFFE0E0E7E7E7E7FF62
:10046000FF0707FFFFFFFFFFE0E0E7E7E3F0F8FF2C
:100470000707E7E7C70F1FFFFFF0E0E7E7E7E3F352
:10048000FF0F07E7E7E7C7CFFFE0E0FEFEFEE0E093
:10049000FF0F07676767070FFFE0E0FFFCF8E0E08A
:1004A000FF07071F3FFF0707FFF0E0E7E7E7E3F37A
:1004B000FF0F07E7E7E7C7CFFFE0E0E6E6E6E7E79D
:1004C000FF0707676767E7E7FFE0E0E7E7E7E7FFC2
:1004D000FF0707FFFFFFFFFFFFE3E3E6E6E6E0F0CD
:1004E000FF0F07676767C7CFFFFFFFE0E0FFFFFF72
:1004F000FFE7E70707E7E7FFE0E0FEFEFEE0E0FFDB
:100500000F07676767070FFFE0E0FFFCF8E0E0FF19
:1005100007071F3FFF0707FFFFE0E0E7E7E3F0F80B
:10052000FF0707E7E7C70F1FFFE0E0E6E6E6E0F1B9
:10053000FF0707676767078FFFFFFFE0E0FFFFFF29
:10054000FFE7E70707E7E7FFFFE0E0E7E7E7E7E7C1
:10055000FF0707FFFFFFFFFFF0E0E7E7E7E3F3FF39
:100560000F07E7E7E7C7CFFFFFFFF0E0E7E7E7E4C4
:10057000FFFF0F07E7E7E7E7E0F0FFE0E0FEFEFE42
:10058000C7CFFF0F07676767E0E0FFE0E0FFFFFE10
:10059000070FFF07078F1F3FFFFFE0E0FFE0E0E6E8
:1005A0001F8F0707FF070767E6E6E0F1FFE0E0E7D8
:1005B0006767078FFF0707FFE7E7E7FFE0E0E6E68B
:1005C000FFFFFFFF07076767E6E7E7FFFFFFFFFFA4
:1005D00067E7E7FFFFFFFFFFE0E0FCF9F1E3E7FF7C
:1005E00007073F1F8FC7E7FFE0E0FCF8F0E2E7FFF7
:1005F0000707E7E7E7070FFFFFE0E0E6E6E6E7E7E4
:10060000FF0707676767E7E7FFE0E0E7E7E3F0F882
:10061000FF0707E7E7C70F1FFFC399BDBDBD99C31C
:10062000FFFFFFBB81BFFFFFFF9B89ADADADA1B356
:10063000FFDD9DB5B5B581C9FFCFC7D3D9DD81DF5A
:10064000FFD195B5B5B585CFFFC391B5B5B585CF0C
:10065000FFFDBD9DCDE5F1F9FFCB81B5B5B581CBF2
:10066000FFF3A1ADADAD89C3FF87D3D9DDD9D38762
:10067000FF81B5B5B5B581CBFFC399BDBDBD99DBD4
:10068000FF81BDBDBDBD99C3FF81B5B5B5B5BDBDCC
:10069000FF81F5F5F5F5FDFDFFC399BDBDADA98B56
:1006A000FF81F7F7F7F7F781FFFFFFBD81BDFFFF80
:1006B000FFCF9FBFBFBF9FC1FF819FCFE7D399BD32
:1006C000FF81BFBFBFBFBFBFFF81F3E7CFE7F381AC
:1006D000FF81F9F3E7CF9F81FFC399BDBDBD99C3EA
:1006E000FF81EDEDEDEDE1F3FFC399BDADCD99A334
:1006F000FF81EDEDED8DA1B3FFDB91B5A5AD89DBFC
:10070000FFFDFDFD81FDFDFDFFC19FBFBFBF9FC17F
:10071000FFF1C79FBF9FC7F1FFC19FCFE7CF9FC129
:10072000FFBD99CBE7D399BDFFF9F3E78FE7F3F965
:10073000FFBD9D8DA5B1B9BDFFFFFFFFFFFFFFFF0F
:100740008000000000000000010000000000000028
:100750000000000000000080000000000000000118
:100760000000000000000000C3BD7E7E7E7EBDC391
:10077000C09F1F1919191F0E03F9F8989898F8705F
:10078000FFFFFFFFFFFFFFFF001F1F1919191818B8
:1007900000F8F898989818180000001F1F0080C0F3
:1007A000001818F8F8181903C09F1F18181C0F0715
:1007B00003F9F8181838F0E0001F1F0101011F1F8E
:1007C00000F0F8989898F8F0001F1F18181898C0B3
:1007D00000F8F80000000103000000000000000025
:1007E0000000000000000000000000000000000009
:1007F00000000000000000000000000000000000F9
:00000001FF
