:10000000010101010F0F0F0F0F0F0F0F0F0F0F0F38
:100010000F0F0F0F0F0F0F0F030303030303030350
:1000200003030303030303030303030303030303A0
:100030000303030303030303030303030303030390
:10004000050505050F0F0F0F050505050505050538
:1000500007090B0F0F0F0F0F0F0F0F0F0F0F0F0FC2
:100060000F0F0F0F0F0F0F0F0F0F0F0F0F0F0F0FA0
:100070000F0F0F0F0F0F0F0F0F0F0F0F0F0F0F0F90
:100080000F0F0F0F0F0F0F0F0F0F0F0F0F0F0F0F80
:100090000F0F0F0F0F0F0F0F0F0F0F0F0F0F0F0F70
:1000A0000F0F0F0F0F0F0F0F0F0F0F0F0F0F0F0F60
:1000B0000F0F0F0F0F0F0F0F0F0F0F0F0F0F0F0F50
:1000C0000F0F0F0F0F0F0F0F0F0F0F0F0F0F0F0F40
:1000D0000F0F0F0F0F0F0F0F0F0F0F0F0F0F0F0F30
:1000E0000F0F0F0F0F0F0F0F0F0F0F0F0F0F0F0F20
:1000F0000F0F0F0F0F0F0F0F0F0F0F0F0F0F0F031C
:00000001FF
