:1000000007090A0B0C0D0D0E0E0E0D0D0C0B0A0937
:1000100007050403020101000000010102030405B9
:10002000070C0E0E0D0B090A0B0B0A09060403053B
:1000300007090B0A08050403030405030100000275
:10004000070A0C0D0E0D0C0A070402010001020440
:10005000070B0D0E0D0B070301000103070E070030
:10006000070D0B080B0D09060B0E0C07090A0602FB
:10007000070C080405070200030805010306030135
:1000800000080F0701080E0702080D0703080C07F8
:1000900004080B0705080A070608090707080807E8
:1000A00007080609050A040B030C020D010E000FD8
:1000B000000F010E020D030C040B050A06090708C8
:1000C000000102030405060708090A0B0C0D0E0FB8
:1000D0000F0E0D0C0B0A09080706050403020100A8
:1000E000000102030405060708090A0B0C0D0E0F98
:1000F000000102030405060708090A0B0C0D0E0F88
:00000001FF
