:100000008E007F4F97834397828634978386079726
:10001000817F003F8632CE3D2D0926FD4A26F79688
:10002000800E3E8E007FCE0033DF31BD10C3860EC2
:10003000BD10D3BD10EB810327010E3648CE1075DD
:10004000BD10B532810422158607BD10D3863FBD91
:1000500016448608BD10D3EE00AD002007EE00DF89
:1000600021BD113B7D003F270BBD12B6CE1323DF10
:10007000217E113B3E15A2157B17141713158E1404
:10008000BD12AF14E4157A1507133E13511357131D
:100090005D12A61429157A1559157A140E157A13BE
:1000A00083157A157A14A7145313C8147E13A61354
:1000B000FB13631429DF2C9B2D24037C002C972D2C
:1000C000DE2C394F36BD10D34FBD1632324C811065
:1000D00026F239BD112A97809726C603D7825FD7AB
:1000E00082399626810E2603962E39BD111AC60135
:1000F000D78296805FD782369626840FCE110A4D1E
:100100002704084A26FC32A40039FF0FFF0FFF0F17
:100110001FFF1F1F1FFFFF0F1FFFD681C4FBD781CB
:10012000375FD78033CA04D78139D681C4FBD781E2
:10013000375F53D78033CA04D78139DE21E601A661
:1001400000840F36A60084F0CE12157F003D444493
:1001500044BD10B532EE00AD0020E03932323937FF
:10016000BD10D332BD163220164D2702D647D725F3
:100170009625270B7A0025CE007D0926FD20F1DE8D
:10018000210808DF2139DE2120F88DF3201C37BD3E
:1001900010D3BD10E28DE8334D271E200D37BD1062
:1001A000D3BD10E28DD9334D260F5D2B0DC47FDBFF
:1001B00022D722C600D921D7213950C47F9622D711
:1001C0002290229722D621C200D7213937DE21E69C
:1001D0000237BD117FBD1186DE319621A700962220
:1001E000A7010808DF3132972232972139DE310921
:1001F00009A6009721A6019722DF3139BD10D38DC2
:1002000006BD16327E11869627489B2748489B27B5
:100210008B01972739115F123812351242123F11A4
:100220008A119D118E116911FC129611ED12721234
:1002300084115B115C73003DBD1186C601200673FD
:10024000003DBD117F37BD10D3BD10E2337D003DB1
:100250002B031B20011025037E1632BD1632962675
:1002600085F9260481062605810B2701394CC60134
:1002700020D37F002FD730BD10D3DE2FA600BD16B0
:10028000327E117F7F002FD730BD10D3BD10E2DE4C
:100290002FA7007E117F4D270ABD1186EE00AD000D
:1002A0007E117F7E11CCA112AAF08606973F39A15C
:1002B00012B27F003F3ECE0040DF1DC608963F8150
:1002C000012605CE131B202781022605CE131320FD
:1002D0001E81032605CE130B201581042605CE139F
:1002E00003200C81052605CE12FB2003CE12F3BDA0
:1002F00016FF39FF0B870C0D0A0403FF09000D0DD3
:100300000A0403FF07BE0A0E0B0403FF0600080ED3
:100310000C0303FF055E050E0D0303FF04AF020F80
:100320000E030307FCC242C343C844C945CF46C1BC
:1003300041C04081472070FB212F7FF550EF00C066
:10034000023007FC080F090C80196901292878F888
:10035000F00090022450EB0073021D50E500600293
:100360001850DF07F708100C280D010F070E0716AD
:1003700080042E7EFA0E102680042E7EFA2F7FED4A
:100380000800F007F608100C280D0100100F070EEA
:1003900007101680042E7EFA0E102680042E7EFA98
:1003A0002F7FEC0800F007FE08100C080D0100205C
:1003B000A013BB3020A013BB0800F00E20202E7E1F
:1003C000FC0E20102E7EFCB007FC081009100C104B
:1003D0000D01002802280F08A013EA3028A013EA14
:1003E00040102F7FF308000900F00E082032102E75
:1003F0007EFA0E081032102E7EFAB007F70C28088D
:10040000100D090F0C96807D2F7FFA0800F007FE73
:1004100008300C000B600D0E0E028001400201003E
:1004200070F81C2E7EF40800F007FE0030080C0661
:100430000C0F000E018008181F2E7EF9080A3003E9
:100440001F8008181E2F7FF9080A30031E2676E544
:100450000800F007FE008008000F000E0F8008184B
:1004600040061F2E7EF7080000802F6F10800818AE
:1004700040061E2F7FF7080000802E7EE0F0A114BA
:100480009B07FE01000C2808300D090F100E4000DC
:1004900070202E7EFC2F7FF507FFF0963F27078107
:1004A0000127037A003F390F0307FE080F0E4000B3
:1004B000308003102E7EFA07FF2F7FEDF007FE003D
:1004C0008008000F000E0F8008181F2E7EF908000C
:1004D00040032F6F0E8008181E2F7FF9080040037D
:1004E0002E7EE4F009300C0E020107FD0D0D128086
:1004F0000A72FB800008300C18070706010D011670
:10050000800A76FB80FFF0030F07FC080F090A0E34
:1005100004010600008000207002212E7EF70830C2
:100520000C05004001000D0D0F140E0A8004102E62
:100530007EFA0E0A8001202E7EFA102F7FEC090031
:1005400008300C2807F706010D0116800A76FB809B
:10055000FFA11555F07F003F3907F502300830093B
:10056000300C2006010D0E8050162276FA0E2080E7
:1005700050122E7EFA08000900F0F0CE0001DF1DB7
:10058000C606CE174EBD16FFC60FD71C204ACE009A
:1005900000DF1DC61CCE1754BD16FFC6AFD71C7E8C
:1005A0001650860F971C973ECE0001DF1DCE1770A8
:1005B000C606BD16FF8D21CE0001DF1DCE1770C609
:1005C00006BD16FF8D12963E4A81082706971C9796
:1005D0003E20D54FBD164439961CD605D707D60206
:1005E000D70843840FD6018D5B5A26FDC6035A26D1
:1005F000FD43840FD6018D4C5A26FD7A000827173B
:100600007A000726DD43840FD6058D38D707D6013B
:100610009B062B1D01201408090143840FD6028D6F
:1006200023D708D601D003D1042706D701C005205F
:10063000B839D626C10E2603972E39C10726028463
:10064000BFBD112A379780C602D7827F0082333917
:10065000CE16F1DF1F8680D6032A09D627545454BC
:100660005C5A26FD7A0008274C7A0009274C7A004C
:100670000A274C7A000B26DFD60327DBC47FD70B73
:10068000D62758DB27CB0BD7277A001B260ED60F91
:10069000D71BDE1F098C16EA274EDF1FD6272B0635
:1006A000D407C47F2005D407C47F50361B1632DE22
:1006B0001FAD0020A2CE00002008CE00012003CEF6
:1006C00000026D1827126A18260EE60CE718E600DD
:1006D000EB10E1142712E700E600E708AB04600422
:1006E00016DE1FAD007E16573954545454545454DA
:1006F000548D073617BD1644323954545454393684
:10070000A600DF1FDE1DA7007C001EDE1F085A2684
:10071000EF32390FC611D71586FE9701CE01C009F9
:100720002722D700860FBD16440927187A00002615
:10073000F8092710D7004FBD16440927077A000093
:1007400026F820DBD001C11022D296800E39FE049B
:100750000204FF00010A00003F3F0000010A000000
:10076000050500000101000031FF00000505000043
:100770004803010CFF000000000000000000000022
:100780000000000000000000000000000000000069
:100790000000000000000000000000000000000059
:1007A0000000000000000000000000000000000049
:1007B0000000000000000000000000000000000039
:1007C0000000000000000000000000000000000029
:1007D0000000000000000000000000000000000019
:1007E0000000000000000000000000000000000009
:1007F0000000000000000000102310001000100096
:00000001FF
