:1000000000000000000000000206050305060606C9
:10001000010303060203030307050503070505059E
:1000200000000000000000000601010303030104BA
:100030000605050707070703060707050505030764
:100040000000000000000000020205030303030398
:100050000103030606060606050505030505050555
:100060000000000000000000060101040404030475
:100070000605050505050703050707070707050723
:100080000000000000000000000000000000000070
:100090000000000000000000000000000000000060
:1000A0000000000000000000000000000000000050
:1000B0000000000000000000000000000000000040
:1000C0000000000000000000000000000000000030
:1000D0000000000000000000000000000000000020
:1000E0000000000000000000000000000000000010
:1000F0000000000000000000000000000000000000
:00000001FF
