:1000000000000000000206070701030301000000D2
:1000100000000060F090E0C0E0F0F8F8D0C0000010
:1000200003010103030307070307070F1F1F0F0740
:10003000FCFCFCFCF8F8F8F8E0E0C0C0E0E0F8FCFC
:10004000030307070F1F3F0F070E0E1C1E3F7F7F86
:10005000FEFCFCF8F8F0F0E0000000000000C0E05A
:100060000000000000000000E0E0E070707C7F7F96
:100070000000000000000000000000000000008000
:100080000000000000000000000206070303010F4B
:100090000000000000000060F0C0F0F8E0E0E08048
:1000A000000000000000011F1F060000000000000B
:1000B00000000000000080C0E038000000000000E8
:1000C000000000000000000000020707030307070C
:1000D0000000000000000060F0C0F0F8E0E0E0C0C8
:1000E000FF7F7FFFFEFEFEFE3838387C7CFFFFFF7F
:1000F0000000000000000000000000000000C0E060
:100100000000071FFFFEFE000000000000000000CE
:100110000000E000000000000000000000000000FF
:100120000000000080C0FEFFFF9C080000000000EF
:10013000000000000000000080C00000000000007F
:10014000000000000000000000000001010307079C
:10015000000000000000000070E0E0C0E0F0FCFEE5
:10016000000000000000000000000000000000008F
:10017000000000000000000000000000000000007F
:1001800000000000E0F8FCFE770100000000000025
:1001900000000000000000000080000000000000DF
:1001A000000000003C7EE7C3C3C3E77E3C000000C4
:1001B00000000000000010C0E88000800000000087
:1001C000000000003C7FE7C3C3C3E77E3C000000A3
:1001D000000000000000E8C0FBE08000000000001C
:1001E00000000000383F7F63E3E3E3677F3C0000EB
:1001F0000000002000A8C080800000000000000077
:1002000000000000383F7F63E3E3E3677F3C0000CA
:1002100000000102A8F0C4E080800000000000009F
:10022000004020202079FFA7B353D182041C150180
:10023000387C7EFEFFFBE1C1F8FCFE6E8381C1428B
:10024000004020213B7FFFA7B351D2841C15010041
:100250000060F0F8F8FCFCFCFCFC6C8585C14102F8
:100260001F0F0F1F1F3F3F3F0E0E1C1C1E3F7F7FA7
:10027000E0E0E0E0C0C0C0C0000000000000C0E05E
:1002800000000000000000000000000001010B0F52
:1002900020202030387C7C7838707878F0E0C0C03E
:1002A0000F0F0F0F0F0E08000000000000000000ED
:1002B000C0C0E0E08000000000000000000000007E
:1002C000010F1F3F3F3F7F7F7F7F7F7F3F3F7F7FCC
:1002D000C0E0F0F0F8FCFEFFFFFFFFFFFFFFFFFFB5
:1002E000010F1F00003F7F7F00007F7F3F00007FE6
:1002F000C0E0F00000FCFEFF0000FFFFFF0000FC7C
:1003000001000000003F000000007F000000007FAF
:10031000C000000000FC00000000FF00000000FC26
:1003200001010001010303030000010101030303B4
:10033000FEFEFEFCFCFCFCFCE0E0C0C0E0E0FCFEDD
:1003400000000000000000000000000000000000AD
:1003500000000030780808000000000000000000E5
:10036000000000000001050406070701030100006A
:10037000000000C0E0A0C0B8FCFCD880B0E0E00005
:10038000000000000000000000000000000000006D
:10039000000000000000000000000000000000005D
:1003A000FFFF7FFFFFFFFFF939393F3F7FFFFFF777
:1003B000000000000000C0C0C0C0E0F0DCFEF08023
:1003C000000021211B1F1F0F0F3FDF070604080835
:1003D0008080800008B0E0E0C080C0C0C020200065
:1003E000000000000101040D0F07070303010000D6
:1003F000000080C080C080F0F8F8B81040C0C00095
:1004000000000000000000000000000000000000EC
:1004100000000000000000060F1F3F3F3F7F7F7F6E
:1004200000000000030300000000000103030101BD
:100430003F3F1F1FFFFF070100000092FFFFFFFE6D
:100440000000000000000000008080808080C0C0AC
:10045000000000000000000000000000000000009C
:10046000E0F0F8FCFEFEFFFBF0E000000000000002
:10047000000000000030F8FCC67000000000000022
:10048000000000000000000000000000000000006C
:100490000000000000000003070F1F1F1F3F3F3F29
:1004A0000000000003030000000000000000000046
:1004B0001F1F0F0FFFFF0300000000C97F7F7F3F5A
:1004C000000000000000000080C0C0C0C0C0E0E02C
:1004D000000000000000000000000000000000001C
:1004E000F0F8FCFEFFFFFFFD78700000808080C008
:1004F000000000000018FCFE63780000000000000F
:1005000000000000000000000000000000000000EB
:10051000000000000000000000000092FF7F7F3F0D
:100520000000000000000000070E0E1C1E3F7F7F31
:100530001F0F0F0F07070707000000000000C0E0B3
:1005400000000000000000000000000080C0C0C0EB
:10055000000000000000000000000000000000009B
:10056000E0E0E0F0F0F0F0F0E0E0F070707C7F7F31
:1005700000000000000000000000000000000080FB
:10058000000000000000000000000000000000006B
:100590000000000001070F1F3F7F7F7F7F3F1F008C
:1005A000000000000F0F0000000000080F07070305
:1005B00000000000F8F8000000000088FCFCFEFECF
:1005C000000000000000000000000000000000012A
:1005D00000000103060C0D0F1E1C3C38387060E053
:1005E00003070F1F1F1F1F1F1F1F1E1C18100000B7
:1005F000C0C0E0E0C0C0C08080000000000000007B
:1006000000000000000000000000000000000000EA
:1006100000000000000000000000000000000000DA
:1006200000000000070700000000000607030301A8
:1006300000000000FCFC000000000022FEFEFFFFA6
:1006400000000000041E3F7FFFFFFFFF7F3F1C00F4
:1006500000000000033FFFFFFFFFFFFFFEE0000080
:10066000000000000000000000000000000000008A
:10067000000000000000000000000000000000007A
:10068000000000000000000C3F7FFFFFFFFFFF7F26
:10069000000000000000000000C0FCFFFFFFFFFFA3
:1006A0003F03000000000000000000000000000008
:1006B000FFFF070000000000000000000000000035
:1006C00000000000000000041E7FFFFFFFFFFF7F0F
:1006D00000000000000000000000008080C0F0F872
:1006E0003F1F0F0301000000000000000000000099
:1006F000FCFEFFFFFF7F1D00000000000000000067
:1007000000000000000000000000000000000000E9
:1007100000000000000000003C7EFEFFFFFFFF7FA6
:10072000000000000F0F00000000000203030101A1
:100730007F3F3F0FFFFF000000000048FCFEFEFE71
:100740000000000000000000000001030303070791
:1007500000010103030307071FFFFFFFFFFFFFFF68
:1007600007070707030307070F0F07010000000033
:10077000FFFFFFFFFFFFFFFFFFFFFFFFFFFFFFFF89
:1007800078FCFCFCFCFCFCF8F8FCFEFEF4F0E0F06D
:1007900000000000000020202030387C7C78387079
:1007A000F0F8FDFFFFFFFFFFFFFFFFFEF8C0C0E016
:1007B0007878F0E0C0C0C0C0E0E080000000000039
:1007C00000000000000000007F7FFFEF0F0F070711
:1007D0000000000000000000FCFCFCFEF0F8F8F84F
:1007E00007030307070F0F0F03030707070F0F0F79
:1007F000F8F8F8F8F0F0F0F08080000080C0F8F829
:1008000000000000000000000000010303000007DA
:1008100000010100000307070000FFFFFF0000FFC9
:100820000707000003030700000F07010000000096
:10083000FFFF0000FFFFFF0000FFFFFF0000FFFFC2
:1008400078FCFC0000FCFCF80000FEFEF40000F068
:1008500000000000000020200000387C7C000070B8
:10086000F0F80000FFFFFF0000FFFFFE0000C0E007
:1008700078780000C0C0C00000E0800000000000E8
:1008800000000000000000007F0000EF0F0F0000DC
:100890000000000000000000FC0000FEF0F8000076
:1008A00007030300000F0F0F0000070707000000F9
:1008B000F8F8F80000F0F0F0000000008000000000
:1008C0000000000000000000000001000000000720
:1008D00000000000000300000000FF00000000FF17
:1008E0000000000003000000000F000000000000F6
:1008F00000000000FF00000000FF00000000FF00FB
:100900007800000000FC00000000FE00000000F085
:10091000000000000000000000003800000000702F
:1009200000000000FF00000000FF00000000C00009
:1009300000000000C000000000E000000000000017
:100940000000000000000000000000EF00000000B8
:100950000000000000000000000000FE0000000099
:1009600007000000000F000000000700000000006A
:10097000F800000000F0000000000000000000008F
:10098000FFFF7F1F0F0F0F0F1F1F3F3F03030301C9
:10099000FEFEFEFCFEFEFEFFFFFEFEFEFFFFFFFE74
:1009A000010100010103030300000101010303032E
:1009B000FEFEFEFCFCFCFCFCE0E0C0C0E0E0FEFE55
:1009C000FFFF00000F0F0F00001F3F3F000003015B
:1009D000FCF80000FEFEFE0000FEFEFE0000FFFE32
:1009E00001000001010300000000010000030303F7
:1009F000FE0000FCFCFC0000E0E0C00000E0FEFEA9
:100A0000000000000F000000001F000000000300B5
:100A100000000000FE00000000FE00000000FF00DB
:100A200000000001000000000000000000030000C2
:100A3000000000FC00000000E000000000E00000FA
:100A400000000000000000000000000000010101A3
:100A500000000000000000387C7EFEFEFEFEFCFC74
:100A6000010101010F0F0000000000060303030154
:100A7000FCF8FCFCFEFEFEFFFF7E3E7EFFFFFFFE5D
:100A80000000000000000000030F1F1F3F3F7F7F9A
:100A90000000000000000000E0F0F0B0B0C0C0C0F6
:100AA0007F7F7FFEFFFFFFFFFF7F7F3F0F0F070767
:100AB0008000000000F2F0C08080E0F8F8F8F8FC58
:100AC000000000000000010307070F0F0F0F1F1F9A
:100AD0000000000161F0F8F8F8F8F0F0F0E0E0C094
:100AE0001F3F3F3F3F3F1F07010000000000000085
:100AF000C0E0E1F3F7FEFEFAFA786C404020000017
:100B000000000000001F0F03030100000000071F8A
:100B100000303C3F3FFFFBF8F8F878180000000079
:100B20001C00000000000103070F0F0F1F1800003A
:100B300000001C1E3FFFFFFFFFFFFFFFFF7F0F03B3
:100B40000000000000000000000000000000008025
:100B50000000000000000000000000000000000095
:100B6000E0FCFCF9FFFFFFFFFFFFFFDE1E1C0C0097
:100B700040C0A0E0E0E08080000000000000000035
:100B80000000000000000000000000000000010163
:100B90000000000000000103070101000060F0F800
:100BA0000303070707030101000000000000000025
:100BB000F8F8F8F8FCFDFFFFFFFF7F7F3F3F1F0FB6
:100BC0003F7FFFFFFFFEFCF8F0E0C0000000207058
:100BD000C0C0808000000000000000000000000095
:100BE00070E3C7EFFFFFFFFFFFFFFFF8700000009B
:100BF0000080E0F8FCFEFEFCFCFEFFFFFF7F772399
:100C000000000000E080F09010C000000000000034
:100C100000000000000000000000000000000000D4
:100C200000001D1B150F0B01171C00000000000029
:100C300040E0E0C080A0B030F0E0C0000000000064
:100C40000000000000000000000303070700000090
:100C500000001010185A7E7C3870E0E0F0000000B0
:100C60000000000000010002070705010101010367
:100C700000000040E080E0C0F0F8F8F8E0E0C0805C
:100C80000000010306020300070303000000000048
:100C900000008010B8F8F8F0F8F87C3C183010002C
:100CA000000000020505070300030100000000002A
:100CB0000000607060F8F8FCFCBC8C0C04000000C4
:100CC00000000307030305171B1E0C0100000000B2
:100CD00000001070F8F8FEF080C0C0C000000000F6
:100CE000000000000C1E1E1E1E0E0080C0F8FCFE40
:100CF00000000000000000000000000000000000F4
:100D00000000000000000000000206070303070FB8
:100D10000000000000000060F0C0F0F8E0E0E080BB
:100D200000000000000000FCFCFCF87878F8F8F007
:100D3000000000002060F0F0F06000000000000003
:100D4000000000000001071F3FFEFCF8F0F0E0C0CB
:100D500000000020F0F0F8C080000000000000005B
:100D60000000000000000000000000000000000083
:100D70000000000000000000000000000000000073
:100D80000000000000C0E0E0E0E0C0000000000063
:100D90000000000000000000000000000000000053
:100DA0000000000000000000000000000000000043
:100DB0000000000000000000000000000000000033
:100DC000000000000CB8F8FCFCC0000000000000AF
:100DD0000000387C7C7C381000000000000000001F
:100DE00000000000000000000101030202000000FA
:100DF00006000000000000E0F8F8F8FC7C3C0C0065
:100E000000000103030303030303010000000000CB
:100E100070E0E0E0E0C0C0C0C08080C00000000022
:100E2000000000000001050D0707070F1F0F1FBF7F
:100E300000000000C0E080E0F0C0C0C080C0E0F86A
:100E4000801C7F7F3F3F1F0F0F070703000000003C
:100E50000000000000000000808000000000000092
:100E60000103070F0F07070703010101000000003E
:100E7000808080C0C0C0C0C0C0C0C0F020000000E2
:100E8000000000000000000000010100060F5F7F6D
:100E9000000000000000183CB0BCFEF8F8FEFFFFA8
:100EA0000F0F070703030303010101010000000006
:100EB0000000008080C0C0C0C0C0C0800000000032
:100EC000E0F0F8FCFEFFFF7F1F0F030000000000B2
:100ED00000000000000080C0E0F0F87C5800000036
:100EE0000000000000000001050D0707071F077F35
:100EF000000000000000C0E080E0F0C0C0C00000C2
:100F000000000000000000030000000000000000DE
:100F100000000000000000FC0000000000000000D5
:100F200000000000000000000000000000000000C1
:100F300000000040404040C0404000000000000071
:100F4000070F0F1F1515040000010101000000002C
:100F5000FCFCFEFEF6F777FBFBFBF3F7F7F3717093
:100F60000000000000000000000000000000808081
:100F70000000000000000000000000000000000071
:100F80000000000000000000000000000000000061
:100F90000000000000000000000000000000000051
:100FA00000000002040C0C080C0F0E0C68488402B0
:100FB00000000000000000000000800000000000B1
:100FC0000000000000000000000000000000000021
:100FD0000000000000000000000000000000000011
:100FE0000000000000000000000000000000000001
:100FF00000000000007C7C3C18080100000000009C
:1010000000000000000000000206060E0E2E3E3E0C
:1010100000000000000000000000000000000000D0
:101020003C1C1C0A060E1E3C3C38383030F0706008
:1010300000000000000000000000000000000000B0
:1010400000000000000000000000000000000000A0
:10105000000000000000000000E03078FCFCFEFE14
:10106000012121317171F9F9F87078383C181811A3
:10107000FEFEFEFEFEFEFEFCFCFC3E1C3878F8FC8C
:101080000000000000000000000000000000000060
:101090001010000000000000100F1F3E3E1E1CE05C
:1010A0000101030303030707070301000000000019
:1010B000F0F0E0E0C0C0C0808080000000000000D0
:1010C0000000000000000000000000000000000020
:1010D0000000000000000000000000000000000010
:1010E000787878787C7C7C3C3C3E0E0700000000E1
:1010F00000000000000000000000000000000000F0
:101100000300010303070707070F0F0F0F0F0F0F50
:1011100080C0E0F0F0F8F8F8F8F8F8F8F8F8F0F037
:101120000F07070707030002030301010100000086
:10113000F00080F0B018181C0C9EFEFCF8F8F8F8CF
:10114000000000000000000000000000000000039C
:101150000000000000000000F878F8F0F07070E087
:101160000307070F0F1F1F0F0707030301000000EE
:10117000E0E0C0C0C080808000000000800000006F
:1011800003010707070F0F1F1F3F3F7F7F7FFFFFF1
:1011900080C0E0F0F0F8F8F8F8F8F8F8F8F8F0F0B7
:1011A000FF7F3C381101010101030303000000002F
:1011B000F0F00000E0E0F0F0F0F0F8F8F87C7C7E71
:1011C000000000000000000000000000000000001F
:1011D00000000000000000000000000000000010FF
:1011E00000000000000000000000000000000000FF
:1011F0003F3E7E7C7C7878787030301000000000B4
:101200000000000000000000003F1F1F0F07070F35
:1012100000000000000000000000000080808080CE
:101220000E0F0F0F0F0F0F0F07030100000000003C
:10123000000000000080808080808080000000002E
:10124000000177FFFFFFFFFFFF7F7F7F3F3F1F1FF3
:1012500000FCFEFFFFFFFFFFFFFFFFC7C7C1E0F875
:101260000F07000003070703030101030707070F28
:10127000F8E00008FCFEFEFFFFFFDFCFC7C3818060
:101280000000000000000000000000000000C0F0AE
:10129000000000000000101038B8B8F87870602026
:1012A000F6FFFFFFFFDCC080000000000000000030
:1012B00000008000000000000000000000000000AE
:1012C0000000000000000000000000000001050711
:1012D00000000000000000000000F0F0F0E0E0C0BE
:1012E0000F0F1F1F1F1E1E1C1C18180800000000D7
:1012F000C08080000000000000000000000000002E
:101300000000101818181C1C1C1E1E3E1E3E3E3EDF
:1013100000000000000000000000000000000000CD
:101320003E3C1C1C1C1C1C1C1C0C0600000000006D
:1013300000000000000000000000000000000000AD
:101340000001737FFFFFFFFFFF7F7F7F3F3F1F1F76
:1013500000FCFEFFFFFFFFFFFFFFFFE7E7E1F4FCFC
:101360000F070003070F0F07070703030303070710
:10137000F80000808080800080808080C0C0C080B5
:10138000000000000000000000000000000000005D
:10139000000000000000000000000000000000103D
:1013A000000000000000C0F0F6FEFFFFFFDCC08080
:1013B00038B8B8F8787060000000800000000000C5
:1013C0000000000000000000070F070703131F3F85
:1013D00000000000000000008080C0C0839F1F1F2D
:1013E0003E3E3E3E3C3C3C3838381C040000000089
:1013F0001F1F1F1E0E0E0E0E0E060703000000001C
:10140000030307777FFFFFFFFFFF7F7F3F3F3F1F04
:10141000F0FCFCBEFEDFDFDFDF8F1FFFFF1F1F0FB3
:101420001F1F03010307070F070707030707070F1E
:101430008F9FFFF7FBF8F8F0E0E0E0E0E0E0C0C0ED
:10144000000000000000000000000000000000009C
:101450000000000000000000003E3C1E3EFCFCF8C6
:101460000101010101010101010101010000000070
:10147000F8F8F0F0F0E0E0E0C0C0C0C0000000000C
:101480000000000000000000030302000000000054
:101490000000000000000000F87CFCFC7C783C7C34
:1014A0000000000101010000010101000000000036
:1014B0007C38F8F8F0F0E0E0E0E0F8F80000000038
:1014C000070F01737FFFFFFFFFFF7F7F3F0F0301C8
:1014D000F0FCFFFFFFFFFDF8F0F1F9FFFFFFFFFE5B
:1014E00000000000000000000000000000000000FC
:1014F000FC181103070F1D3F3F1F1F3F3E3E3C3EA0
:101500000000E0E0F0F0E0E0F0F1FBFBDF9F0F3FD8
:101510000000000000081C7CFCFCFCF8F0B0C0C01F
:101520007FFFFCA8CBC70F8F8700000000000000E2
:10153000800000000080800000000000000000002B
:101540000000000000000000010303010101000091
:101550000000000000000000F0F0F8F0F0E0F8F803
:101560000000000000000000010101000000000078
:10157000F8F0F0F0F0E0E0E0E0C0C0800000000033
:101580000103030F1F3F7FFFFFFF3F07070103001A
:10159000C0F0F0F9FDFFE3E3E1F4FCFCFCFC78F8BB
:1015A000000000010307070703010000000000001E
:1015B0000000F0F0F0F8F8FCFE7E3F1F0F0F070F61
:1015C000000000000000000000000000080F0F0FE6
:1015D000000000000000000000011F0FCEBEBEBED4
:1015E0001F1F1F1F1E1E1E3C3C1C0C000000000085
:1015F000BEBE3E1E1C1C1C1C1C1C1E0E000000003F
:101600000000000001133333737171F0F078393842
:10161000E03078F8FFFFFFFFFFFFFEFEFE7EFCFCE0
:1016200010000000010303010100000000000000A1
:10163000FC0000F8F8FCFCFCFEFE7E1F3F1F0B07C1
:10164000000000000000000000000000000000009A
:101650000000000000000000000000004060F1F900
:101660000001010303070303030200000000000060
:10167000F9F1F1E1E0C0808001000000000000000D
:101680000000000000000404047CFC7C78F8F8F8FA
:10169000000000000000000000000000000000004A
:1016A000F0F0F0E0E0E0E0E0E0E0E040000000002A
:1016B000000000000000000000000000000000002A
:1016C000000000000000000000000000000000001A
:1016D0000000000000000000000000000000010306
:1016E00000000000000000000000000000000000FA
:1016F00007070F1F1F1F0F0E0400010F0F070F0F0B
:1017000000000000000000000000011B7FFFFFFF41
:1017100000000000000C1E58FE7F7CFCFCC0C0C016
:10172000FFFFF7CF1F3F3F7F7E80FEFFFFFFFFF5EC
:10173000E0E0E0E0C0C0800000000080C0E0E070B9
:1017400000000000000000000000000007070F1F5D
:101750000000000000000000000000007F7FFFFF8D
:101760001F3F3F7F7F7EFCF0FBFF7DF8F9C101004A
:10177000FFFFFEF8A6FE7D3FC0FFFFFDF9E0E0C0E1
:1017800000000000000000000000FFFF7F7F7F7F5F
:10179000000000000000000000000080C0C0E0E089
:1017A0007F1FF3F1E09E7FFFFEFCFCBC3C7E7E3C95
:1017B000F0F0F0F070F8F8F8F0F0C0000000000071
:1017C00000000000010303030F1F3F7FFFFF7F7F27
:1017D00000000000FFFFFFFEFCF7FBFCFFE9C0C0BC
:1017E00003030301010000000000000000000000EE
:1017F00080C0E0E0E0F0C0000000183E3E2B292948
:10180000000000037F7F7F3F0F73EF1FBF0F0700B4
:1018100000000000C0C0E0E0E0F0F0F0F8FCFCFFE9
:1018200000387CFCFCF8781000000000000000800C
:10183000FCFC2C040400000000000000000000007C
:10184000000001071F3F7FFFFFFFF8F1F8797B6180
:1018500070F8FCFCFEFEFEFEFEFEFCFCFCF8F8F060
:1018600001030E1F1F1F1F0F0307070201030303BE
:10187000F0F000F0F0F0F0F0F0F0F0E0E0E0E0E0A8
:101880000101010301010303070707070707070712
:10189000E0E0E0F0F0E0C0C0C0C0C0C0C0C0C0C068
:1018A0000707070707070301010000000000000009
:1018B000C0808080000000808000000000000000E8
:1018C000030F3F3F7FFFFF7E707879792703010C7C
:1018D000FEFEFFFFFFFFFF3F7FFEFCF8F8F0E07029
:1018E0003F3F3F1F1B0700000000000000000000FA
:1018F00000C8F8F8FCFEFE7F170703070201030388
:1019000000000000000000000000000000000000D7
:101910000000000000000000000202030303E3F2E5
:10192000010307071F0F0600000000000000000071
:10193000FEFEFCF0E080000000000000000000005F
:101940000000000001030301010303317B7FFFFF5F
:10195000000030787078FCFDFDFDFDF5F1F1F8F840
:10196000FFFFFFFF7F3F0F1F0F0707000000070F5C
:10197000F8F8FDFFFFFFFFFDFCF8E0000070F0F05D
:101980000000000000000000000000000000000057
:1019900000000000000000103038383070706060C7
:1019A0000000000000000000000000000000000037
:1019B0004000004040406060606040000000000067
:1019C0000000000000000000000000000000010313
:1019D0000F161E1E1E1E1E1E3C1C3C7C3C3878F042
:1019E0000307070707070F0F0E0606000000000099
:1019F000E0E0C0C0808000000000000000000000A7
:101A0000F8FCFC7E7E3F1F0F0F070703030F0F0F2D
:101A1000000000000000008080C0C08080808080C6
:101A20000F0F0F0F0F0F0F07070703010000000034
:101A30008080808080000000000080800000000026
:101A40000000000000000103030101030303777F8E
:101A50000000000030786078FCF0F0F0C0F0FEFE8E
:101A6000FFFFFFFFFFFF7F7F7F7F7F7F7F3F0301C0
:101A7000FFFFFFFED8981999FFFFFFFFFFFFC78EFA
:101A80003F3E3F1F1F0F0F070301070F073F7E7EDB
:101A9000F0F878B8BCBCBCBEBEDEDEBC7C7C7CF89A
:101AA000FCF8F8F0F0E0E0C0C0C0800000000000EA
:101AB000F8F8F8F0F0F0F0F0E0E06030000000003E
:101AC000000000000001010707C3E3F7FFFFFFFF6D
:101AD00000000000809838FCF4B898C04000808076
:101AE000FFFF7F7FEEF4F0F060800000E4ECDEFFAB
:101AF00080800000000000000000000000000000E6
:101B000000000000000000000000000000000000D5
:101B10000103070F0F1F3F3F7FFFFEFCF1F87878AE
:101B200000000000000000000000000000000000B5
:101B3000782000000E0F1E3E2A2B08000000000037
:101B40000F0F0F0F0707070301030303010F0F0F09
:101B5000A0A0D0D0D8D8E8E8ECECDCDCD8F8F8F8D5
:101B60000F0F0F0F0F1F1F1F1F1F0F0F060000006B
:101B7000F0F0F0F0F0E0E0E0E0E0F0E00000000085
:101B80000000000000000001030101000000001F30
:101B9000000000003870285CDCC84080C060C0C015
:101BA0001F3F3F3F3F7E7CFCF9F17B7931200003F2
:101BB000DABB7B3B3B3F7FFFFFFEFEFCFC0000FCF3
:101BC00000000000000000000000000000071F3EB1
:101BD00000000000000008080C0C0E0E0E0E3E3E29
:101BE0003E3E3E3E3C3C3C3C3838781C0C000000FD
:101BF0003C3C3C3C3C3C3C383838380C0000000055
:101C0000000000000001010707C3E3F3F7F7E7CF87
:101C100000000000809838FCF4B898C04000808034
:101C2000DF9F3F7FFFFFFEFEFCF80000F0F8F8F8B2
:101C300080800000000000000000000000000000A4
:101C40000000000001010307070F1F1F1F1E1F0FC9
:101C5000002060E0E0E0E0E0E0E0E0C00000202004
:101C60000D08000001030303070505010000000043
:101C70002020000000C0E0C0CFCF6F07070703039C
:101C800000000000000000000000000000050F0F31
:101C90001010181818181C1C3C7C787838F8F8F8C4
:101CA0000F0F0F1F1F1F3F3F3F3F1D190800000070
:101CB000F8F0F0F0E0E0E0E0E4C2C2C3E71F0F0795
:101CC00000000000010101050F07C3EFFFFFFFFF48
:101CD0000000000010B8BCF0F8DCCC600080C0C090
:101CE000FFFFFFFF7E7C7C1C0060F8FCFEFFFFFF17
:101CF000C0C0808000000000000000000000808064
:101D0000000000000008183838787878F8F8F8F003
:101D100000000000000000000000000000000000C3
:101D2000E0F0F0706040000008181E1F3D39282CBC
:101D3000000000000000000000007E7F3F3F0F0712
:101D4000000000000000000000000107073F7FFFC7
:101D50000000000000000000000080808080808083
:101D6000FFFFFB7B7B7B797978380C0C000000004F
:101D700080C0C0C0C0C0E0E0F0B0000000000000C3
:101D800000000000070E070717141D0F070F0F03B1
:101D900000000000000080C080008000E0F0F0F84B
:101DA000030307070F0F1F1F1F1F1F3F3E3C3E1F50
:101DB000FCFEFFFEFEFEFCFC958000000000000023
:101DC00000000000000000000307070707070703E3
:101DD00000000000000000009CFFFFFFFFFDE0008E
:101DE0000000000000000000E0F0D0C0E080C06013
:101DF00000000000000000000000000000000000E3
:101E00000000C0F8FC7E7F7F7F0F81C0E0E0F0F033
:101E100000000000000030F0E0E0E04000000000C2
:101E2000F8F8FCFC7E7E3E1F1F0F0700000000003C
:101E3000000000000000000080E0C0800000000002
:101E40000000000000000000000000000000000092
:101E50000000000000000000000000000000000082
:101E60000000000000000000000000000000000072
:101E70000000000000000000000000000000000062
:101E800003010F070F1F0F0F0703030000010103DA
:101E90000080C0E0C0C0C0E0C0C000000000008002
:101EA000030301010000000000000000000000002A
:101EB0008080C4FFFF2F060000000000000000002B
:101EC000000000000000000000000000000060FEB4
:101ED0000000000000000000000000000000000002
:101EE000FEFF7F0F070307070F1F070F0600000005
:101EF000000080C0E0E0E0C0C08080800000000002
:101F00000000000001000703070F0707030101009D
:101F10000000000080C0E0F0E0E0E0F0E0E08000E1
:101F200000010101010000000000000000000000AD
:101F3000008080C0C0C0E0603A3F1F0F0600000074
:101F4000000000000000001C1F1F0F0F0707070FF5
:101F50000000000000000000C0C0C0C08080800001
:101F60000F0F1E3E3C7CFC78383010000000000053
:101F700000000060301000000000000000000000C1
:101F80000000000000000000000002020607070732
:101F90000004347D7F7FFFFEFE3A30100000000019
:101FA0000303010100000101000000000000000027
:101FB0000080C0C0C0E0E0E0C00000000000000001
:101FC0000000000003070F00000000000000006791
:101FD000000000000080800000000000000080C0C1
:101FE000FFFE38200000000000000000000000009C
:101FF000F0F01000003C3C7E3E7E3F3E7C3E1000F8
:00000001FF
