:100000000107070F0F0F1F1F1F1F1F3F3D58387895
:10001000E0F0F0F0F0F0F0C0E0F0F8F8D0C0000050
:1000200000000000000000000307070F1F1F0F075C
:100030000000000000000000E0E0C0C0E0E0FCFCC8
:100040000000000000000000070E0E1C1E3F7F7F16
:100050000000000000000000000000000000E0E0E0
:100060000000000000000000E0E0E070707C7F7F96
:100070000000000000000000000000000000808080
:100080000000000000000000000000000000000070
:100090000000000000000000004000000000000020
:1000A000000000000000011F1F060000000000000B
:1000B00000000000000080C0E038000000000000E8
:1000C0000000000000000000000000000000000030
:1000D00000000000000000000040000000000000E0
:1000E00000000000000000003838387C7CFFFFFF73
:1000F0000000000000000000000000000000E0E040
:100100000000071FFFFEFE000000000000000000CE
:100110000000E000000000000000000000000000FF
:100120000000000000003E3F7F1C080000000000AF
:10013000000000000000000080C00000000000007F
:10014000000000000000000000000001010307079C
:10015000000000000000000070E0E0C0E0F0FEFEE3
:1001600000000000000000000000000080C0E0F07F
:10017000000000000000000000000000000000007F
:1001800000000000E0F8FCFE770100000000000025
:1001900000000000000000000080000000000000DF
:1001A000000000003C7EFFFFFFFFFF7E3C000000E0
:1001B00000000000000010C0E88000800000000087
:1001C000000000003C7FFFFFFFFFFF7E3C000000BF
:1001D000000000000000E8C0FBE08000000000001C
:1001E00000000000383F7F7FFFFFFF7F7F3C000063
:1001F0000000002000A8C080800000000000000077
:1002000000000000383F7F7FFFFFFF7F7F3C000042
:1002100000000102A8F0C4E080800000000000009F
:10022000000000000000004040000002041C150116
:10023000000010143C3860C0400000008080C040C6
:100240000000000000000040400002041C150100F6
:100250000000000060F0B0980808088080C04000EE
:1002600000000000000000000E0E1C1C1E3F7F7FDF
:100270000000000000000000000000000000E0E0BE
:10028000000000000000000000000000000000006E
:1002900020202030387C7C7838707878F0E040403E
:1002A0000000000000000000000000000008000046
:1002B000000000000000000000000000000000003E
:1002C000010F1F3F3F3F7F7F7F7F7F7F3F3F7F7FCC
:1002D000C0E0F0F0F8FCFEFFFFFFFFFFFFFFFFFFB5
:1002E000010F1F00003F7F7F00007F7F3F00007FE6
:1002F000C0E0F00000FCFEFF0000FFFFFF0000FC7C
:1003000001000000003F000000007F000000007FAF
:10031000C000000000FC00000000FF00000000FC26
:1003200000000000000000000000010101030303C1
:100330000202000000000000E0E0C0C0E0E0FEFEBD
:1003400000010000000000000000000000000000AC
:10035000F0F8F8787838080000000000000000008D
:1003600003070F0F1F1F1F1F1F0F0F0F1F1F3444E7
:1003700080C0E0E0E0E0E0B8FCFCD880B0E0E00065
:1003800000000000000000000080C000000000002D
:10039000000000000000000000000000000000005D
:1003A000000000000000000139393F3F7FFFFFF7E8
:1003B000000000000000C0C0C0C0E0F0FEFEF08001
:1003C000000021211B1F1F0F0F3FDF070604080835
:1003D0008080800008B0E0E0C080C0C0C020200065
:1003E00003070F0F1F1F3F3F5F1727030301000085
:1003F000C0E0E0E0C0E080F0F8F8B81040C0C00015
:100400000003070F0F0F1F1F1F1F1F1F0F0F1F1F9F
:1004100060E0E0C0D2B7EFF9F0E0C0C0C0808080FB
:100420003F3F1F070303030307070F0E00000000F1
:10043000C0C0E0E0F0F0F8FEFFFFFF6D000000003C
:1004400000000000000080C0C040404000000000EC
:10045000000000000000000000000000000000009C
:1004600000000000000003030000C0E000000000E6
:10047000000000000030F8FCC67000000000000022
:100480000001030707070F0F0F0F0F0F07070F0FCD
:1004900030F0F0E0E9DBF7FCF8F0E0E0E0C0C0C0ED
:1004A0001F1F0F030303030307070F0F00000000C4
:1004B000E0E0F0F0F8F8FCFFFFFFFF36000000007E
:1004C000000000000080C0E060202020000000004C
:1004D000000000000000000000000000000000001C
:1004E00000000000000001018080E0F0000000003A
:1004F000000000000018FCFE63780000000000000F
:1005000000000000000000000000000000000000EB
:1005100000000000000000000000000000000000DB
:100520000000000000000000070E0E1C1E3F7F7F31
:100530000000000000000000000000000000E0E0FB
:1005400000000000000000000000000000000000AB
:10055000000000000000000000000000000000009B
:100560000000000000000000E0E0F070707C7F7F81
:10057000000000000000000000000000000080807B
:100580000003070F0F0F1F1F3F3F7F7F7FFFFFFFFE
:1005900060E0E0C0D0B0F0E0C080808080C0E0FFCC
:1005A000FF7F3F1F0F0F1F3F7F7FFFE7000000000F
:1005B000FEFCFCF8F8F8F8F8FCFCFE770000000000
:1005C000000000000000000000000000000000002B
:1005D00000000103060C0D0F1E1C3C38387060E053
:1005E000000000000000000000000000000000000B
:1005F00040000000000000000000000000000000BB
:100600000000000103030307070F0F1F1F1F3F3FD9
:100610001070F0F0F0F0F0F0F0F0F0F0F0F0F0F03A
:100620003F3F1F0F0707070F1F3F7F7900000000A4
:10063000F0F0F0F0FCFCFCFCFEFFFFDD0000000031
:10064000C0C0C080A060C0800000000080C0E0FC8E
:10065000000000000000000000000000000000009A
:10066000F8F0F0E0000000000000000000000000D2
:10067000000000000000000000000000000000007A
:10068000C0C0C080A466EFD3C0800000000000801E
:10069000000000000000008080000000000000005A
:1006A000C0F8F0E0000000000000000000000000C2
:1006B000000000000000000000000000000000003A
:1006C000C0C0C0A0A46EDFFBE1800000000000807D
:1006D000000000000000008080800000000000009A
:1006E000C0E0F0E00000000000000000000000009A
:1006F00000000000010301000000000000000000F5
:10070000010F1F3F3F3E7F7F7F7F7F7F3F3F7F7F88
:100710008080800048DCBEFFC381010000000080B3
:10072000FFFF7F1F0F0F0F0F1F1F3F39000000003B
:1007300080C0C0F0FCFCFCFEFFFFFFB70000000023
:100740000000000000000000000001030303070791
:1007500000010103030307071FFFFFFFFFFFFFFF68
:1007600007070707030307070F0F07010000000033
:10077000FFFFFFFFFFFFFFFFFFFFFFFFFFFFFFFF89
:1007800078FCFCFCFCFCFCF8F8FCFEFEF4F0E0F06D
:1007900000000000000020202030387C7C78387079
:1007A000F0F8FDFFFFFFFFFFFFFFFFFEF8C0C0E016
:1007B0007878F0E0C0C0C0C0E0E080000000000039
:1007C00000000000000000007F7FFFEF0F0F070711
:1007D0000000000000000000FCFCFCFEF0F8F8F84F
:1007E00007030307070F0F0F03030707070F0F0F79
:1007F000F8F8F8F8F0F0F0F08080000080C0F8F829
:1008000000000000000000000000010303000007DA
:1008100000010100000307070000FFFFFF0000FFC9
:100820000707000003030700000F07010000000096
:10083000FFFF0000FFFFFF0000FFFFFF0000FFFFC2
:1008400078FCFC0000FCFCF80000FEFEF40000F068
:1008500000000000000020200000387C7C000070B8
:10086000F0F80000FFFFFF0000FFFFFE0000C0E007
:1008700078780000C0C0C00000E0800000000000E8
:1008800000000000000000007F0000EF0F0F0000DC
:100890000000000000000000FC0000FEF0F8000076
:1008A00007030300000F0F0F0000070707000000F9
:1008B000F8F8F80000F0F0F0000000008000000000
:1008C0000000000000000000000001000000000720
:1008D00000000000000300000000FF00000000FF17
:1008E0000000000003000000000F000000000000F6
:1008F00000000000FF00000000FF00000000FF00FB
:100900007800000000FC00000000FE00000000F085
:10091000000000000000000000003800000000702F
:1009200000000000FF00000000FF00000000C00009
:1009300000000000C000000000E000000000000017
:100940000000000000000000000000EF00000000B8
:100950000000000000000000000000FE0000000099
:1009600007000000000F000000000700000000006A
:10097000F800000000F0000000000000000000008F
:10098000FFFF7F1F0F0F0F0F1F1F3F3F03030301C9
:10099000FEFEFEFCFEFEFEFFFFFEFEFEFFFFFFFE74
:1009A000010100010103030300000101010303032E
:1009B000FEFEFEFCFCFCFCFCE0E0C0C0E0E0FEFE55
:1009C000FFFF00000F0F0F00001F3F3F000003015B
:1009D000FCF80000FEFEFE0000FEFEFE0000FFFE32
:1009E00001000001010300000000010000030303F7
:1009F000FE0000FCFCFC0000E0E0C00000E0FEFEA9
:100A0000000000000F000000001F000000000300B5
:100A100000000000FE00000000FE00000000FF00DB
:100A200000000001000000000000000000030000C2
:100A3000000000FC00000000E000000000E00000FA
:100A4000010F1F3F3F3F7F7F7F7F7F7F3F3E7E7E47
:100A5000C0E0F0F0F8FCFEC783810101010103034F
:100A6000FEFE7E1E0E0E0F0F1F1F3F3900000000FE
:100A700002060200000000000080C28E0F0B0B0275
:100A80000000030F1E1E3C7B7C7060604000000075
:100A9000000000000000B0BE1F0E0E0C0C0800008D
:100AA000000000000000000000000103030301003B
:100AB00060E08040F072362F6FFFF8A0200080E0E9
:100AC000000303070F3F3E7C78F8F0F070702020A1
:100AD00040D0B0F8980C060707070F0F0F1F1F3FF5
:100AE0000000000000000000000000000000000006
:100AF0003F1F1F0F0F0F1F3F7F7F7F5F4F2F0F077E
:100B0000000000000000101C1C1E1E1E1E1E1F1FC9
:100B10000000000303030300000000000000008049
:100B20001F1F1F1F1F1F1E1C1810101000E0400069
:100B3000E0F0E0E0C0000000000000000000000065
:100B400000000000000000000000000000000000A5
:100B50000000000000000000000000000000000095
:100B600000000001070F1F1F3F3F3F1E1E1C0C000F
:100B7000C0C0E0E0E0E08080000000000000000075
:100B8000000000000000000000000110327AF6FEB4
:100B9000000000000000000070FEFEFFFF9F0F0736
:100BA000FCFCF8F8787C3E0E03000000000000001A
:100BB0000707070703030000000000000000000013
:100BC00000000000000000000000008187CFEEFC64
:100BD0000000000000000000000000008000000095
:100BE000FCFC381C18181B1E1E0C00000000000026
:100BF000000000000080000000020707070F070345
:100C000000000000E080F09010C000000000000034
:100C100000000000000000000000000000000000D4
:100C200000387DFFFDFFFFFF7F7F7F3F0303010251
:100C300040E0E0C080A0B030F0E0C080C0404000A4
:100C400000000000000000000000000000000000A4
:100C500000001010185A7E7C3870602000000000E0
:100C60000007070F0F0F1F0F0F1F1F1F0F0F1F175B
:100C700080C0E0E0E0E0E0C0F0F8F8F8E0E0C0803C
:100C8000061F1F1F3F3F1F3F1F1F0F0707010000C9
:100C900000008090B8F8F8F0F8F8FCFCF8F090400C
:100CA0000000001F3F3F3F3F3F1F1F07070100009D
:100CB0000000607060F8F8FCFCFCFCFCFCF4100820
:100CC0000000030703030D1F3F3F7F7F3F1F0F02FD
:100CD00000001070F8F8FEFCF8F9FEF4E0E0800087
:100CE0000000000000000000003078783078FCFE42
:100CF00000000000000000000000000000000000F4
:100D000000000000000000000000000000000000E3
:100D10000000000000000000004000000000000093
:100D200000000000000000FCFCFCFEFEFFFFFFFFD7
:100D30000000000080800000000000000000008033
:100D4000000000000001071E3CF8F0E0C080000039
:100D500000001E3FFFEF87070100000000000000B9
:100D60000000000080808080800000000000000003
:100D70000000000000000000000000000000000073
:100D80000000000000000000000000000000000063
:100D90000000000000000000000000000000000053
:100DA0000000000000000000000000000080E0E003
:100DB0000000000000000000000000000000000033
:100DC000000000000307070300000000000000000F
:100DD0000000000080808000000000000000000093
:100DE0000000000000000E1F1E1E1C1C1C1C0E0715
:100DF0001F0F0F0F0707070303070703030303036F
:100E0000FFFBF0F0E0E1E1E1E0E0C2C3C387870768
:100E1000F0E0E0E0E0C0C0C0C08080C0C0E0F8FC0E
:100E200000000000000000000000000000F0FFFFD4
:100E30000000000000008000000000000040E0F022
:100E40008018787C3C3C1E0C0E0606060F1F3F7F68
:100E5000000000000000000000008080C0C0C0C092
:100E60000103030101010100000000000001030370
:100E7000808080C0C0C0C0C0C0C0C070F8FCFEFF91
:100E800000000000000000000000083C7C7C3F3FA8
:100E900000000000000000001000000607070FFF20
:100EA0000E0E06060303030301010103070F1F3F94
:100EB0000000000000000080808080C0E0E0E0E0F2
:100EC000E0F0F8FCFEBF0F0701000000000000008A
:100ED00000000000000080C0E0F0381C3E3F7F7F33
:100EE0000000000000000000000000000000380CBE
:100EF0000000000000000000800000000000000072
:100F0000000000000000003F4040400000000000E2
:100F100000000000000000FC0000000000000000D5
:100F200000000000000000000001010303000000B9
:100F30000000000000000000C0C0C0C0C0C04000F1
:100F40000800000002020307070303030303030171
:100F5000FC3CBEBEFE7FFFFFFFFFFFFFFFFFFFF772
:100F60008000000000B0C08080C0200080808080B1
:100F70000000000000000000000000000000000071
:100F80000000000000000000000000000000000061
:100F90000000000000000000000000000000000051
:100FA00000000002040C0C080C0F0E0C68488402B0
:100FB00000000000000000000000800000000000B1
:100FC0000000000000000000000000000000000021
:100FD0000000000000000000000000000000000011
:100FE0000000000000000000000000000000000001
:100FF00000000000000002020707020000000000DD
:1010000000000000000000000606060E0E2E3E3E08
:1010100000000000000000000000000000000000D0
:101020003C1C1C0E060E1E3C3C38383030F0706004
:1010300000000000000000000000000000000000B0
:10104000000000000000000000030707070F0F1F4B
:1010500000000000000000000020F0F8FC9C0E0ED4
:101060001E1E1E0E0E0F0707070F00000307070FB7
:101070000E0606060606068480C00003E7F7FFFF9B
:10108000000000000000000000000000000100005F
:10109000F0F0707030303030707F7FFFFFFEFC204A
:1010A00000000000000001010107070F0F07070300
:1010B000707060E0C0C0C08080800080C0C0F0F868
:1010C000000000000000000000F8F8FCFCFCFCF848
:1010D0000000000000000000000000000000000010
:1010E0000000000000000000000010181F1F0F0F7C
:1010F0000000000000000000000000000080E0F0A0
:101100000C1F1F1F3C38383838303030301010106A
:1011100080C0E0F07038383838383838387870F0B7
:1011200030000008181C1F1F1F1F0F0707030303B1
:10113000F000003070F8F8F8F0E0C0C0E0F8F8F81F
:101140000000000000000000010103030307070086
:101150000000000000000000F8F8F8F0F0F0F06087
:10116000000001010103030301090D0D0F0F070327
:10117000E0E0C0C0C08080800000000080C0F0F8C7
:101180000C1F1F1C38307060604040000103070FC7
:1011900080C0E0F0703838387878F8F8F8F8F0F077
:1011A000070700040F1F3F3E3E3C3C1C1F1F1F1F34
:1011B000F0F00000E0E0703030303878F8FCFCFEF1
:1011C000000000000000000000000000000000001F
:1011D000000000000000000000070F1F1F3F3F0F2E
:1011E00000000000000000000000000001000000FE
:1011F0000000000000000000000080E0F8FCFEFF9E
:10120000000000000000000000FFFFFFFFFFBFBF65
:1012100000000000000000000000000080808080CE
:101220001E03030303070303010103030303030373
:101230000000000000808080808080C0E0F8FCFE1C
:101240000C1E0F0707030303010101014140606009
:10125000001CBEFEFEFEFEFEFCF8F8F8383C181836
:10126000300000303F3F3F3F1F0F1F1F1F3F3F3FDA
:1012700038E00008FCFEFEFFFFFFFFFFFFDF8F8767
:10128000000000000000000000000000000000015D
:10129000000000000000000000000000000080C00E
:1012A000010000000000000000000000000000003D
:1012B000C0C00000000000000000000000000000AE
:1012C00000000000000000000000070F0F0F0301E6
:1012D00000000000000000000000F0F0F0E0E0C0BE
:1012E00001030307070E0E0C2C28787CFCFE7F1FE1
:1012F000C0808000000000000000000000000080AE
:101300000000101818181C1C1C1EFE7E7E1E1E0ECF
:1013100000000000000000000000000000000000CD
:101320000E0C0404040C0C0C0C1C3E3E3F1F0F075B
:101330000000000000000000000000000080C0E08D
:101340000C1E0F0707030303010101014140606008
:10135000001CBEFEFEFEFEFEFCF8F8D8181C0C1C9D
:101360003000383F7F7F7F7F7F3F3F3F1F1F3F3FE2
:10137000380000F0F0F0F8F8F8F8FCFCFCFEFEFF96
:10138000000000000000000000000000000000005D
:10139000000000000000000000000000000000004D
:1013A000000000000000000101010000000000003A
:1013B00000000000000080E0E0C00000000000002D
:1013C00000000000000000003F3F1F3F1F0F030709
:1013D0000000000000000000FFFFFFFE9C800000F6
:1013E000060E0E0E0C0C1C1818787C7CFEFF7F0F6E
:1013F00000000000000000000008181C1F1F8F8361
:101400000C1F3F0F07070303030301010101000045
:1014100030FCFCFEFEFEFEFEFCFCF8F0F0E0E0F12D
:1014200010180C0F1F1F3F3F3F1F1F0F1F1F1F3F95
:10143000737FFFFFFFFFFEFCF0F0F0E0E0E0C0C0D4
:10144000000000000000000000000001000000009B
:10145000000000000000000000FEFCFEFE3C3C38E6
:10146000000000000000000000000303030303036A
:10147000787870F0706060604040C0C0E0E0F0F0EC
:10148000000000000000000003030303030100014B
:101490000000000000000000F8FCFCFCFCF8FCFC74
:1014A0000100000000000000010101010303000031
:1014B000FCF838383070E0E0E0E0F8FCFEFF7F0C2C
:1014C00000001E0F070301010000000000000406D9
:1014D000001C3FFEFEFEFEFFEFCF4703070F1F1E5F
:1014E00003030100000000000000000000000000F5
:1014F0003CF8F1E3470F1F3F3F1F1F3F3F3F3F3F78
:101500000000000000000040C0C1E3E3DF9F0F3F88
:101510000000000000081C7CFCFCFCFCFEFFFFFC43
:101520007FFFFFFFFCF8F0E0E0C0C0C0808080C01B
:10153000E0C080000000000000000000000000008B
:101540000000000000000000010303010101000091
:101550000000000000000000FEFEFCFCFCFCE0E0DF
:10156000000000000000000001010303070F1F1F1F
:10157000E0E0E0C0C0C0C08080E0E0E0E0E0E0C0CB
:10158000060F0C00000000000000001F1F1F1F1F9F
:1015900000F070783C3C1C1C1E0C3CFCFCFCF8F879
:1015A0000000070F1F1F1F1F0F0F0F0F0707030755
:1015B0000000F0F0F0F8F8FCFEFEFFFFFFFFFFFF79
:1015C000000000000000000000001F1F07000000D6
:1015D00000000000000000000001FFFF3E0E0E0EA4
:1015E00000000000000000000000000000000000FB
:1015F0001E1E0E0E0C0C0C04040C0E1E3F3F3F3F33
:10160000030707070E0C0C0C0C0E0F0F0F07070734
:1016100000F0F80000000000000086FEFEFEFCFC6A
:101620000F000003070F0F0F0F0707070703030340
:10163000FC0000F8F8FCFCFCFEFEFEFFFFFFFFFFD5
:10164000000000000000000000000000000000009A
:101650000000000000000000003F7F7F3F1F0E06DB
:10166000000000000000040C1C1D1F1F0F070301D9
:1016700000000000000000000001018183C3E1F0D0
:10168000000000000000040404FCFCFCF8F8F8F87A
:10169000000000000000000000000000000000004A
:1016A000F070F0606060606060E0E0F0F8FCFEFF09
:1016B000000000000000000000000000000000002A
:1016C000000000000000000000000000000000001A
:1016D000000000000000000000000000000000000A
:1016E00000000000000000000000000000000000FA
:1016F00000000000000000010B1F1E3E3E3E1E1FAA
:1017000000000000000000000000060602030101C6
:10171000000000000000000800000000000080C081
:1017200001030F3FFFFFFFFFFE001E0F0F0F1F3FC4
:10173000E0E0E0E0C0C0800000000080C0E0E0F039
:101740000000000000000000000000010000000098
:1017500000000000000000000000C0C0FFFF7F7F0D
:101760000000000000000000030303C7E6C60000FD
:101770007F7FFFFFFFFF7F3FC0BF1F0F0F1F1F3B7C
:1017800000000000000000000000FCFCFCFCFCFC71
:101790000000000000000000000000000000000049
:1017A000F8F8F0F0E09E7FFFFFFFE7C3C380800002
:1017B0000000000000000000001000800000000099
:1017C00000000000000000000C1C3C7CF8F8787859
:1017D000000000007F7F3F1F1F070B1C1F1F3F37AC
:1017E00000000000000000000000000000000000F9
:1017F0000000000000003070703020000000000089
:1018000002030303FFFFFFFEFEF0EC1EFFFFBE1FFF
:10181000000080C080000000000000000084040F71
:101820000F0703030000000000000000000000009C
:101830001C3CFCFC7C3C1C0C000000000000000078
:1018400001030600000000000000070F0707071F44
:10185000C0F83C1C1E0E0E1E3E7EFCFCFCF8F8F090
:101860003F3F1000000001131F1F0F0F0F07070756
:10187000F0F000F0F0F0F0F0F0F0F0E0E0E0E0E0A8
:101880000703070F0F07010101000000000101031A
:10189000E0E0E0F0F0E0C0C0C0C0C0C0C0C0C0C068
:1018A00001010101030105070F0F0F0703010000EC
:1018B000C0808080000000808080C0C0C0E0F070E8
:1018C00000000000000000010F0707071F3F3F3026
:1018D0001E0E07070F1F3FFFFFFEFCF8F8F0E07039
:1018E00001010121273F1F0F06000000000000003A
:1018F00000C8F8F8FCFEFEFFFFFF7F3F0F0F070355
:1019000000000000000000000000000000000000D7
:1019100000000000000000000002020303030302B5
:101920000000000103377EFC7C7C3C1E0E07030197
:101930003EFEFCF0E080000000000000000000001F
:10194000000000000000000000001C0E070703015B
:10195000000000000000000000000010F0F2FBFF9B
:10196000000000000040707C7F7F0F00207C7F7FA4
:10197000FF773210000000048CF8E0000070F0F0F7
:101980000000000000000000000000000000000057
:101990000000000000000000000000000000000047
:1019A0000000000000000000000000000000000037
:1019B0000000000000000000000000000000000027
:1019C000000000000000000000000101030300000F
:1019D0007FFFFF7F7F7EFEFEFCFCFCFCFCF8F8F046
:1019E0000001010103030103020E1E1F1F3F7F7F41
:1019F000E0E0C0C080800000000000000080808027
:101A0000F8FCFCFEFEFF7F3F3F1F0F0F1F03030785
:101A1000000000000000008080C0C08080808080C6
:101A200007030307030303030303070F0F0F1F1F1E
:101A3000808080808000000000008080C0E0F0F89E
:101A4000000000000000000000000000041E0F065F
:101A50000000000000002000000000000030F8300E
:101A6000060202030303030141406060703000601E
:101A700010101010BEFEFE7E18101010103000085E
:101A8000FFFFFFFF7F3F3F3F1F1F1F3F1F070E0E40
:101A9000F0F8F8F8FCFCFCFEFEFEFEFC6400000022
:101AA0001C38787070E0E0C0C0C080C1E1F1F9F886
:101AB0000000000000000000000080C0F8FCFE3FB5
:101AC0000000000000000018783C1C0C0E0F1F3FA7
:101AD00000000000000000100000000000008080F6
:101AE0003F7FFFFFFFFFFEFEFFFF3F1FFEFE7F7FEA
:101AF000808000800000000000C0A0000000008086
:101B000000000000000000000000000000000000D5
:101B10000000000000000000000001030F0707079D
:101B200000000000000000000000000000000000B5
:101B300001183E3F311001010500030101000000C2
:101B40001F1F1F1F1F1F1F0F0F1F1F0F0701030343
:101B5000E0E0F0F0F8F8F8F8FCFCFCFCE0C0C0C0F5
:101B600003030303030707070E0E1E3F3F3F3F1FFC
:101B700080808000000000000000000080C0F0F0C5
:101B8000000000000000000000000000000307014A
:101B900000000000000041212337BF7F3F9FFFFF6F
:101BA0000101000000010303070F07070F181C1FA6
:101BB000FFFFFFFFFFFFFFFFFFFEFEFCFC0000FC3E
:101BC000000000000000000000000000001F0706E9
:101BD00000000000000008080C0C0E0E0E3E0E0E59
:101BE0000E0E0E0E1C1C1C1C1818187C7EFFFF7F8E
:101BF0001C1C1C1C0C0C0C081818180C0080C0C0F5
:101C00000000000000000018783C1C0C0E0F1F3F65
:101C100000000000000000100000000000008080B4
:101C20003F7FFFFFFFFFFEFEFCF80000F0F8787832
:101C300080800000000000000000000000000000A4
:101C40000000000000000000000000000001000093
:101C5000000000000000000000000020E0E0E0E0E4
:101C60000207070706040000000000000000000053
:101C7000E02000C0E02000203F3F1F7F3F3F3F3F6C
:101C80000000000000000000070F0F07070200001F
:101C90001010181818181C1CFCFCF8F8F8383878C4
:101CA0000000000000000000000103070707070311
:101CB000787070706060E0E0E4C2C2C3E7FFFFFFCD
:101CC000000000000000000010783C1C0E0F0F0FF9
:101CD0000000000000001000000000000080C0C0F4
:101CE0001F3F3F7FFEFCFC1C00E0F8FFFFFF7F3F33
:101CF000C0C08080000000000000000080C0F0F83C
:101D000000000000000000000000000000000008CB
:101D100000000000000000000000000000000000C3
:101D200018000008183838383000010002000000A0
:101D300000000000000000000000FFFFFFFF7F3FE9
:101D400000000000000000070707060404FCBC3880
:101D50000000000000000000808000000000000083
:101D6000787838383838381818183C7C7E7F3F3FF0
:101D70000000000000000000000000000080C0C063
:101D80000000000000000200000000000000000D44
:101D9000000000000000000000000000E07070F88B
:101DA0000F1F1918101000000000000000000000B4
:101DB000FCFEFFFE7E3E3C3C7D79FB1B09000000E3
:101DC00000000000000000010307070707070707DE
:101DD00003071F1F3F7FFFFFFFFFFFFFFFFFFFFF07
:101DE00007070703000000000000000000000000DB
:101DF000FBC08000000000000000000000000000A8
:101E00000000000000808080000080C0E0E0F0F072
:101E100000000103060E0E0E1C1C1C3838000000CA
:101E200078383C3C1E0E0E0707010003010101003B
:101E3000000000000000000082FEFCF8F0E0C0801E
:101E40000000000000000000000000000080808012
:101E50000000000000000000000000000000000082
:101E60008080C0C0C0C0C0C0C0C0C00000C0E0F022
:101E70000000000000000000000000000000000062
:101E800000000000000207030303070F0F1C1838AF
:101E90000000000080C080E0C0C0008080C0C04062
:101EA000383878787CFE1F00000000000000000039
:101EB0004040040F0F0F060000000000000000006B
:101EC0000000000000000000000000000000000012
:101ED0000000000000000000000000000000000002
:101EE00000000000000000000000000C0E1F1F1F7B
:101EF000000000000000000000000000000080C0A2
:101F000000000000000000000001030101010307C0
:101F100000000000000000004060C0F0E0E08080B1
:101F2000070E0E1C1C1C3E3E3F7F3F0F00000000B2
:101F3000C06060202000000002078F8F06000000B4
:101F40000000000000000000000000000000000091
:101F50000000000000000000000000000000000081
:101F6000000000000000000060F0F0707038180001
:101F70000000006070F0F83C00000000000000006D
:101F80000000000000000F3F3F7FF9F1F1F0F0F09A
:101F9000000000002030E4FCF8B0B0900000000029
:101FA000E0000000000001011038783838180808F7
:101FB0000000000040E0E0E0C00000000000000081
:101FC000000000000307CFC0C0E0C00101000060B6
:101FD0000000004040E0E0F0FCFCFCFEFE1E0F07AD
:101FE000F0F03020000000000000000000000000C1
:101FF0000303E73F0E3C3C78186C2800000000000B
:00000001FF
