:10000000967E279FCE0101DF3CBDE95B0F8620BDB8
:10001000F73D7F00050EBDE98CBDF604BDF661BD60
:10002000F691CE0000DF3C7EDFA3BDF53226037ED5
:10003000DF2DBDF5DEBDF4C186FFBDEA6E967E26DE
:10004000C30F8620BDF73DC610BDEA640ECE010188
:10005000DF3CBDE95BBDF14AB60225260496462683
:1000600039CE0000FF0225BDF5C6CE4C14BDF5EA21
:100070008603977286FF9771B6020E260F8601BD22
:10008000EA6E7A007126F17A007226E8BDE95BBD5E
:10009000E98CCE0000DF3C7ED83B0F4A9700260C4F
:1000A00086FBBDF73DC610BDEA6420058620BDF77E
:1000B000390EBDE95BBDE98CCEA60DDF74860397D2
:1000C00076C6158601BDEC56DE740808DF747A002A
:1000D0007626EECE00466F00088C006226F8CEFD34
:1000E000F0BDE9EDCEFE28DF70CE4612DF72C60B02
:1000F000D774BDEA257C00727A007426F5CE4610CE
:10010000DF72C60BD774BDEA257C00727A007426B4
:10011000F5CE460EDF72C605D774BDEA257C0072A7
:100120007A007426F5CEFE04BDE9EDCEFE0CBDE9E5
:10013000EDCEFE13BDE9EDCE4611DF49CE4F06DF11
:100140004F86FF975EB60225265E964D2707B602BC
:100150000E2653200B964E2707B6020E810122462B
:10016000964781192240B7801A965F27D8964B810F
:100170001B2233811B2737965381092229CE005435
:10018000DF7096539B7124037C00709771DE70962C
:100190004CA700DE4FDF72C601D776BDEA057C00B2
:1001A0004F7C0053203D2041BDEEBE7EE04DCE0091
:1001B00054965326046F002013DF704A9B7124036A
:1001C0007C00709771DE706F007A004FDE4FDF7237
:1001D000CEFE20DF70C601D776BDEA2596532703F1
:1001E0007A00537F005F7EE145BDEE92965327195A
:1001F000CE4C1EDF5116860A10449B519751CE00FB
:1002000051BDE9ED86FFBDEA6EBDEEBECE0101DF58
:100210003CBDF5C67EE08CDE70DF77DE72DF79DE16
:1002200074DF7B9676977DB6800B8480D600260699
:10023000F6800AC4801B9B002704818126037EE888
:1002400048B6800B852026677F0226BDF6C2965EE3
:1002500027037EE2E4963E2607867FBDF730200323
:100260007A003E960527037EE3339603270DB6807A
:100270000B85082729860197052023B6020E270340
:100280007EE303963C26179613810823037EE365DD
:1002900086019709BDF3E3BDEF5B8601973CDE77EE
:1002A000DF70DE79DF72DE7BDF74967D97763BB69A
:1002B000022626EA8601B70226BDE95BBDE98CCE9F
:1002C000AB0DC60AD772C6038601BDE9A2CEFD807A
:1002D000BDE9EDCE4C0DBDF5EA4FBDEA6E8601B726
:1002E000022520BAB6800B16840227068601974D98
:1002F00020ACC40427068601974E20A2DE4708DF03
:1003000047209B8604BDF739BDEF5B86019702B697
:10031000800B16840227098601970397067EE29ECA
:10032000C40427F9B6020E810123F28601970397D0
:100330000720EA963D264E961381072338963027EC
:10034000107C0031963181042607860197327F00A8
:1003500031961F27107C00209620810426078601F5
:1003600097277F0020960C261F7F000B7F000C969E
:1003700013810722108601970ABDF3E37F0005BDB4
:10038000E9D17F00197EE29E960B27037EE5A586C4
:1003900001970BD60D960E841FD770977181012699
:1003A0000BC1442729C15D27257EE60A4D27C6815A
:1003B0000723188111271A811122238108271C8104
:1003C000092718C1442704C15D2662BDF20F7EE5EE
:1003D00054C15A2218C146230D20597EE594811537
:1003E000220EC14822037EE742C15823557EE747CB
:1003F0008117220AC14A23EEC15622F120448119F5
:100400002211C14922037EE7DDC15722037EE48920
:100410007EE82E811A260BC14A23CBC15622CE7EFE
:10042000E735C14A23C0C15622C37EE728810E2684
:10043000037EE569C1512707C15026067EE5027E8D
:10044000E4F4C1502215C14C22084FC608CEF8482A
:10045000201D8608C607CEF8582014C154220986EC
:100460000FC607CEF86620078616C608CEF8749722
:1004700072D7739671D670E1002604A101271D087A
:10048000087C00727A007326EE860197297C002A88
:100490008640BDF72C8603973E7EE55B967236BD9F
:1004A000F1CB32CEE4B8DF70489B7124037C00703E
:1004B0009771DE70EE006E00E515E515E51FE51598
:1004C000E510E51FE515E51AE515E51FE51AE51543
:1004D000E510E51FE510E51AE515E51FE515E51A38
:1004E000E51FE51FE510E51FE510E51AE51FE51F0F
:1004F000E510E51581102605BDF1FD2018BDF1FDC3
:10050000200E81102605BDF1FD2014BDF1FD200A4D
:10051000CE01A8200DCE01B42008CE01A22003CE2A
:1005200001AEA6004C810526014FA7004C084A26C3
:10053000FCA600CE01C6DF7097725F489B72599B84
:1005400071D9709771D770DE70A600970FEE01DF3A
:10055000107EE29ED60F86171020D8D60FC10B232F
:1005600004862320F3860B20EFC14A2709C15827B0
:1005700005CE01BA2003CE01C0DF75D60327A386BE
:1005800010B70212BDEF6E8610BDF72C8602973EA3
:10059000DE75208EC144270AC15D27068601973B80
:1005A00020B97EE3CB960ED60D841F81022219C19D
:1005B00044270DC15D2653960F810B22977EE29E44
:1005C000960F810B22F7208C8118272D811927295E
:1005D000811A2607962927E57EE5158112270F81C6
:1005E0001B26DAC14A23F1C15622D27EE51FC1453E
:1005F00023E6C15B23F57EE29EC149230AC157224F
:10060000037EE29E7EE82E7EE7DDBDF20F96672731
:10061000279668267396002605B6021A2003B602AE
:100620001F2765CE01C6DF72CEF952DF70C618BD36
:10063000EA8D8601976820507C00669666810323C8
:100640004786019767CE01C6DF72CEF934DF70C6E8
:1006500003BDEA8DCE01E1DF72CEF93ADF70C60646
:10066000BDEA8DCE0205DF72CEF946DF70C603BD4E
:10067000EA8DCE01A2DF72CEF9A6DF70C604D77470
:10068000BDEAAA7A007426F8DE16DF70D61854C0C8
:100690000286209B7124037C007097715A26F2DE3B
:1006A000709C0D270C9670D671D00E920D222827C3
:1006B00026D618545486209B7124037C00709771B1
:1006C0005A26F2DE709C0D27549670D671D00E9289
:1006D0000D224F274D2046DE16DF70D61854548663
:1006E000209B7124037C007097715A26F2DE709C67
:1006F0000D27119670D671D00E920D22072705CEC8
:1007000001C62021CE01C9201CCE01CF2017CE0169
:10071000D52012CE01FF200DCE02052008CE020802
:100720002003CE020B7EE549BDF20F960F81112208
:100730000E8105230A860197217F001F7EE29E7E9F
:10074000E55B80114820058011488B18CEE760DFFB
:10075000709B7124037C00709771DE70EE006E0058
:10076000E790E79CE79CE7CBE7CBE7CFE7D9E7DD6E
:10077000E7DDE7F2E7E9E790E796E7F5E7F5E81C5C
:10078000E81CE820E82AE82EE82EE83AE844E79654
:10079000BDF20F7EE515BDF20F7EE51F960D814679
:1007A000270C8604D6302603BDF2137EE515860499
:1007B000D6302603BDF213961481132707861397AC
:1007C000147EE713861597147EE718860320D596C6
:1007D0000D81482704860220D7860220C78601D6CD
:1007E0002827C1CEF94F7EE549960D814926034F52
:1007F00020BE4F20AF960D815B27088609BDF213FE
:00000001FF
