:1000000008000F080A05020805040A0D0E07080576
:1000100002080900080D050708050308090008097A
:100020000008000F080A0503080808080A08000865
:100030000A0808080A05010805060004090F090155
:100040000900000D08090B08050105030805070054
:1000500004090F09010900000808090B080501003F
:1000600002090F05030808080A0800000104090036
:100070000904010001040900090401050C08050D2B
:1000800008050E040F000F08090408080900000AFB
:100090000200050C050E0A000309020A060C0902FB
:1000A0000A060C02010A000A0900050E000A0809E6
:1000B0000208090300000D050E08050F0005050FD5
:1000C0000800070C080A09020A05010008050500D6
:1000D00000080808080401080500080503080502CF
:1000E000040500040900050F080A000F040C060BA4
:1000F00000080808080A00050100010005000003C7
:100100000C01090502040500000A09020902080998
:100110000F0008090E000C0E09050308050205036F
:100120000A000206020A0602040500010805030887
:10013000090004030002090F050205020808050E64
:10014000050E0502050005000A0A0008090005025F
:100150000808000A0A000D0B0100090A000C0C0B2C
:10016000070007060F000A0C0B090A0809020A001B
:10017000070C0808080A05030A05000401000F0817
:1001800009010808080A0001000809020A040C0015
:100190000406020606090F05030A09020A05080AF1
:1001A00009080002090808050705070900050B08EA
:1001B0000A05000004090F050006000002000309FB
:1001C0000005010A08090209020A060B060B080AC3
:1001D000000A0E0B0F05050D070E0B090F0809018C
:1001E00009040200040A0A0A0A040300020A0A09AE
:1001F00000000905020503000D05030502000705BF
:10020000080A090000020900000209000A000E089D
:10021000050305020006090005030503080A000C92
:100220000502050300060900050205020A08090285
:100230000A090E050B080A00000C0B00060A000C48
:100240000B090F050608080002000A00030D000B49
:100250000D00080D00090D000A0A000F0606020035
:100260000C030B060A060A08000008000C08000F21
:1002700000000F0F0F0F0F0F0505050505050506FB
:100280000A0A0A0A0A0800080508000C010D000302
:100290000C0A0E0D0A0309030105000A0C0A0102EB
:1002A0000B070F0C0B0506050A0D04000C030306D3
:1002B0000F0005070A0A00070900080002060605E4
:1002C00007050201050602060200040A0A000600EC
:1002D00000020A08090805080901050700020A06C4
:1002E000070607050705070003090F0007050809AA
:1002F0000B000100080000080A050509010A0001B9
:100300000002020D030A05050D040A05060000049B
:100310000700000A000800020A050408090102009B
:10032000010700010B00020A050400070902090089
:100330000002090502000107000100010700010B8E
:100340000C050B0A05040A000B0A0809010200014A
:10035000070C010B0A0A0A050406040A0D0D0B001E
:10036000030E03080200010700010B0C050B00003F
:100370000A0008090A0200010700030005050A092E
:100380000808000409080008050D040F0904050EFB
:10039000090005090908050C090005070000000708
:1003A00008000006090908000006070000010F0008
:1003B000000604090005040D0D0B000206040805E3
:1003C0000705070504050805080604000900020CD6
:1003D00005000A000B00090A0501000809000600D3
:1003E0000A050100020501080004060000090205D3
:1003F000010900080501080A06010A0601090005AD
:100400000008090708090405020900080500080A90
:100410000A0A050005000809070809040503000188
:1004200000040D080C0A0C040D08050C000202085B
:100430000D010009030004050E000B050100020573
:10044000000900050C000B0601090F0500060E0649
:1004500006080A0A000A00080900080A080A050234
:100460000A0A0A0D0D0C0A0502080A0800000D0907
:1004700005010C07010B030A01060A0E0F0F0F0EF0
:100480000A06010A030B01070C0105090D00030709
:100490000B0F04090F050D060F0A060201010102E8
:1004A000060A0F060D050F09040F0B07030D0400C4
:1004B0000406000100080A080A08080805050900E2
:1004C000090000030C030E0D0000000C05080A02D1
:1004D00002050C0500050D050805000401000405D2
:1004E0000404050809080002090F090000020900B8
:1004F00008050408050C00090400000204040904AE
:100500000D0904050D0D010005040D00000A0A0087
:1005100000000A02020800000E0A0A000806080984
:1005200000050A0609000F0E00040D000A0D000563
:100530000E050A00090A050309040002000A08085A
:10054000080A080000080808080000000808080059
:10055000000008080900080E00080001080A0E063D
:10056000000001080A0E04000001080A0204000E3F
:100570000D020200080D000E0D020000080D080516
:10058000070407040805080409050705020507050F
:100590000805090502050C0009050D000000000D05
:1005A0000100000108090A0D00000D01000001080A
:1005B00009070D080D050000020808080C040000DA
:1005C0000209000C0000000209000009050D0000EE
:1005D0000D0500000600030003060202000A0E0AD1
:1005E0000A000909060508000205080A0D01000AAB
:1005F000080900050F00050508050E000508050F90
:100600000007050F0508080002060E060E0904057E
:100610000E0002050E0508000A000D000009000A80
:10062000060705070008090E00020908090005076A
:100630000D0600090000060507050A050B00000E5F
:10064000060A060B000E0608090E050B050000043D
:100650000900050000050C0A09010D00000A090047
:100660000004050D050B050C050E060B0900080915
:100670000C00090E00000202080A08060B0001081F
:10068000090C0005030A0A080808090F0E040C08E3
:100690000005040C090F0E0400090F0E0404090FD5
:1006A0000E0A0A0003090F0002090F0D02000000E4
:1006B0000101020202030304050607080A0B0D02EA
:1006C000020D0100090300060901050E0A0A0D04C6
:1006D00000050402030D08000A0A00030D08000AC1
:1006E000000300060608020F0A0802000A05000AB5
:1006F000000B0C0000000A00080A090F050C0C0191
:100700000002000A05000D0008080008000F05009F
:10071000000904000A000702090002020600060D93
:10072000030F0908080A0800060200090005000D69
:1007300000090A0D000A0D000B0A000F090005014F
:100740000900050002050601080A010008000B0A5D
:1007500006010907040100010A090F00050D040044
:10076000060106010A090000050D04000601050145
:100770000900000C020000050501090F0004020930
:1007800000050D0908020600060D0D0F0901080AF3
:10079000080006090305040505050E000F0E0C00F0
:1007A00000000B0C0000000B00040D00050E0C00F7
:1007B0000000030C030E0D00000A0D02000D0600E0
:1007C0000900050C08050E0500000E050A000204CC
:1007D0000B040C050A0D020009030809010D0008AD
:1007E0000C0E0F0201040002010D000F0B020104A8
:1007F00000020F0D000F0B0000000D0C060E0D0582
:00000001FF
