:100000000E0200010700040E0B0400090F0A000194
:100010000002030B02000B02030B0A07000A0F0089
:10002000020B0B0A050D0D02060B0A0008050D0D4B
:100030000A000409020A060202000F01040A000273
:100040000F0B0A00020F0B060A0A0408000008053D
:100050000B0B0B0A07040B0B0A000A060F000C0619
:100060000D000A070D00040F0B0A0A0A07080A0F01
:10007000020E000D0104020B0B020F0B02070B0214
:100080000E0B0A0A0D0008080808060A000C000FEB
:10009000000A00020F0B0A00020F0B040B0B0A06EA
:1000A0000202000A0F0E020F0B0A000D00040A0DD7
:1000B000000A08080A020F0B04070B060103040AD2
:1000C000070A040708070F0109040606020C0600C8
:1000D0000A04080808040900020F0B0A00010004C2
:1000E0000E0B060A000A0801000A00020F0B0A00A4
:1000F000020807000A00020F0B0A000A08040900A0
:100100000A00040F0B0A0A0F000A08000A0802027C
:1001100002000A02020B09010A08000A0802020290
:10012000000C000A0A0F09000A00080A0A000C075E
:100130000A060202000D00010A0002010D00030977
:100140000B00000008080A0A0F020A00040B000C4A
:100150000A0D0008080A0A080804030B0A0A02022A
:100160000C0202020603080A000A00040F0B060A2A
:10017000000B0B0B08000B0B0B0A0F08050B0502FD
:100180000B0B0003020E0B0C0C010E0A010A0803F4
:1001900000020F0B0A010A080300040F0B0A000AF1
:1001A000000904000C010F030E0A000A00090500F3
:1001B0000C010F0608030C0208010A0808050800D4
:1001C000020D0B04020D0B040A000A01020D0B06BE
:1001D0000C040D0B0404040404020D0B060C0200B5
:1001E0000D000205030001060304050203000009D7
:1001F0000000060A00020C040D000A00020C050DA6
:10020000000400020B010B0B020B0A0B030B0C0882
:1002100002030904000C0E090F0605000102040088
:1002200006070808090A0B0D0C0E0F0F040404043E
:1002300004060400020A0A0C0C0E0E060001050555
:1002400004050504050504050D050504040504045D
:10025000050504050405040404040C030404040453
:100260000404050405040504040504050C03040442
:1002700004040405040504050405040405040D0430
:10028000040404050404040504040405040304042C
:100290000C04040504040404050404050504040412
:1002A00005040C0404040404040404040404050404
:1002B000050404040C0405050404040404040504F2
:1002C000040D04040D0405040404040404040C05D2
:1002D00004040405040404040404040404050C05D3
:1002E00004050404040404050404040504040C04C3
:1002F00004050405040404040405040404050C05B1
:1003000005040405040404040405040404040D04A1
:1003100004050404040404040504040404050C0492
:100320000504040404040504050404050404050C80
:10033000050404040D02040B0A0002060B02080B5C
:1003400002060B09070C0C010F060A0008080B0334
:10035000030F030B00040F06000C010F0106080930
:10036000000A0F00000808060A000A00030108043A
:10037000000A0B05030F05000B000A000A00040F1A
:1003800000080D0F0B080B090406000000000A000E
:1003900009040B03040B0304080404000A0B030400
:1003A0000B030B030F000B00040F06000C0C0900DD
:1003B00006030F000B00040F06000C09000D000DD2
:1003C000000A000D030308010B000F000801020DD5
:1003D0000B020A010C010A0F0B010A000D000201B9
:1003E000020B000C0109000E0103080D0F02010AA7
:1003F0000104010C010906000B0D0A010D050B0B90
:100400000008010F0900090B000F000C000F000A83
:1004100001030F000107060B00000900060A06068B
:10042000030F010F01020F0F000C0F09000A000D4E
:10043000000003040F040A000D040B000409040B60
:100440000403020000000B050F0009080B080F0051
:100450000D0806000000000000000001010101027B
:1004600003050A0F010002030B070B010F000D012A
:100470000D070B0402000F00040B070B0702000A14
:100480000B010B060B04080808040B010404040408
:100490000406000200040B0308040B0308040A000E
:1004A000020E0B0601060002000A020E0B020E0BE2
:1004B000020E0B060A0A080B0F0B010004010B04C5
:1004C0000A00030F040B000A00000000000C0806DD
:1004D00009000A040B040F000900040B0601000BBD
:1004E000080D00040B010D04060B000200060B0CA6
:1004F0000B0C01000A000B000000000208060404B7
:100500000C04040C040C0404040404040404040493
:100510000404040404040404040404040404040A95
:100520000309010A0000020202000004060A000496
:100530000A00040A00040A00040E0002060B020767
:100540000B0A0002000B020E0B0C0C010F0A00023A
:100550000F0B0C0C010F0608000608000608000629
:100560000800040C0001070A060202000A0B0E0B29
:1005700008000A0003050A080F010F030E000D080A
:10058000080C08090402020B09040A0008080D03FC
:100590000A000D030A060202000F020A0B0B0B08E9
:1005A000090A000B080101040804000A060D0500F1
:1005B0000B000A03080808000A00020F0B040C0BCA
:1005C0000C0C010D0A0F08000A0708060E080A0A9B
:1005D000080A0408000A0808050A00020D0B0003B7
:1005E00009000006020304050A000F000A070006BE
:1005F000000A0D050B060A0003000B0803000B0799
:10060000000405060100060409060300020A0B06A1
:1006100002010C010B030A0B020B08000B030B0871
:10062000000A0008060402020B04050B0600000A7B
:100630000B090B0A0B040B080B080B070B080B0527
:100640000B02040B0B01030E0C09010B000D010A38
:100650000006010606020708060B09020800060943
:10066000090B010D010F01090102080100020F042D
:1006700002050B09010602050B09010602040B0421
:100680000A0B02040B04080B02090B0A00030F01FA
:100690000A0A00030F01040B0B02090B0B010106F0
:1006A0000C090109000F010A000602090B0B010ADF
:1006B0000B01040B010C020900060A000609040ADA
:1006C00000060401000801070209020907030903E3
:1006D000060C0806010702090209070309030A00BC
:1006E00006040100080107020902090703090306BD
:1006F0000C0806010702090209070309030A00069C
:100700000A000B07010002050B0A000A0001000C99
:100710000B010F000C0D0102030D010D000B010276
:100720000F04020B00020304030909090D0002086B
:1007300007000B010F000A08000B0902070B00005D
:1007400008090903000B0503000B0309030B030948
:1007500003060804030E000A020E0B0A000A0F0427
:100760000B0C0B0B0002020F00060300020E0B091C
:100770000008040C010E0603010A0B0C0B0B000C05
:10078000070D0106040A020003000F0504050A0311
:1007900009010A000900060A060A0F0A0001070DEE
:1007A0000B0D000A01000A0009040A0F0A000107E4
:1007B0000D0B0D000A01000A000B0B000A090107CE
:1007C00003090306010703090306060200000204E9
:1007D000040402000200000000000F0F0F000F0FC2
:1007E00000000000000F000408040B0D0B010600C0
:1007F000010602040B0D0B010600010602040A02A9
:00000001FF
