:1000000000000308040C0C060C060C06060403088A
:100010000000010803080108010801080108070E93
:100020000000070C0C06000E030C07080E000F0E54
:1000300000000F0E000C0108030C00060C06070C54
:100040000000000E010E030606060F0E0006000655
:1000500000000F0C0C000F0C000600060C06070C2D
:100060000000030C06000C000F0C0C060C06070C1D
:1000700000000F0E0C06000C010803000300030033
:10008000000007080C040E040708090E0806070CF8
:100090000000070C0C060C06070E0006000C0708F3
:1000A00000000308060C0C060C060F0E0C060C06CE
:1000B00000000F0C0C060C060F0C0C060C060F0CA7
:1000C0000000030C06060C000C000C000606030CD6
:1000D00000000F080C0C0C060C060C060C0C0F088C
:1000E00000000F0C0C000C000F080C000C000F0E91
:1000F00000000F0E0C000C000F0C0C000C000C008C
:100100000000030E06000C000C0E0C060606030E83
:1001100000000C060C060C060F0E0C060C060C0656
:1001200000000F0C030003000300030003000F0C8A
:10013000000000060006000600060C060C06070C70
:1001400000000C060C0C0D080F000F080D0C0C0E17
:1001500000000C000C000C000C000C000C000F0E3A
:1001600000000C060E0E0F0E0F0E0D060C060C06F0
:1001700000000C060E060F060F0E0D0E0C0E0C06E0
:100180000000070C0C060C060C060C060C06070CEF
:1001900000000F0C0C060C060C060F0C0C000C00DB
:1001A0000000070C0C060C060C060D0E0C0C070AC2
:1001B00000000F0C0C060C060C0E0F080D0C0C0E9C
:1001C000000007080C0C0C00070C00060C06070CBE
:1001D00000000F0C030003000300030003000300F2
:1001E00000000C060C060C060C060C060C06070C90
:1001F00000000C060C060C060E0E070C030801008E
:1002000000000C060C060D060F0E0F0E0E0E0C064F
:1002100000000C060E0E070C0308070C0E0E0C0651
:100220000000060606060606030C01080108010880
:1002300000000F0E000E010C030807000E000F0E49
:10024000080008000C000C000E000E000F000F004C
:100250000F080F080F0C0F0C0F0E0F0E0F0F0F0FC4
:100260000F000F000F000F000F000F000F000F0016
:10027000000100010003000300070007000F000F4A
:10028000010F010F030F030F070F070F0F0F0F0FC2
:10029000000F000F000F000F000F000F000F000FE6
:1002A0000F0F0F0F0F0F0F0F0F0F0F0F0F0F0F0F5E
:1002B0000F0F0F0F0F0F0F0F0F0F0F0F0F0F0F0F4E
:1002C0000F0F0F0F0F0F0F0F0F0F0F0F0F0F0F0F3E
:1002D0000F0F0F0F0F0F0F0F0F0F0F0F0F0F0F0F2E
:1002E0000F0F0F0F0F0F0F0F0F0F0F0F0F0F0F0F1E
:1002F0000F0F0F0F0F0F0F0F0F0F0F0F0F0F0F0F0E
:100300000000010C03060707070707070306010C97
:100310000000010C0202070B0603060F0202010C8B
:100320000000010C0202070B0703070B0202010C7D
:100330000000010C020A060B0603070B030A010C5E
:100340000F0F0F0F0D010D050D050D050D010F0F01
:100350000F0F0F0F0D010D070D010D0D0D010F0FEB
:100360000F0F0F0F0C050F050C050D0D0C050F0FD2
:100370000F0F0F0F0C050F050E050F050C050F0FC6
:1003800000000505020A0505020A0505020A050521
:100390000304020A04020201040A0801050D020214
:1003A00002080000040200000A01050A0000010220
:1003B0000404090100000800000100000401020A11
:1003C0000F0F0F0F0F0F0F0F0F0F0F0F0F0F0F0F3D
:1003D0000F0F0F0F0F0F0F0F0F0F0F0F0F0F0F0F2D
:1003E0000F0F0F0F0F0F0F0F0F0F0F0F0F0F0F0F1D
:1003F00000000000000000000000000000000000FD
:00000001FF
